{"contracts/P2PEscrowV2.sol":{"P2PEscrowV2":{"abi":[{"inputs":[{"internalType":"address","name":"_usdc","type":"address"},{"internalType":"address","name":"_arbitrator","type":"address"}],"stateMutability":"nonpayable","type":"constructor"},{"inputs":[],"name":"DailyVolumeLimitExceeded","type":"error"},{"inputs":[],"name":"EnforcedPause","type":"error"},{"inputs":[],"name":"EscrowAlreadyExists","type":"error"},{"inputs":[],"name":"EscrowExpired","type":"error"},{"inputs":[],"name":"EscrowNotExpired","type":"error"},{"inputs":[],"name":"EscrowNotFound","type":"error"},{"inputs":[],"name":"ExpectedPause","type":"error"},{"inputs":[],"name":"InsufficientStake","type":"error"},{"inputs":[],"name":"InvalidAmount","type":"error"},{"inputs":[],"name":"InvalidStatus","type":"error"},{"inputs":[],"name":"NotAuthorized","type":"error"},{"inputs":[],"name":"OrderBlocked","type":"error"},{"inputs":[{"internalType":"address","name":"owner","type":"address"}],"name":"OwnableInvalidOwner","type":"error"},{"inputs":[{"internalType":"address","name":"account","type":"address"}],"name":"OwnableUnauthorizedAccount","type":"error"},{"inputs":[],"name":"RateLimitExceeded","type":"error"},{"inputs":[],"name":"ReentrancyGuardReentrantCall","type":"error"},{"inputs":[{"internalType":"address","name":"token","type":"address"}],"name":"SafeERC20FailedOperation","type":"error"},{"inputs":[],"name":"TransferFailed","type":"error"},{"anonymous":false,"inputs":[{"indexed":false,"internalType":"uint256","name":"oldVolume","type":"uint256"},{"indexed":false,"internalType":"uint256","name":"timestamp","type":"uint256"}],"name":"DailyVolumeReset","type":"event"},{"anonymous":false,"inputs":[{"indexed":true,"internalType":"bytes32","name":"orderId","type":"bytes32"},{"indexed":true,"internalType":"address","name":"raiser","type":"address"},{"indexed":false,"internalType":"string","name":"reason","type":"string"}],"name":"DisputeRaised","type":"event"},{"anonymous":false,"inputs":[{"indexed":true,"internalType":"bytes32","name":"orderId","type":"bytes32"},{"indexed":true,"internalType":"address","name":"winner","type":"address"},{"indexed":false,"internalType":"uint256","name":"amount","type":"uint256"}],"name":"DisputeResolved","type":"event"},{"anonymous":false,"inputs":[{"indexed":true,"internalType":"bytes32","name":"orderId","type":"bytes32"},{"indexed":true,"internalType":"address","name":"sender","type":"address"},{"indexed":true,"internalType":"address","name":"recipient","type":"address"},{"indexed":false,"internalType":"uint256","name":"amount","type":"uint256"},{"indexed":false,"internalType":"uint256","name":"stakeAmount","type":"uint256"},{"indexed":false,"internalType":"uint256","name":"expiresAt","type":"uint256"}],"name":"EscrowCreated","type":"event"},{"anonymous":false,"inputs":[{"indexed":true,"internalType":"bytes32","name":"orderId","type":"bytes32"},{"indexed":true,"internalType":"address","name":"sender","type":"address"},{"indexed":false,"internalType":"uint256","name":"amount","type":"uint256"}],"name":"EscrowRefunded","type":"event"},{"anonymous":false,"inputs":[{"indexed":true,"internalType":"bytes32","name":"orderId","type":"bytes32"},{"indexed":true,"internalType":"address","name":"recipient","type":"address"},{"indexed":false,"internalType":"uint256","name":"amount","type":"uint256"}],"name":"EscrowReleased","type":"event"},{"anonymous":false,"inputs":[{"indexed":true,"internalType":"address","name":"previousOwner","type":"address"},{"indexed":true,"internalType":"address","name":"newOwner","type":"address"}],"name":"OwnershipTransferred","type":"event"},{"anonymous":false,"inputs":[{"indexed":false,"internalType":"address","name":"account","type":"address"}],"name":"Paused","type":"event"},{"anonymous":false,"inputs":[{"indexed":true,"internalType":"bytes32","name":"orderId","type":"bytes32"},{"indexed":false,"internalType":"bytes32","name":"proofHash","type":"bytes32"}],"name":"PaymentProofSubmitted","type":"event"},{"anonymous":false,"inputs":[{"indexed":true,"internalType":"address","name":"user","type":"address"},{"indexed":false,"internalType":"uint256","name":"amount","type":"uint256"}],"name":"StakeDeposited","type":"event"},{"anonymous":false,"inputs":[{"indexed":true,"internalType":"address","name":"user","type":"address"},{"indexed":false,"internalType":"uint256","name":"amount","type":"uint256"},{"indexed":false,"internalType":"string","name":"reason","type":"string"}],"name":"StakeSlashed","type":"event"},{"anonymous":false,"inputs":[{"indexed":true,"internalType":"address","name":"user","type":"address"},{"indexed":false,"internalType":"uint256","name":"amount","type":"uint256"}],"name":"StakeWithdrawn","type":"event"},{"anonymous":false,"inputs":[{"indexed":false,"internalType":"address","name":"account","type":"address"}],"name":"Unpaused","type":"event"},{"inputs":[],"name":"SLASH_DISPUTE_LOST","outputs":[{"internalType":"uint256","name":"","type":"uint256"}],"stateMutability":"view","type":"function"},{"inputs":[],"name":"SLASH_FAKE_PROOF","outputs":[{"internalType":"uint256","name":"","type":"uint256"}],"stateMutability":"view","type":"function"},{"inputs":[],"name":"SLASH_LATE_RELEASE","outputs":[{"internalType":"uint256","name":"","type":"uint256"}],"stateMutability":"view","type":"function"},{"inputs":[],"name":"SLASH_ORDER_TIMEOUT","outputs":[{"internalType":"uint256","name":"","type":"uint256"}],"stateMutability":"view","type":"function"},{"inputs":[],"name":"SLASH_PAYMENT_REVERSAL","outputs":[{"internalType":"uint256","name":"","type":"uint256"}],"stateMutability":"view","type":"function"},{"inputs":[],"name":"arbitrator","outputs":[{"internalType":"address","name":"","type":"address"}],"stateMutability":"view","type":"function"},{"inputs":[],"name":"baseStakeBps","outputs":[{"internalType":"uint256","name":"","type":"uint256"}],"stateMutability":"view","type":"function"},{"inputs":[{"internalType":"address","name":"user","type":"address"},{"internalType":"uint256","name":"amount","type":"uint256"},{"internalType":"uint8","name":"riskScore","type":"uint8"}],"name":"calculateRequiredStake","outputs":[{"internalType":"uint256","name":"","type":"uint256"}],"stateMutability":"view","type":"function"},{"inputs":[{"internalType":"bytes32","name":"orderId","type":"bytes32"},{"internalType":"uint256","name":"amount","type":"uint256"},{"internalType":"address","name":"recipient","type":"address"},{"internalType":"uint256","name":"expiresAt","type":"uint256"},{"internalType":"uint8","name":"riskScore","type":"uint8"}],"name":"createEscrow","outputs":[{"internalType":"bytes32","name":"","type":"bytes32"}],"stateMutability":"nonpayable","type":"function"},{"inputs":[],"name":"dailyVolume","outputs":[{"internalType":"uint256","name":"","type":"uint256"}],"stateMutability":"view","type":"function"},{"inputs":[{"internalType":"uint256","name":"amount","type":"uint256"}],"name":"depositStake","outputs":[],"stateMutability":"nonpayable","type":"function"},{"inputs":[],"name":"disputeDAO","outputs":[{"internalType":"address","name":"","type":"address"}],"stateMutability":"view","type":"function"},{"inputs":[],"name":"disputeTimeout","outputs":[{"internalType":"uint256","name":"","type":"uint256"}],"stateMutability":"view","type":"function"},{"inputs":[{"internalType":"bytes32","name":"","type":"bytes32"}],"name":"escrows","outputs":[{"internalType":"address","name":"sender","type":"address"},{"internalType":"address","name":"recipient","type":"address"},{"internalType":"uint256","name":"amount","type":"uint256"},{"internalType":"uint256","name":"fee","type":"uint256"},{"internalType":"uint256","name":"stakeAmount","type":"uint256"},{"internalType":"enum P2PEscrowV2.EscrowStatus","name":"status","type":"uint8"},{"internalType":"uint256","name":"createdAt","type":"uint256"},{"internalType":"uint256","name":"expiresAt","type":"uint256"},{"internalType":"uint256","name":"disputedAt","type":"uint256"},{"internalType":"string","name":"disputeReason","type":"string"},{"internalType":"bytes32","name":"paymentProofHash","type":"bytes32"}],"stateMutability":"view","type":"function"},{"inputs":[{"internalType":"address","name":"user","type":"address"}],"name":"getAvailableStake","outputs":[{"internalType":"uint256","name":"","type":"uint256"}],"stateMutability":"view","type":"function"},{"inputs":[{"internalType":"bytes32","name":"orderId","type":"bytes32"}],"name":"getEscrow","outputs":[{"components":[{"internalType":"address","name":"sender","type":"address"},{"internalType":"address","name":"recipient","type":"address"},{"internalType":"uint256","name":"amount","type":"uint256"},{"internalType":"uint256","name":"fee","type":"uint256"},{"internalType":"uint256","name":"stakeAmount","type":"uint256"},{"internalType":"enum P2PEscrowV2.EscrowStatus","name":"status","type":"uint8"},{"internalType":"uint256","name":"createdAt","type":"uint256"},{"internalType":"uint256","name":"expiresAt","type":"uint256"},{"internalType":"uint256","name":"disputedAt","type":"uint256"},{"internalType":"string","name":"disputeReason","type":"string"},{"internalType":"bytes32","name":"paymentProofHash","type":"bytes32"}],"internalType":"struct P2PEscrowV2.Escrow","name":"","type":"tuple"}],"stateMutability":"view","type":"function"},{"inputs":[{"internalType":"address","name":"user","type":"address"}],"name":"getStakeProfile","outputs":[{"components":[{"internalType":"uint256","name":"baseStake","type":"uint256"},{"internalType":"uint256","name":"lockedStake","type":"uint256"},{"internalType":"uint256","name":"tradingLimit","type":"uint256"},{"internalType":"uint256","name":"lastTradeTime","type":"uint256"},{"internalType":"uint256","name":"completedTrades","type":"uint256"},{"internalType":"uint256","name":"disputesLost","type":"uint256"},{"internalType":"bool","name":"isLP","type":"bool"}],"internalType":"struct P2PEscrowV2.StakeProfile","name":"","type":"tuple"}],"stateMutability":"view","type":"function"},{"inputs":[],"name":"lastVolumeReset","outputs":[{"internalType":"uint256","name":"","type":"uint256"}],"stateMutability":"view","type":"function"},{"inputs":[],"name":"maxDailyVolume","outputs":[{"internalType":"uint256","name":"","type":"uint256"}],"stateMutability":"view","type":"function"},{"inputs":[],"name":"owner","outputs":[{"internalType":"address","name":"","type":"address"}],"stateMutability":"view","type":"function"},{"inputs":[],"name":"pause","outputs":[],"stateMutability":"nonpayable","type":"function"},{"inputs":[],"name":"paused","outputs":[{"internalType":"bool","name":"","type":"bool"}],"stateMutability":"view","type":"function"},{"inputs":[{"internalType":"enum P2PEscrowV2.PaymentMethod","name":"","type":"uint8"}],"name":"paymentMethodRisk","outputs":[{"internalType":"uint8","name":"","type":"uint8"}],"stateMutability":"view","type":"function"},{"inputs":[],"name":"platformFeeBps","outputs":[{"internalType":"uint256","name":"","type":"uint256"}],"stateMutability":"view","type":"function"},{"inputs":[{"internalType":"bytes32","name":"orderId","type":"bytes32"},{"internalType":"string","name":"reason","type":"string"}],"name":"raiseDispute","outputs":[{"internalType":"bytes32","name":"","type":"bytes32"}],"stateMutability":"nonpayable","type":"function"},{"inputs":[],"name":"rateLimitSeconds","outputs":[{"internalType":"uint256","name":"","type":"uint256"}],"stateMutability":"view","type":"function"},{"inputs":[{"internalType":"bytes32","name":"orderId","type":"bytes32"}],"name":"refundEscrow","outputs":[{"internalType":"bool","name":"","type":"bool"}],"stateMutability":"nonpayable","type":"function"},{"inputs":[{"internalType":"bytes32","name":"orderId","type":"bytes32"}],"name":"releaseEscrow","outputs":[{"internalType":"bool","name":"","type":"bool"}],"stateMutability":"nonpayable","type":"function"},{"inputs":[],"name":"renounceOwnership","outputs":[],"stateMutability":"nonpayable","type":"function"},{"inputs":[{"internalType":"bytes32","name":"orderId","type":"bytes32"},{"internalType":"bool","name":"favorSender","type":"bool"},{"internalType":"bool","name":"slashLoser","type":"bool"}],"name":"resolveDispute","outputs":[],"stateMutability":"nonpayable","type":"function"},{"inputs":[],"name":"riskMultipliers","outputs":[{"internalType":"uint16","name":"low","type":"uint16"},{"internalType":"uint16","name":"medium","type":"uint16"},{"internalType":"uint16","name":"high","type":"uint16"},{"internalType":"uint16","name":"critical","type":"uint16"}],"stateMutability":"view","type":"function"},{"inputs":[{"internalType":"address","name":"_arbitrator","type":"address"}],"name":"setArbitrator","outputs":[],"stateMutability":"nonpayable","type":"function"},{"inputs":[{"internalType":"uint256","name":"_stakeBps","type":"uint256"}],"name":"setBaseStake","outputs":[],"stateMutability":"nonpayable","type":"function"},{"inputs":[{"internalType":"address","name":"_disputeDAO","type":"address"}],"name":"setDisputeDAO","outputs":[],"stateMutability":"nonpayable","type":"function"},{"inputs":[{"internalType":"uint256","name":"_volume","type":"uint256"}],"name":"setMaxDailyVolume","outputs":[],"stateMutability":"nonpayable","type":"function"},{"inputs":[{"internalType":"uint256","name":"_feeBps","type":"uint256"}],"name":"setPlatformFee","outputs":[],"stateMutability":"nonpayable","type":"function"},{"inputs":[{"internalType":"address","name":"","type":"address"}],"name":"stakes","outputs":[{"internalType":"uint256","name":"baseStake","type":"uint256"},{"internalType":"uint256","name":"lockedStake","type":"uint256"},{"internalType":"uint256","name":"tradingLimit","type":"uint256"},{"internalType":"uint256","name":"lastTradeTime","type":"uint256"},{"internalType":"uint256","name":"completedTrades","type":"uint256"},{"internalType":"uint256","name":"disputesLost","type":"uint256"},{"internalType":"bool","name":"isLP","type":"bool"}],"stateMutability":"view","type":"function"},{"inputs":[{"internalType":"bytes32","name":"orderId","type":"bytes32"},{"internalType":"bytes32","name":"proofHash","type":"bytes32"}],"name":"submitPaymentProof","outputs":[],"stateMutability":"nonpayable","type":"function"},{"inputs":[{"internalType":"address","name":"newOwner","type":"address"}],"name":"transferOwnership","outputs":[],"stateMutability":"nonpayable","type":"function"},{"inputs":[],"name":"unpause","outputs":[],"stateMutability":"nonpayable","type":"function"},{"inputs":[],"name":"usdc","outputs":[{"internalType":"contract IERC20","name":"","type":"address"}],"stateMutability":"view","type":"function"},{"inputs":[{"internalType":"uint256","name":"amount","type":"uint256"}],"name":"withdrawStake","outputs":[],"stateMutability":"nonpayable","type":"function"}],"evm":{"bytecode":{"linkReferences":{},"object":"60a034620001ca5762002332906001600160401b03601f38849003908101601f191683019082821184831017620001cf5780849160409687948552833981010312620001ca576200005e60206200005684620001e5565b9301620001e5565b600092600184553315620001b257600180546001600160a01b031980821633908117909355936001600160a01b03939092849283167f8be0079c531659141344cd1fd0a4f28419497f9722a3daafe3b4186f6b6457e08980a360326002556101f460035562015180600455603c60055564e8d4a51000600655166080521690600c541617600c55426008558251906080820190828210908211176200019e57606084939261012c928552606481526096602082015260c885820152015267012c00c80096006460018060401b0319600e541617600e55808052600b60205220601460ff19825416179055516121379081620001fb8239608051818181610626015281816107b5015281816108be01528181610cb6015281816113d5015281816114c1015281816115ac015281816117760152818161190f0152611a230152f35b634e487b7160e01b83526041600452602483fd5b8451631e4fbdf760e01b815260048101859052602490fd5b600080fd5b634e487b7160e01b600052604160045260246000fd5b51906001600160a01b0382168203620001ca5756fe6080604052600436101561001257600080fd5b60003560e01c806306ae585114611c2f57806307df2f1814611c115780630e0964c114611bf457806312e8e2c314611b9657806314f6b19014611b5557806316934fc414611ad557806318a459c9146117eb57806322dcd13e146117cd57806325d5971f1461172357806327f352cb146116df5780632d83549c146116165780633440f25d146115f95780633bb8705e146115db5780633e413bee146115965780633f4ba83a1461152457806347aed508146112e55780634a2d59e4146112c85780634af2f4211461123757806355e146201461121a5780635c3f1c75146111e25780635c3f2f4a146111c15780635c975abb1461119b5780636cc6cde114611172578063715018a61461111557806375e8eca8146110d25780638456cb59146110705780638da5cb5b1461104757806398c8877e1461102957806399a4899214610b8b578063b0eefabe14610b48578063be7b8a7714610932578063bf89fc61146106c8578063c04c22a4146106aa578063cb82cc8f146105f4578063ced51e06146105d7578063d539beae14610598578063e5bd9fa11461057a578063e6d0ef2814610488578063f023b811146102c4578063f1c2d0d91461029b578063f2fde38b1461020d5763f7085604146101ea57600080fd5b34610208576000366003190112610208576020600354604051908152f35b600080fd5b3461020857602036600319011261020857610226611c8f565b61022e611e36565b6001600160a01b0390811690811561028257600154826bffffffffffffffffffffffff60a01b821617600155167f8be0079c531659141344cd1fd0a4f28419497f9722a3daafe3b4186f6b6457e0600080a3005b604051631e4fbdf760e01b815260006004820152602490fd5b3461020857600036600319011261020857600d546040516001600160a01b039091168152602090f35b346102085760203660031901126102085760006101406040516102e681611cdf565b8281528260208201528260408201528260608201528260808201528260a08201528260c08201528260e08201528261010082015260606101208201520152600435600052600960205260406000206040519061034182611cdf565b80546001600160a01b0390811683526001820154166020830152600281015460408301526003810154606083015260048101546080830152600581015460ff1690600682101561047257600a9160a0840152600681015460c0840152600781015460e084015260088101546101008401526103be60098201611d34565b610120840152015461014082015260405180916020825260018060a01b03815116602083015260018060a01b0360208201511660408301526040810151606083015260608101516080830152608081015160a083015261042660a082015160c0840190611de9565b60c081015160e083015260e0810151610100830152610100810151610120830152610120810151610140610467610160928383870152610180860190611df6565b920151908301520390f35b634e487b7160e01b600052602160045260246000fd5b34610208576020366003190112610208576104a1611c8f565b600060c06040516104b181611cfc565b8281528260208201528260408201528260608201528260808201528260a0820152015260018060a01b0316600052600a60205260e060406000206040516104f781611cfc565b815491828252600181015460208301908152600282015460408401908152600383015490606085019182526004840154926080860193845260c060ff600660058801549760a08a01988952015416960195151586526040519687525160208701525160408601525160608501525160808401525160a083015251151560c0820152f35b34610208576000366003190112610208576020600854604051908152f35b34610208576060366003190112610208576105b1611c8f565b6044359060ff82168203610208576020916105cf9160243590611fe6565b604051908152f35b346102085760003660031901126102085760206040516127108152f35b3461020857602036600319011261020857600435610610611f53565b610618611f32565b80156106985761064a8130337f0000000000000000000000000000000000000000000000000000000000000000611e6f565b33600052600a6020526040600020610663828254611e62565b90556040519081527f0a7bb2e28cc4698aac06db79cf9163bfcc20719286cf59fa7d492ceda1b8edc260203392a26001600055005b60405163162908e360e11b8152600490fd5b34610208576000366003190112610208576020600454604051908152f35b3461020857602080600319360112610208576004356106e5611f53565b80600052600982526040600020600581019160ff8354166006811015610472576002036109205781546001600160a01b03939084163381900361090e576006840154610708810180911161081757421161082d575b50600360ff1982541617905560048201549280835416600052600a855260019361076c85604060002001918254611f76565b905580835416600052600a85526004604060002001805491858301809311610817577f3a9c1cd29cd3be251a72ce3c367c27dc1cb697ac4589965b76a83f9a25ca0710928792557f00000000000000000000000000000000000000000000000000000000000000006108008787019183835416976107f160028201998a549084611f83565b6003858b541691015491611f83565b54169354604051908152a380600055604051908152f35b634e487b7160e01b600052601160045260246000fd5b600484015460405161083e81611d18565b600c81526b4c6174652072656c6561736560a01b888201526101f491828102928184041490151715610817576127107fc32d81504c00ce92eaeed0852b187e372b250d24935ca5a510426adbd42cc257920483600052600a895260406000208054808311610906575b826108b191611f76565b90556108e28189600154167f0000000000000000000000000000000000000000000000000000000000000000611f83565b6108fd604051928392835260408b8401526040830190611df6565b0390a28561073a565b9150816108a7565b60405163ea8e4eb560e01b8152600490fd5b6040516307a92f1960e51b8152600490fd5b346102085760403660031901126102085760043560249081359167ffffffffffffffff908184116102085736602385011215610208578360040135918211610208573681838601011161020857610987611f53565b826000526020936009855260406000209060058201805460ff81166006811015610b3357600203610920578354336001600160a01b0391821614159081610b22575b5061090e5786938692600560099360ff191617905542600882015501936109fa826109f48754611ca5565b876120ad565b600094601f8311600114610a915782827f49e53fd224357020766ce272815e8a15c300aace14a011cfcded9335798fbd0e9697600092610a84575b50508360011b906000198560031b1c19161790555b6040519288845282898501520160408301376000604085830101526040813395601f80199101168101030190a36001600055604051908152f35b860101359050828b610a35565b601f1983169581600052896000209660005b8b828210610b0457505090847f49e53fd224357020766ce272815e8a15c300aace14a011cfcded9335798fbd0e97989210610ae8575b5050600183811b019055610a4a565b8501830135600019600386901b60f8161c191690558980610ad9565b8784018601358a556001909901988b98508a96509283019201610aa3565b9050600185015416331415896109c9565b85634e487b7160e01b60005260216004526000fd5b3461020857602036600319011261020857610b61611c8f565b610b69611e36565b600c80546001600160a01b0319166001600160a01b0392909216919091179055005b346102085760a0366003190112610208576044356001600160a01b03811681036102085760843560ff811680820361020857610bc5611f53565b610bcd611f32565b33600052600a602052610be860036040600020015442611f76565b6005541161101757600854620151808101809111610817574211610fd7575b610c15602435600754611e62565b60065410610fc557600435600052600960205260ff60056040600020015416600681101561047257610fb3576024351561069857426064351115610fa15760461115610f8f57610c689060243533611fe6565b9033600052600a602052604060002080549083610c8b6001830193845490611f76565b10610f7d57612710610ca1600254602435611fd3565b0491610cda610cb284602435611e62565b30337f0000000000000000000000000000000000000000000000000000000000000000611e6f565b610ce5858254611e62565b9055600342910155610cfb602435600754611e62565b60075560405190610d0b82611cdf565b33825260018060a01b038316602083015260243560408301526060820152826080820152600260a08201524260c082015260643560e0820152600061010082015260405180602081011067ffffffffffffffff602083011117610f675760208101604052600081526101208201526000610140820152600435600052600960205260406000209060018060a01b038151166bffffffffffffffffffffffff60a01b9081845416178355600183019060018060a01b03602084015116908254161790556040810151600283015560608101516003830155608081015160048301556005820160a082015160068110156104725760ff8019835416911617905560c0810151600683015560e0810151600783015561010081015160088301556009820161012082015180519067ffffffffffffffff8211610f6757610e5882610e528554611ca5565b856120ad565b602090601f8311600114610ef85791806101409492600a9694600092610eed575b50508160011b916000199060031b1c19161790555b01519101556040519160243583526020830152606435604083015260018060a01b03169033907ff961d737cbe74505725c1be3f1ef74db923c3190fc8f9cbbbda1821da86299e0606060043592a4600160005560206040516004358152f35b015190508980610e79565b90601f198316918460005260206000209260005b818110610f4f5750926001928592600a9896610140989610610f36575b505050811b019055610e8e565b015160001960f88460031b161c19169055898080610f29565b92936020600181928786015181550195019301610f0c565b634e487b7160e01b600052604160045260246000fd5b6040516378de4a6960e11b8152600490fd5b604051639a60fb5f60e01b8152600490fd5b604051633c4fac2d60e01b8152600490fd5b60405163ed77877960e01b8152600490fd5b604051631f8bb99560e21b8152600490fd5b7f10ee94e9840988debcde08483d660602ba7cc7450991da1f586e2ef21e03693360406007548151908152426020820152a1600060075542600855610c07565b60405163a74c1c5f60e01b8152600490fd5b34610208576000366003190112610208576020600754604051908152f35b34610208576000366003190112610208576001546040516001600160a01b039091168152602090f35b3461020857600036600319011261020857611089611e36565b611091611f32565b6001805460ff60a01b1916600160a01b1790556040513381527f62e78cea01bee320cd4e420270b5ea74000d11b0c9f74754ebdbfc544b05a25890602090a1005b34610208576020366003190112610208576110eb611c8f565b6110f3611e36565b600d80546001600160a01b0319166001600160a01b0392909216919091179055005b346102085760003660031901126102085761112e611e36565b600180546001600160a01b031981169091556000906001600160a01b03167f8be0079c531659141344cd1fd0a4f28419497f9722a3daafe3b4186f6b6457e08280a3005b3461020857600036600319011261020857600c546040516001600160a01b039091168152602090f35b3461020857600036600319011261020857602060ff60015460a01c166040519015158152f35b34610208576020366003190112610208576111da611e36565b600435600655005b3461020857602036600319011261020857600435600181101561020857600052600b602052602060ff60406000205416604051908152f35b346102085760003660031901126102085760206040516107d08152f35b3461020857604036600319011261020857600435602435611256611f53565b816000526009602052604060002060ff6005820154166006811015610472576002036109205760018101546001600160a01b0316330361090e57817f0403182c8a62ec46b58fb2aa1ab220c85785d0e5027db9a9156d12a91186180892600a6020930155604051908152a26001600055005b346102085760003660031901126102085760206040516113888152f35b346102085760208060031936011261020857600435611302611f53565b80600052600982526040600020906005820160ff81541660068110156104725760020361092057600783015442106115125760018301546001600160a01b039081166000818152600a87526040902054928692918415908115611412575b50507ffc31a7ddbe933aa6e67f3c98c183fbc87addd2b602fcfb10238d2f85cf0266179350600460ff19825416179055600485015481865416600052600a83526113b36001604060002001918254611f76565b905580855416946113f960028201966113d28854600385015490611e62565b907f0000000000000000000000000000000000000000000000000000000000000000611f83565b54169354604051908152a3600160005560405160018152f35b60405194509061142185611d18565b600d85526c13dc99195c881d1a5b595bdd5d609a1b898601526107d0808702968704141715610817577fc32d81504c00ce92eaeed0852b187e372b250d24935ca5a510426adbd42cc25788946127107ffc31a7ddbe933aa6e67f3c98c183fbc87addd2b602fcfb10238d2f85cf026617970483600052600a87526040600020805480831161150a575b826114b491611f76565b90556114e58187600154167f0000000000000000000000000000000000000000000000000000000000000000611f83565b61150060405192839283526040898401526040830190611df6565b0390a28780611360565b9150816114aa565b604051635b3d0edd60e01b8152600490fd5b346102085760003660031901126102085761153d611e36565b60015460ff8160a01c16156115845760ff60a01b19166001556040513381527f5db9ee0a495bf2e6ff9c91a7834c1ba4fdd244a5e8aa4e537bd38aeae4b073aa90602090a1005b604051638dfc202b60e01b8152600490fd5b34610208576000366003190112610208576040517f00000000000000000000000000000000000000000000000000000000000000006001600160a01b03168152602090f35b34610208576000366003190112610208576020600554604051908152f35b346102085760003660031901126102085760206040516101f48152f35b34610208576020366003190112610208576004356000526009602052604060002060018060a01b038082541690600183015416916116d46002820154916003810154600482015460ff6005840154166116b2600685015491600786015493600887015495600a61168860098a01611d34565b980154996040519c8d9c8d5260208d015260408c015260608b015260808a015260a0890190611de9565b60c087015260e086015261010085015261016080610120860152840190611df6565b906101408301520390f35b34610208576000366003190112610208576080600e546040519061ffff908181168352818160101c166020840152818160201c16604084015260301c166060820152f35b346102085760203660031901126102085760043561173f611f53565b33600052600a6020526040600020805461175d600183015482611f76565b8311610f7d578261176d91611f76565b905561179a81337f0000000000000000000000000000000000000000000000000000000000000000611f83565b6040519081527f8108595eb6bad3acefa9da467d90cc2217686d5c5ac85460f8b7849c840645fc60203392a26001600055005b34610208576000366003190112610208576020600254604051908152f35b346102085760603660031901126102085760243560043581151582036102085760443591821515830361020857611820611f53565b600c546001600160a01b0390811633141580611ac7575b61090e578260005260209060098252604060002090600582019060ff825416600681101561047257600503610920578415611aba5780835416965b8515611ab05781600185015416905b80611a98575b611980575b5090817fe44b3676d6df957def7f6b146c2d11487456be34f4233923b46216cfb196467d958185946002965416991698808a14611958575b50156118fe576118ee91600460ff198254161790558254166113d284840154600385015490611e62565b0154604051908152a36001600055005b61195391600360ff198254161790557f00000000000000000000000000000000000000000000000000000000000000009061194481600186015416868601549084611f83565b60015416600384015491611f83565b6118ee565b600485015490600052600a87526119786001604060002001918254611f76565b9055896118c4565b90809392911680600052600a8552604060002054604051906119a182611d18565b600c82526b111a5cdc1d5d19481b1bdcdd60a21b87830152611388908181029181830414901517156108175782916127107fc32d81504c00ce92eaeed0852b187e372b250d24935ca5a510426adbd42cc257920483600052600a895260406000208054808311611a90575b82611a1691611f76565b9055611a478189600154167f0000000000000000000000000000000000000000000000000000000000000000611f83565b611a62604051928392835260408b8401526040830190611df6565b0390a2600052600a84526005604060002001928354956001870180971161081757959093559091600261188c565b915081611a0c565b50818116600052600a85526040600020541515611887565b8184541690611881565b8060018401541696611872565b5080600d5416331415611837565b34610208576020366003190112610208576001600160a01b03611af6611c8f565b16600052600a60205260e060406000208054906001810154906002810154600382015460048301549160ff600660058601549501541694604051968752602087015260408601526060850152608084015260a0830152151560c0820152f35b34610208576020366003190112610208576001600160a01b03611b76611c8f565b16600052600a60205260206105cf60406000206001815491015490611f76565b3461020857602036600319011261020857600435611bb2611e36565b6101f48111611bc057600255005b60405162461bcd60e51b815260206004820152600c60248201526b08ccaca40e8dede40d0d2ced60a31b6044820152606490fd5b34610208576000366003190112610208576020604051614e208152f35b34610208576000366003190112610208576020600654604051908152f35b3461020857602036600319011261020857600435611c4b611e36565b6107d08111611c5957600355005b60405162461bcd60e51b815260206004820152600e60248201526d0a6e8c2d6ca40e8dede40d0d2ced60931b6044820152606490fd5b600435906001600160a01b038216820361020857565b90600182811c92168015611cd5575b6020831014611cbf57565b634e487b7160e01b600052602260045260246000fd5b91607f1691611cb4565b610160810190811067ffffffffffffffff821117610f6757604052565b60e0810190811067ffffffffffffffff821117610f6757604052565b6040810190811067ffffffffffffffff821117610f6757604052565b9060405191600090805490611d4882611ca5565b908186526001928381169081600014611dc85750600114611d8b575b505050829003601f01601f1916820167ffffffffffffffff811183821017610f6757604052565b9092506000526020918260002091836000935b838510611db45750505050830101388080611d64565b805488860183015293019284908201611d9e565b92935050506020925060ff191682850152151560051b830101388080611d64565b9060068210156104725752565b919082519283825260005b848110611e22575050826000602080949584010152601f8019910116010190565b602081830181015184830182015201611e01565b6001546001600160a01b03163303611e4a57565b60405163118cdaa760e01b8152336004820152602490fd5b9190820180921161081757565b6040516323b872dd60e01b60208201526001600160a01b03928316602482015292909116604483015260648083019390935291815260a081019181831067ffffffffffffffff841117610f6757611ec892604052611eca565b565b906000602091828151910182855af115611f26576000513d611f1d57506001600160a01b0381163b155b611efb5750565b604051635274afe760e01b81526001600160a01b039091166004820152602490fd5b60011415611ef4565b6040513d6000823e3d90fd5b60ff60015460a01c16611f4157565b60405163d93c066560e01b8152600490fd5b600260005414611f64576002600055565b604051633ee5aeb560e01b8152600490fd5b9190820391821161081757565b60405163a9059cbb60e01b60208201526001600160a01b039092166024830152604480830193909352918152608081019167ffffffffffffffff831182841017610f6757611ec892604052611eca565b8181029291811591840414171561081757565b916120009260ff61204f9361271095869160035490611fd3565b049216601481101561206e575061ffff600e54165b60649160018060a01b0316600052600a60205260046040600020015460328111600014612053575061204a9150605092611fd3565b611fd3565b0490565b601410612065575b61204a9192611fd3565b605a915061205b565b6028811015612087575061ffff600e5460101c16612015565b603c111561209e5761ffff600e5460201c16612015565b61ffff600e5460301c16612015565b90601f81116120bb57505050565b600091825260208220906020601f850160051c830194106120f7575b601f0160051c01915b8281106120ec57505050565b8181556001016120e0565b90925082906120d756fea2646970667358221220c9547148b37975aa18c3aa4cfb2295352e9ca61015e56651462c8e9f8543e03064736f6c63430008140033","opcodes":"PUSH1 0xA0 CALLVALUE PUSH3 0x1CA JUMPI PUSH3 0x2332 SWAP1 PUSH1 0x1 PUSH1 0x1 PUSH1 0x40 SHL SUB PUSH1 0x1F CODESIZE DUP5 SWAP1 SUB SWAP1 DUP2 ADD PUSH1 0x1F NOT AND DUP4 ADD SWAP1 DUP3 DUP3 GT DUP5 DUP4 LT OR PUSH3 0x1CF JUMPI DUP1 DUP5 SWAP2 PUSH1 0x40 SWAP7 DUP8 SWAP5 DUP6 MSTORE DUP4 CODECOPY DUP2 ADD SUB SLT PUSH3 0x1CA JUMPI PUSH3 0x5E PUSH1 0x20 PUSH3 0x56 DUP5 PUSH3 0x1E5 JUMP JUMPDEST SWAP4 ADD PUSH3 0x1E5 JUMP JUMPDEST PUSH1 0x0 SWAP3 PUSH1 0x1 DUP5 SSTORE CALLER ISZERO PUSH3 0x1B2 JUMPI PUSH1 0x1 DUP1 SLOAD PUSH1 0x1 PUSH1 0x1 PUSH1 0xA0 SHL SUB NOT DUP1 DUP3 AND CALLER SWAP1 DUP2 OR SWAP1 SWAP4 SSTORE SWAP4 PUSH1 0x1 PUSH1 0x1 PUSH1 0xA0 SHL SUB SWAP4 SWAP1 SWAP3 DUP5 SWAP3 DUP4 AND PUSH32 0x8BE0079C531659141344CD1FD0A4F28419497F9722A3DAAFE3B4186F6B6457E0 DUP10 DUP1 LOG3 PUSH1 0x32 PUSH1 0x2 SSTORE PUSH2 0x1F4 PUSH1 0x3 SSTORE PUSH3 0x15180 PUSH1 0x4 SSTORE PUSH1 0x3C PUSH1 0x5 SSTORE PUSH5 0xE8D4A51000 PUSH1 0x6 SSTORE AND PUSH1 0x80 MSTORE AND SWAP1 PUSH1 0xC SLOAD AND OR PUSH1 0xC SSTORE TIMESTAMP PUSH1 0x8 SSTORE DUP3 MLOAD SWAP1 PUSH1 0x80 DUP3 ADD SWAP1 DUP3 DUP3 LT SWAP1 DUP3 GT OR PUSH3 0x19E JUMPI PUSH1 0x60 DUP5 SWAP4 SWAP3 PUSH2 0x12C SWAP3 DUP6 MSTORE PUSH1 0x64 DUP2 MSTORE PUSH1 0x96 PUSH1 0x20 DUP3 ADD MSTORE PUSH1 0xC8 DUP6 DUP3 ADD MSTORE ADD MSTORE PUSH8 0x12C00C800960064 PUSH1 0x1 DUP1 PUSH1 0x40 SHL SUB NOT PUSH1 0xE SLOAD AND OR PUSH1 0xE SSTORE DUP1 DUP1 MSTORE PUSH1 0xB PUSH1 0x20 MSTORE KECCAK256 PUSH1 0x14 PUSH1 0xFF NOT DUP3 SLOAD AND OR SWAP1 SSTORE MLOAD PUSH2 0x2137 SWAP1 DUP2 PUSH3 0x1FB DUP3 CODECOPY PUSH1 0x80 MLOAD DUP2 DUP2 DUP2 PUSH2 0x626 ADD MSTORE DUP2 DUP2 PUSH2 0x7B5 ADD MSTORE DUP2 DUP2 PUSH2 0x8BE ADD MSTORE DUP2 DUP2 PUSH2 0xCB6 ADD MSTORE DUP2 DUP2 PUSH2 0x13D5 ADD MSTORE DUP2 DUP2 PUSH2 0x14C1 ADD MSTORE DUP2 DUP2 PUSH2 0x15AC ADD MSTORE DUP2 DUP2 PUSH2 0x1776 ADD MSTORE DUP2 DUP2 PUSH2 0x190F ADD MSTORE PUSH2 0x1A23 ADD MSTORE RETURN JUMPDEST PUSH4 0x4E487B71 PUSH1 0xE0 SHL DUP4 MSTORE PUSH1 0x41 PUSH1 0x4 MSTORE PUSH1 0x24 DUP4 REVERT JUMPDEST DUP5 MLOAD PUSH4 0x1E4FBDF7 PUSH1 0xE0 SHL DUP2 MSTORE PUSH1 0x4 DUP2 ADD DUP6 SWAP1 MSTORE PUSH1 0x24 SWAP1 REVERT JUMPDEST PUSH1 0x0 DUP1 REVERT JUMPDEST PUSH4 0x4E487B71 PUSH1 0xE0 SHL PUSH1 0x0 MSTORE PUSH1 0x41 PUSH1 0x4 MSTORE PUSH1 0x24 PUSH1 0x0 REVERT JUMPDEST MLOAD SWAP1 PUSH1 0x1 PUSH1 0x1 PUSH1 0xA0 SHL SUB DUP3 AND DUP3 SUB PUSH3 0x1CA JUMPI JUMP INVALID PUSH1 0x80 PUSH1 0x40 MSTORE PUSH1 0x4 CALLDATASIZE LT ISZERO PUSH2 0x12 JUMPI PUSH1 0x0 DUP1 REVERT JUMPDEST PUSH1 0x0 CALLDATALOAD PUSH1 0xE0 SHR DUP1 PUSH4 0x6AE5851 EQ PUSH2 0x1C2F JUMPI DUP1 PUSH4 0x7DF2F18 EQ PUSH2 0x1C11 JUMPI DUP1 PUSH4 0xE0964C1 EQ PUSH2 0x1BF4 JUMPI DUP1 PUSH4 0x12E8E2C3 EQ PUSH2 0x1B96 JUMPI DUP1 PUSH4 0x14F6B190 EQ PUSH2 0x1B55 JUMPI DUP1 PUSH4 0x16934FC4 EQ PUSH2 0x1AD5 JUMPI DUP1 PUSH4 0x18A459C9 EQ PUSH2 0x17EB JUMPI DUP1 PUSH4 0x22DCD13E EQ PUSH2 0x17CD JUMPI DUP1 PUSH4 0x25D5971F EQ PUSH2 0x1723 JUMPI DUP1 PUSH4 0x27F352CB EQ PUSH2 0x16DF JUMPI DUP1 PUSH4 0x2D83549C EQ PUSH2 0x1616 JUMPI DUP1 PUSH4 0x3440F25D EQ PUSH2 0x15F9 JUMPI DUP1 PUSH4 0x3BB8705E EQ PUSH2 0x15DB JUMPI DUP1 PUSH4 0x3E413BEE EQ PUSH2 0x1596 JUMPI DUP1 PUSH4 0x3F4BA83A EQ PUSH2 0x1524 JUMPI DUP1 PUSH4 0x47AED508 EQ PUSH2 0x12E5 JUMPI DUP1 PUSH4 0x4A2D59E4 EQ PUSH2 0x12C8 JUMPI DUP1 PUSH4 0x4AF2F421 EQ PUSH2 0x1237 JUMPI DUP1 PUSH4 0x55E14620 EQ PUSH2 0x121A JUMPI DUP1 PUSH4 0x5C3F1C75 EQ PUSH2 0x11E2 JUMPI DUP1 PUSH4 0x5C3F2F4A EQ PUSH2 0x11C1 JUMPI DUP1 PUSH4 0x5C975ABB EQ PUSH2 0x119B JUMPI DUP1 PUSH4 0x6CC6CDE1 EQ PUSH2 0x1172 JUMPI DUP1 PUSH4 0x715018A6 EQ PUSH2 0x1115 JUMPI DUP1 PUSH4 0x75E8ECA8 EQ PUSH2 0x10D2 JUMPI DUP1 PUSH4 0x8456CB59 EQ PUSH2 0x1070 JUMPI DUP1 PUSH4 0x8DA5CB5B EQ PUSH2 0x1047 JUMPI DUP1 PUSH4 0x98C8877E EQ PUSH2 0x1029 JUMPI DUP1 PUSH4 0x99A48992 EQ PUSH2 0xB8B JUMPI DUP1 PUSH4 0xB0EEFABE EQ PUSH2 0xB48 JUMPI DUP1 PUSH4 0xBE7B8A77 EQ PUSH2 0x932 JUMPI DUP1 PUSH4 0xBF89FC61 EQ PUSH2 0x6C8 JUMPI DUP1 PUSH4 0xC04C22A4 EQ PUSH2 0x6AA JUMPI DUP1 PUSH4 0xCB82CC8F EQ PUSH2 0x5F4 JUMPI DUP1 PUSH4 0xCED51E06 EQ PUSH2 0x5D7 JUMPI DUP1 PUSH4 0xD539BEAE EQ PUSH2 0x598 JUMPI DUP1 PUSH4 0xE5BD9FA1 EQ PUSH2 0x57A JUMPI DUP1 PUSH4 0xE6D0EF28 EQ PUSH2 0x488 JUMPI DUP1 PUSH4 0xF023B811 EQ PUSH2 0x2C4 JUMPI DUP1 PUSH4 0xF1C2D0D9 EQ PUSH2 0x29B JUMPI DUP1 PUSH4 0xF2FDE38B EQ PUSH2 0x20D JUMPI PUSH4 0xF7085604 EQ PUSH2 0x1EA JUMPI PUSH1 0x0 DUP1 REVERT JUMPDEST CALLVALUE PUSH2 0x208 JUMPI PUSH1 0x0 CALLDATASIZE PUSH1 0x3 NOT ADD SLT PUSH2 0x208 JUMPI PUSH1 0x20 PUSH1 0x3 SLOAD PUSH1 0x40 MLOAD SWAP1 DUP2 MSTORE RETURN JUMPDEST PUSH1 0x0 DUP1 REVERT JUMPDEST CALLVALUE PUSH2 0x208 JUMPI PUSH1 0x20 CALLDATASIZE PUSH1 0x3 NOT ADD SLT PUSH2 0x208 JUMPI PUSH2 0x226 PUSH2 0x1C8F JUMP JUMPDEST PUSH2 0x22E PUSH2 0x1E36 JUMP JUMPDEST PUSH1 0x1 PUSH1 0x1 PUSH1 0xA0 SHL SUB SWAP1 DUP2 AND SWAP1 DUP2 ISZERO PUSH2 0x282 JUMPI PUSH1 0x1 SLOAD DUP3 PUSH12 0xFFFFFFFFFFFFFFFFFFFFFFFF PUSH1 0xA0 SHL DUP3 AND OR PUSH1 0x1 SSTORE AND PUSH32 0x8BE0079C531659141344CD1FD0A4F28419497F9722A3DAAFE3B4186F6B6457E0 PUSH1 0x0 DUP1 LOG3 STOP JUMPDEST PUSH1 0x40 MLOAD PUSH4 0x1E4FBDF7 PUSH1 0xE0 SHL DUP2 MSTORE PUSH1 0x0 PUSH1 0x4 DUP3 ADD MSTORE PUSH1 0x24 SWAP1 REVERT JUMPDEST CALLVALUE PUSH2 0x208 JUMPI PUSH1 0x0 CALLDATASIZE PUSH1 0x3 NOT ADD SLT PUSH2 0x208 JUMPI PUSH1 0xD SLOAD PUSH1 0x40 MLOAD PUSH1 0x1 PUSH1 0x1 PUSH1 0xA0 SHL SUB SWAP1 SWAP2 AND DUP2 MSTORE PUSH1 0x20 SWAP1 RETURN JUMPDEST CALLVALUE PUSH2 0x208 JUMPI PUSH1 0x20 CALLDATASIZE PUSH1 0x3 NOT ADD SLT PUSH2 0x208 JUMPI PUSH1 0x0 PUSH2 0x140 PUSH1 0x40 MLOAD PUSH2 0x2E6 DUP2 PUSH2 0x1CDF JUMP JUMPDEST DUP3 DUP2 MSTORE DUP3 PUSH1 0x20 DUP3 ADD MSTORE DUP3 PUSH1 0x40 DUP3 ADD MSTORE DUP3 PUSH1 0x60 DUP3 ADD MSTORE DUP3 PUSH1 0x80 DUP3 ADD MSTORE DUP3 PUSH1 0xA0 DUP3 ADD MSTORE DUP3 PUSH1 0xC0 DUP3 ADD MSTORE DUP3 PUSH1 0xE0 DUP3 ADD MSTORE DUP3 PUSH2 0x100 DUP3 ADD MSTORE PUSH1 0x60 PUSH2 0x120 DUP3 ADD MSTORE ADD MSTORE PUSH1 0x4 CALLDATALOAD PUSH1 0x0 MSTORE PUSH1 0x9 PUSH1 0x20 MSTORE PUSH1 0x40 PUSH1 0x0 KECCAK256 PUSH1 0x40 MLOAD SWAP1 PUSH2 0x341 DUP3 PUSH2 0x1CDF JUMP JUMPDEST DUP1 SLOAD PUSH1 0x1 PUSH1 0x1 PUSH1 0xA0 SHL SUB SWAP1 DUP2 AND DUP4 MSTORE PUSH1 0x1 DUP3 ADD SLOAD AND PUSH1 0x20 DUP4 ADD MSTORE PUSH1 0x2 DUP2 ADD SLOAD PUSH1 0x40 DUP4 ADD MSTORE PUSH1 0x3 DUP2 ADD SLOAD PUSH1 0x60 DUP4 ADD MSTORE PUSH1 0x4 DUP2 ADD SLOAD PUSH1 0x80 DUP4 ADD MSTORE PUSH1 0x5 DUP2 ADD SLOAD PUSH1 0xFF AND SWAP1 PUSH1 0x6 DUP3 LT ISZERO PUSH2 0x472 JUMPI PUSH1 0xA SWAP2 PUSH1 0xA0 DUP5 ADD MSTORE PUSH1 0x6 DUP2 ADD SLOAD PUSH1 0xC0 DUP5 ADD MSTORE PUSH1 0x7 DUP2 ADD SLOAD PUSH1 0xE0 DUP5 ADD MSTORE PUSH1 0x8 DUP2 ADD SLOAD PUSH2 0x100 DUP5 ADD MSTORE PUSH2 0x3BE PUSH1 0x9 DUP3 ADD PUSH2 0x1D34 JUMP JUMPDEST PUSH2 0x120 DUP5 ADD MSTORE ADD SLOAD PUSH2 0x140 DUP3 ADD MSTORE PUSH1 0x40 MLOAD DUP1 SWAP2 PUSH1 0x20 DUP3 MSTORE PUSH1 0x1 DUP1 PUSH1 0xA0 SHL SUB DUP2 MLOAD AND PUSH1 0x20 DUP4 ADD MSTORE PUSH1 0x1 DUP1 PUSH1 0xA0 SHL SUB PUSH1 0x20 DUP3 ADD MLOAD AND PUSH1 0x40 DUP4 ADD MSTORE PUSH1 0x40 DUP2 ADD MLOAD PUSH1 0x60 DUP4 ADD MSTORE PUSH1 0x60 DUP2 ADD MLOAD PUSH1 0x80 DUP4 ADD MSTORE PUSH1 0x80 DUP2 ADD MLOAD PUSH1 0xA0 DUP4 ADD MSTORE PUSH2 0x426 PUSH1 0xA0 DUP3 ADD MLOAD PUSH1 0xC0 DUP5 ADD SWAP1 PUSH2 0x1DE9 JUMP JUMPDEST PUSH1 0xC0 DUP2 ADD MLOAD PUSH1 0xE0 DUP4 ADD MSTORE PUSH1 0xE0 DUP2 ADD MLOAD PUSH2 0x100 DUP4 ADD MSTORE PUSH2 0x100 DUP2 ADD MLOAD PUSH2 0x120 DUP4 ADD MSTORE PUSH2 0x120 DUP2 ADD MLOAD PUSH2 0x140 PUSH2 0x467 PUSH2 0x160 SWAP3 DUP4 DUP4 DUP8 ADD MSTORE PUSH2 0x180 DUP7 ADD SWAP1 PUSH2 0x1DF6 JUMP JUMPDEST SWAP3 ADD MLOAD SWAP1 DUP4 ADD MSTORE SUB SWAP1 RETURN JUMPDEST PUSH4 0x4E487B71 PUSH1 0xE0 SHL PUSH1 0x0 MSTORE PUSH1 0x21 PUSH1 0x4 MSTORE PUSH1 0x24 PUSH1 0x0 REVERT JUMPDEST CALLVALUE PUSH2 0x208 JUMPI PUSH1 0x20 CALLDATASIZE PUSH1 0x3 NOT ADD SLT PUSH2 0x208 JUMPI PUSH2 0x4A1 PUSH2 0x1C8F JUMP JUMPDEST PUSH1 0x0 PUSH1 0xC0 PUSH1 0x40 MLOAD PUSH2 0x4B1 DUP2 PUSH2 0x1CFC JUMP JUMPDEST DUP3 DUP2 MSTORE DUP3 PUSH1 0x20 DUP3 ADD MSTORE DUP3 PUSH1 0x40 DUP3 ADD MSTORE DUP3 PUSH1 0x60 DUP3 ADD MSTORE DUP3 PUSH1 0x80 DUP3 ADD MSTORE DUP3 PUSH1 0xA0 DUP3 ADD MSTORE ADD MSTORE PUSH1 0x1 DUP1 PUSH1 0xA0 SHL SUB AND PUSH1 0x0 MSTORE PUSH1 0xA PUSH1 0x20 MSTORE PUSH1 0xE0 PUSH1 0x40 PUSH1 0x0 KECCAK256 PUSH1 0x40 MLOAD PUSH2 0x4F7 DUP2 PUSH2 0x1CFC JUMP JUMPDEST DUP2 SLOAD SWAP2 DUP3 DUP3 MSTORE PUSH1 0x1 DUP2 ADD SLOAD PUSH1 0x20 DUP4 ADD SWAP1 DUP2 MSTORE PUSH1 0x2 DUP3 ADD SLOAD PUSH1 0x40 DUP5 ADD SWAP1 DUP2 MSTORE PUSH1 0x3 DUP4 ADD SLOAD SWAP1 PUSH1 0x60 DUP6 ADD SWAP2 DUP3 MSTORE PUSH1 0x4 DUP5 ADD SLOAD SWAP3 PUSH1 0x80 DUP7 ADD SWAP4 DUP5 MSTORE PUSH1 0xC0 PUSH1 0xFF PUSH1 0x6 PUSH1 0x5 DUP9 ADD SLOAD SWAP8 PUSH1 0xA0 DUP11 ADD SWAP9 DUP10 MSTORE ADD SLOAD AND SWAP7 ADD SWAP6 ISZERO ISZERO DUP7 MSTORE PUSH1 0x40 MLOAD SWAP7 DUP8 MSTORE MLOAD PUSH1 0x20 DUP8 ADD MSTORE MLOAD PUSH1 0x40 DUP7 ADD MSTORE MLOAD PUSH1 0x60 DUP6 ADD MSTORE MLOAD PUSH1 0x80 DUP5 ADD MSTORE MLOAD PUSH1 0xA0 DUP4 ADD MSTORE MLOAD ISZERO ISZERO PUSH1 0xC0 DUP3 ADD MSTORE RETURN JUMPDEST CALLVALUE PUSH2 0x208 JUMPI PUSH1 0x0 CALLDATASIZE PUSH1 0x3 NOT ADD SLT PUSH2 0x208 JUMPI PUSH1 0x20 PUSH1 0x8 SLOAD PUSH1 0x40 MLOAD SWAP1 DUP2 MSTORE RETURN JUMPDEST CALLVALUE PUSH2 0x208 JUMPI PUSH1 0x60 CALLDATASIZE PUSH1 0x3 NOT ADD SLT PUSH2 0x208 JUMPI PUSH2 0x5B1 PUSH2 0x1C8F JUMP JUMPDEST PUSH1 0x44 CALLDATALOAD SWAP1 PUSH1 0xFF DUP3 AND DUP3 SUB PUSH2 0x208 JUMPI PUSH1 0x20 SWAP2 PUSH2 0x5CF SWAP2 PUSH1 0x24 CALLDATALOAD SWAP1 PUSH2 0x1FE6 JUMP JUMPDEST PUSH1 0x40 MLOAD SWAP1 DUP2 MSTORE RETURN JUMPDEST CALLVALUE PUSH2 0x208 JUMPI PUSH1 0x0 CALLDATASIZE PUSH1 0x3 NOT ADD SLT PUSH2 0x208 JUMPI PUSH1 0x20 PUSH1 0x40 MLOAD PUSH2 0x2710 DUP2 MSTORE RETURN JUMPDEST CALLVALUE PUSH2 0x208 JUMPI PUSH1 0x20 CALLDATASIZE PUSH1 0x3 NOT ADD SLT PUSH2 0x208 JUMPI PUSH1 0x4 CALLDATALOAD PUSH2 0x610 PUSH2 0x1F53 JUMP JUMPDEST PUSH2 0x618 PUSH2 0x1F32 JUMP JUMPDEST DUP1 ISZERO PUSH2 0x698 JUMPI PUSH2 0x64A DUP2 ADDRESS CALLER PUSH32 0x0 PUSH2 0x1E6F JUMP JUMPDEST CALLER PUSH1 0x0 MSTORE PUSH1 0xA PUSH1 0x20 MSTORE PUSH1 0x40 PUSH1 0x0 KECCAK256 PUSH2 0x663 DUP3 DUP3 SLOAD PUSH2 0x1E62 JUMP JUMPDEST SWAP1 SSTORE PUSH1 0x40 MLOAD SWAP1 DUP2 MSTORE PUSH32 0xA7BB2E28CC4698AAC06DB79CF9163BFCC20719286CF59FA7D492CEDA1B8EDC2 PUSH1 0x20 CALLER SWAP3 LOG2 PUSH1 0x1 PUSH1 0x0 SSTORE STOP JUMPDEST PUSH1 0x40 MLOAD PUSH4 0x162908E3 PUSH1 0xE1 SHL DUP2 MSTORE PUSH1 0x4 SWAP1 REVERT JUMPDEST CALLVALUE PUSH2 0x208 JUMPI PUSH1 0x0 CALLDATASIZE PUSH1 0x3 NOT ADD SLT PUSH2 0x208 JUMPI PUSH1 0x20 PUSH1 0x4 SLOAD PUSH1 0x40 MLOAD SWAP1 DUP2 MSTORE RETURN JUMPDEST CALLVALUE PUSH2 0x208 JUMPI PUSH1 0x20 DUP1 PUSH1 0x3 NOT CALLDATASIZE ADD SLT PUSH2 0x208 JUMPI PUSH1 0x4 CALLDATALOAD PUSH2 0x6E5 PUSH2 0x1F53 JUMP JUMPDEST DUP1 PUSH1 0x0 MSTORE PUSH1 0x9 DUP3 MSTORE PUSH1 0x40 PUSH1 0x0 KECCAK256 PUSH1 0x5 DUP2 ADD SWAP2 PUSH1 0xFF DUP4 SLOAD AND PUSH1 0x6 DUP2 LT ISZERO PUSH2 0x472 JUMPI PUSH1 0x2 SUB PUSH2 0x920 JUMPI DUP2 SLOAD PUSH1 0x1 PUSH1 0x1 PUSH1 0xA0 SHL SUB SWAP4 SWAP1 DUP5 AND CALLER DUP2 SWAP1 SUB PUSH2 0x90E JUMPI PUSH1 0x6 DUP5 ADD SLOAD PUSH2 0x708 DUP2 ADD DUP1 SWAP2 GT PUSH2 0x817 JUMPI TIMESTAMP GT PUSH2 0x82D JUMPI JUMPDEST POP PUSH1 0x3 PUSH1 0xFF NOT DUP3 SLOAD AND OR SWAP1 SSTORE PUSH1 0x4 DUP3 ADD SLOAD SWAP3 DUP1 DUP4 SLOAD AND PUSH1 0x0 MSTORE PUSH1 0xA DUP6 MSTORE PUSH1 0x1 SWAP4 PUSH2 0x76C DUP6 PUSH1 0x40 PUSH1 0x0 KECCAK256 ADD SWAP2 DUP3 SLOAD PUSH2 0x1F76 JUMP JUMPDEST SWAP1 SSTORE DUP1 DUP4 SLOAD AND PUSH1 0x0 MSTORE PUSH1 0xA DUP6 MSTORE PUSH1 0x4 PUSH1 0x40 PUSH1 0x0 KECCAK256 ADD DUP1 SLOAD SWAP2 DUP6 DUP4 ADD DUP1 SWAP4 GT PUSH2 0x817 JUMPI PUSH32 0x3A9C1CD29CD3BE251A72CE3C367C27DC1CB697AC4589965B76A83F9A25CA0710 SWAP3 DUP8 SWAP3 SSTORE PUSH32 0x0 PUSH2 0x800 DUP8 DUP8 ADD SWAP2 DUP4 DUP4 SLOAD AND SWAP8 PUSH2 0x7F1 PUSH1 0x2 DUP3 ADD SWAP10 DUP11 SLOAD SWAP1 DUP5 PUSH2 0x1F83 JUMP JUMPDEST PUSH1 0x3 DUP6 DUP12 SLOAD AND SWAP2 ADD SLOAD SWAP2 PUSH2 0x1F83 JUMP JUMPDEST SLOAD AND SWAP4 SLOAD PUSH1 0x40 MLOAD SWAP1 DUP2 MSTORE LOG3 DUP1 PUSH1 0x0 SSTORE PUSH1 0x40 MLOAD SWAP1 DUP2 MSTORE RETURN JUMPDEST PUSH4 0x4E487B71 PUSH1 0xE0 SHL PUSH1 0x0 MSTORE PUSH1 0x11 PUSH1 0x4 MSTORE PUSH1 0x24 PUSH1 0x0 REVERT JUMPDEST PUSH1 0x4 DUP5 ADD SLOAD PUSH1 0x40 MLOAD PUSH2 0x83E DUP2 PUSH2 0x1D18 JUMP JUMPDEST PUSH1 0xC DUP2 MSTORE PUSH12 0x4C6174652072656C65617365 PUSH1 0xA0 SHL DUP9 DUP3 ADD MSTORE PUSH2 0x1F4 SWAP2 DUP3 DUP2 MUL SWAP3 DUP2 DUP5 DIV EQ SWAP1 ISZERO OR ISZERO PUSH2 0x817 JUMPI PUSH2 0x2710 PUSH32 0xC32D81504C00CE92EAEED0852B187E372B250D24935CA5A510426ADBD42CC257 SWAP3 DIV DUP4 PUSH1 0x0 MSTORE PUSH1 0xA DUP10 MSTORE PUSH1 0x40 PUSH1 0x0 KECCAK256 DUP1 SLOAD DUP1 DUP4 GT PUSH2 0x906 JUMPI JUMPDEST DUP3 PUSH2 0x8B1 SWAP2 PUSH2 0x1F76 JUMP JUMPDEST SWAP1 SSTORE PUSH2 0x8E2 DUP2 DUP10 PUSH1 0x1 SLOAD AND PUSH32 0x0 PUSH2 0x1F83 JUMP JUMPDEST PUSH2 0x8FD PUSH1 0x40 MLOAD SWAP3 DUP4 SWAP3 DUP4 MSTORE PUSH1 0x40 DUP12 DUP5 ADD MSTORE PUSH1 0x40 DUP4 ADD SWAP1 PUSH2 0x1DF6 JUMP JUMPDEST SUB SWAP1 LOG2 DUP6 PUSH2 0x73A JUMP JUMPDEST SWAP2 POP DUP2 PUSH2 0x8A7 JUMP JUMPDEST PUSH1 0x40 MLOAD PUSH4 0xEA8E4EB5 PUSH1 0xE0 SHL DUP2 MSTORE PUSH1 0x4 SWAP1 REVERT JUMPDEST PUSH1 0x40 MLOAD PUSH4 0x7A92F19 PUSH1 0xE5 SHL DUP2 MSTORE PUSH1 0x4 SWAP1 REVERT JUMPDEST CALLVALUE PUSH2 0x208 JUMPI PUSH1 0x40 CALLDATASIZE PUSH1 0x3 NOT ADD SLT PUSH2 0x208 JUMPI PUSH1 0x4 CALLDATALOAD PUSH1 0x24 SWAP1 DUP2 CALLDATALOAD SWAP2 PUSH8 0xFFFFFFFFFFFFFFFF SWAP1 DUP2 DUP5 GT PUSH2 0x208 JUMPI CALLDATASIZE PUSH1 0x23 DUP6 ADD SLT ISZERO PUSH2 0x208 JUMPI DUP4 PUSH1 0x4 ADD CALLDATALOAD SWAP2 DUP3 GT PUSH2 0x208 JUMPI CALLDATASIZE DUP2 DUP4 DUP7 ADD ADD GT PUSH2 0x208 JUMPI PUSH2 0x987 PUSH2 0x1F53 JUMP JUMPDEST DUP3 PUSH1 0x0 MSTORE PUSH1 0x20 SWAP4 PUSH1 0x9 DUP6 MSTORE PUSH1 0x40 PUSH1 0x0 KECCAK256 SWAP1 PUSH1 0x5 DUP3 ADD DUP1 SLOAD PUSH1 0xFF DUP2 AND PUSH1 0x6 DUP2 LT ISZERO PUSH2 0xB33 JUMPI PUSH1 0x2 SUB PUSH2 0x920 JUMPI DUP4 SLOAD CALLER PUSH1 0x1 PUSH1 0x1 PUSH1 0xA0 SHL SUB SWAP2 DUP3 AND EQ ISZERO SWAP1 DUP2 PUSH2 0xB22 JUMPI JUMPDEST POP PUSH2 0x90E JUMPI DUP7 SWAP4 DUP7 SWAP3 PUSH1 0x5 PUSH1 0x9 SWAP4 PUSH1 0xFF NOT AND OR SWAP1 SSTORE TIMESTAMP PUSH1 0x8 DUP3 ADD SSTORE ADD SWAP4 PUSH2 0x9FA DUP3 PUSH2 0x9F4 DUP8 SLOAD PUSH2 0x1CA5 JUMP JUMPDEST DUP8 PUSH2 0x20AD JUMP JUMPDEST PUSH1 0x0 SWAP5 PUSH1 0x1F DUP4 GT PUSH1 0x1 EQ PUSH2 0xA91 JUMPI DUP3 DUP3 PUSH32 0x49E53FD224357020766CE272815E8A15C300AACE14A011CFCDED9335798FBD0E SWAP7 SWAP8 PUSH1 0x0 SWAP3 PUSH2 0xA84 JUMPI JUMPDEST POP POP DUP4 PUSH1 0x1 SHL SWAP1 PUSH1 0x0 NOT DUP6 PUSH1 0x3 SHL SHR NOT AND OR SWAP1 SSTORE JUMPDEST PUSH1 0x40 MLOAD SWAP3 DUP9 DUP5 MSTORE DUP3 DUP10 DUP6 ADD MSTORE ADD PUSH1 0x40 DUP4 ADD CALLDATACOPY PUSH1 0x0 PUSH1 0x40 DUP6 DUP4 ADD ADD MSTORE PUSH1 0x40 DUP2 CALLER SWAP6 PUSH1 0x1F DUP1 NOT SWAP2 ADD AND DUP2 ADD SUB ADD SWAP1 LOG3 PUSH1 0x1 PUSH1 0x0 SSTORE PUSH1 0x40 MLOAD SWAP1 DUP2 MSTORE RETURN JUMPDEST DUP7 ADD ADD CALLDATALOAD SWAP1 POP DUP3 DUP12 PUSH2 0xA35 JUMP JUMPDEST PUSH1 0x1F NOT DUP4 AND SWAP6 DUP2 PUSH1 0x0 MSTORE DUP10 PUSH1 0x0 KECCAK256 SWAP7 PUSH1 0x0 JUMPDEST DUP12 DUP3 DUP3 LT PUSH2 0xB04 JUMPI POP POP SWAP1 DUP5 PUSH32 0x49E53FD224357020766CE272815E8A15C300AACE14A011CFCDED9335798FBD0E SWAP8 SWAP9 SWAP3 LT PUSH2 0xAE8 JUMPI JUMPDEST POP POP PUSH1 0x1 DUP4 DUP2 SHL ADD SWAP1 SSTORE PUSH2 0xA4A JUMP JUMPDEST DUP6 ADD DUP4 ADD CALLDATALOAD PUSH1 0x0 NOT PUSH1 0x3 DUP7 SWAP1 SHL PUSH1 0xF8 AND SHR NOT AND SWAP1 SSTORE DUP10 DUP1 PUSH2 0xAD9 JUMP JUMPDEST DUP8 DUP5 ADD DUP7 ADD CALLDATALOAD DUP11 SSTORE PUSH1 0x1 SWAP1 SWAP10 ADD SWAP9 DUP12 SWAP9 POP DUP11 SWAP7 POP SWAP3 DUP4 ADD SWAP3 ADD PUSH2 0xAA3 JUMP JUMPDEST SWAP1 POP PUSH1 0x1 DUP6 ADD SLOAD AND CALLER EQ ISZERO DUP10 PUSH2 0x9C9 JUMP JUMPDEST DUP6 PUSH4 0x4E487B71 PUSH1 0xE0 SHL PUSH1 0x0 MSTORE PUSH1 0x21 PUSH1 0x4 MSTORE PUSH1 0x0 REVERT JUMPDEST CALLVALUE PUSH2 0x208 JUMPI PUSH1 0x20 CALLDATASIZE PUSH1 0x3 NOT ADD SLT PUSH2 0x208 JUMPI PUSH2 0xB61 PUSH2 0x1C8F JUMP JUMPDEST PUSH2 0xB69 PUSH2 0x1E36 JUMP JUMPDEST PUSH1 0xC DUP1 SLOAD PUSH1 0x1 PUSH1 0x1 PUSH1 0xA0 SHL SUB NOT AND PUSH1 0x1 PUSH1 0x1 PUSH1 0xA0 SHL SUB SWAP3 SWAP1 SWAP3 AND SWAP2 SWAP1 SWAP2 OR SWAP1 SSTORE STOP JUMPDEST CALLVALUE PUSH2 0x208 JUMPI PUSH1 0xA0 CALLDATASIZE PUSH1 0x3 NOT ADD SLT PUSH2 0x208 JUMPI PUSH1 0x44 CALLDATALOAD PUSH1 0x1 PUSH1 0x1 PUSH1 0xA0 SHL SUB DUP2 AND DUP2 SUB PUSH2 0x208 JUMPI PUSH1 0x84 CALLDATALOAD PUSH1 0xFF DUP2 AND DUP1 DUP3 SUB PUSH2 0x208 JUMPI PUSH2 0xBC5 PUSH2 0x1F53 JUMP JUMPDEST PUSH2 0xBCD PUSH2 0x1F32 JUMP JUMPDEST CALLER PUSH1 0x0 MSTORE PUSH1 0xA PUSH1 0x20 MSTORE PUSH2 0xBE8 PUSH1 0x3 PUSH1 0x40 PUSH1 0x0 KECCAK256 ADD SLOAD TIMESTAMP PUSH2 0x1F76 JUMP JUMPDEST PUSH1 0x5 SLOAD GT PUSH2 0x1017 JUMPI PUSH1 0x8 SLOAD PUSH3 0x15180 DUP2 ADD DUP1 SWAP2 GT PUSH2 0x817 JUMPI TIMESTAMP GT PUSH2 0xFD7 JUMPI JUMPDEST PUSH2 0xC15 PUSH1 0x24 CALLDATALOAD PUSH1 0x7 SLOAD PUSH2 0x1E62 JUMP JUMPDEST PUSH1 0x6 SLOAD LT PUSH2 0xFC5 JUMPI PUSH1 0x4 CALLDATALOAD PUSH1 0x0 MSTORE PUSH1 0x9 PUSH1 0x20 MSTORE PUSH1 0xFF PUSH1 0x5 PUSH1 0x40 PUSH1 0x0 KECCAK256 ADD SLOAD AND PUSH1 0x6 DUP2 LT ISZERO PUSH2 0x472 JUMPI PUSH2 0xFB3 JUMPI PUSH1 0x24 CALLDATALOAD ISZERO PUSH2 0x698 JUMPI TIMESTAMP PUSH1 0x64 CALLDATALOAD GT ISZERO PUSH2 0xFA1 JUMPI PUSH1 0x46 GT ISZERO PUSH2 0xF8F JUMPI PUSH2 0xC68 SWAP1 PUSH1 0x24 CALLDATALOAD CALLER PUSH2 0x1FE6 JUMP JUMPDEST SWAP1 CALLER PUSH1 0x0 MSTORE PUSH1 0xA PUSH1 0x20 MSTORE PUSH1 0x40 PUSH1 0x0 KECCAK256 DUP1 SLOAD SWAP1 DUP4 PUSH2 0xC8B PUSH1 0x1 DUP4 ADD SWAP4 DUP5 SLOAD SWAP1 PUSH2 0x1F76 JUMP JUMPDEST LT PUSH2 0xF7D JUMPI PUSH2 0x2710 PUSH2 0xCA1 PUSH1 0x2 SLOAD PUSH1 0x24 CALLDATALOAD PUSH2 0x1FD3 JUMP JUMPDEST DIV SWAP2 PUSH2 0xCDA PUSH2 0xCB2 DUP5 PUSH1 0x24 CALLDATALOAD PUSH2 0x1E62 JUMP JUMPDEST ADDRESS CALLER PUSH32 0x0 PUSH2 0x1E6F JUMP JUMPDEST PUSH2 0xCE5 DUP6 DUP3 SLOAD PUSH2 0x1E62 JUMP JUMPDEST SWAP1 SSTORE PUSH1 0x3 TIMESTAMP SWAP2 ADD SSTORE PUSH2 0xCFB PUSH1 0x24 CALLDATALOAD PUSH1 0x7 SLOAD PUSH2 0x1E62 JUMP JUMPDEST PUSH1 0x7 SSTORE PUSH1 0x40 MLOAD SWAP1 PUSH2 0xD0B DUP3 PUSH2 0x1CDF JUMP JUMPDEST CALLER DUP3 MSTORE PUSH1 0x1 DUP1 PUSH1 0xA0 SHL SUB DUP4 AND PUSH1 0x20 DUP4 ADD MSTORE PUSH1 0x24 CALLDATALOAD PUSH1 0x40 DUP4 ADD MSTORE PUSH1 0x60 DUP3 ADD MSTORE DUP3 PUSH1 0x80 DUP3 ADD MSTORE PUSH1 0x2 PUSH1 0xA0 DUP3 ADD MSTORE TIMESTAMP PUSH1 0xC0 DUP3 ADD MSTORE PUSH1 0x64 CALLDATALOAD PUSH1 0xE0 DUP3 ADD MSTORE PUSH1 0x0 PUSH2 0x100 DUP3 ADD MSTORE PUSH1 0x40 MLOAD DUP1 PUSH1 0x20 DUP2 ADD LT PUSH8 0xFFFFFFFFFFFFFFFF PUSH1 0x20 DUP4 ADD GT OR PUSH2 0xF67 JUMPI PUSH1 0x20 DUP2 ADD PUSH1 0x40 MSTORE PUSH1 0x0 DUP2 MSTORE PUSH2 0x120 DUP3 ADD MSTORE PUSH1 0x0 PUSH2 0x140 DUP3 ADD MSTORE PUSH1 0x4 CALLDATALOAD PUSH1 0x0 MSTORE PUSH1 0x9 PUSH1 0x20 MSTORE PUSH1 0x40 PUSH1 0x0 KECCAK256 SWAP1 PUSH1 0x1 DUP1 PUSH1 0xA0 SHL SUB DUP2 MLOAD AND PUSH12 0xFFFFFFFFFFFFFFFFFFFFFFFF PUSH1 0xA0 SHL SWAP1 DUP2 DUP5 SLOAD AND OR DUP4 SSTORE PUSH1 0x1 DUP4 ADD SWAP1 PUSH1 0x1 DUP1 PUSH1 0xA0 SHL SUB PUSH1 0x20 DUP5 ADD MLOAD AND SWAP1 DUP3 SLOAD AND OR SWAP1 SSTORE PUSH1 0x40 DUP2 ADD MLOAD PUSH1 0x2 DUP4 ADD SSTORE PUSH1 0x60 DUP2 ADD MLOAD PUSH1 0x3 DUP4 ADD SSTORE PUSH1 0x80 DUP2 ADD MLOAD PUSH1 0x4 DUP4 ADD SSTORE PUSH1 0x5 DUP3 ADD PUSH1 0xA0 DUP3 ADD MLOAD PUSH1 0x6 DUP2 LT ISZERO PUSH2 0x472 JUMPI PUSH1 0xFF DUP1 NOT DUP4 SLOAD AND SWAP2 AND OR SWAP1 SSTORE PUSH1 0xC0 DUP2 ADD MLOAD PUSH1 0x6 DUP4 ADD SSTORE PUSH1 0xE0 DUP2 ADD MLOAD PUSH1 0x7 DUP4 ADD SSTORE PUSH2 0x100 DUP2 ADD MLOAD PUSH1 0x8 DUP4 ADD SSTORE PUSH1 0x9 DUP3 ADD PUSH2 0x120 DUP3 ADD MLOAD DUP1 MLOAD SWAP1 PUSH8 0xFFFFFFFFFFFFFFFF DUP3 GT PUSH2 0xF67 JUMPI PUSH2 0xE58 DUP3 PUSH2 0xE52 DUP6 SLOAD PUSH2 0x1CA5 JUMP JUMPDEST DUP6 PUSH2 0x20AD JUMP JUMPDEST PUSH1 0x20 SWAP1 PUSH1 0x1F DUP4 GT PUSH1 0x1 EQ PUSH2 0xEF8 JUMPI SWAP2 DUP1 PUSH2 0x140 SWAP5 SWAP3 PUSH1 0xA SWAP7 SWAP5 PUSH1 0x0 SWAP3 PUSH2 0xEED JUMPI JUMPDEST POP POP DUP2 PUSH1 0x1 SHL SWAP2 PUSH1 0x0 NOT SWAP1 PUSH1 0x3 SHL SHR NOT AND OR SWAP1 SSTORE JUMPDEST ADD MLOAD SWAP2 ADD SSTORE PUSH1 0x40 MLOAD SWAP2 PUSH1 0x24 CALLDATALOAD DUP4 MSTORE PUSH1 0x20 DUP4 ADD MSTORE PUSH1 0x64 CALLDATALOAD PUSH1 0x40 DUP4 ADD MSTORE PUSH1 0x1 DUP1 PUSH1 0xA0 SHL SUB AND SWAP1 CALLER SWAP1 PUSH32 0xF961D737CBE74505725C1BE3F1EF74DB923C3190FC8F9CBBBDA1821DA86299E0 PUSH1 0x60 PUSH1 0x4 CALLDATALOAD SWAP3 LOG4 PUSH1 0x1 PUSH1 0x0 SSTORE PUSH1 0x20 PUSH1 0x40 MLOAD PUSH1 0x4 CALLDATALOAD DUP2 MSTORE RETURN JUMPDEST ADD MLOAD SWAP1 POP DUP10 DUP1 PUSH2 0xE79 JUMP JUMPDEST SWAP1 PUSH1 0x1F NOT DUP4 AND SWAP2 DUP5 PUSH1 0x0 MSTORE PUSH1 0x20 PUSH1 0x0 KECCAK256 SWAP3 PUSH1 0x0 JUMPDEST DUP2 DUP2 LT PUSH2 0xF4F JUMPI POP SWAP3 PUSH1 0x1 SWAP3 DUP6 SWAP3 PUSH1 0xA SWAP9 SWAP7 PUSH2 0x140 SWAP9 SWAP7 LT PUSH2 0xF36 JUMPI JUMPDEST POP POP POP DUP2 SHL ADD SWAP1 SSTORE PUSH2 0xE8E JUMP JUMPDEST ADD MLOAD PUSH1 0x0 NOT PUSH1 0xF8 DUP5 PUSH1 0x3 SHL AND SHR NOT AND SWAP1 SSTORE DUP10 DUP1 DUP1 PUSH2 0xF29 JUMP JUMPDEST SWAP3 SWAP4 PUSH1 0x20 PUSH1 0x1 DUP2 SWAP3 DUP8 DUP7 ADD MLOAD DUP2 SSTORE ADD SWAP6 ADD SWAP4 ADD PUSH2 0xF0C JUMP JUMPDEST PUSH4 0x4E487B71 PUSH1 0xE0 SHL PUSH1 0x0 MSTORE PUSH1 0x41 PUSH1 0x4 MSTORE PUSH1 0x24 PUSH1 0x0 REVERT JUMPDEST PUSH1 0x40 MLOAD PUSH4 0x78DE4A69 PUSH1 0xE1 SHL DUP2 MSTORE PUSH1 0x4 SWAP1 REVERT JUMPDEST PUSH1 0x40 MLOAD PUSH4 0x9A60FB5F PUSH1 0xE0 SHL DUP2 MSTORE PUSH1 0x4 SWAP1 REVERT JUMPDEST PUSH1 0x40 MLOAD PUSH4 0x3C4FAC2D PUSH1 0xE0 SHL DUP2 MSTORE PUSH1 0x4 SWAP1 REVERT JUMPDEST PUSH1 0x40 MLOAD PUSH4 0xED778779 PUSH1 0xE0 SHL DUP2 MSTORE PUSH1 0x4 SWAP1 REVERT JUMPDEST PUSH1 0x40 MLOAD PUSH4 0x1F8BB995 PUSH1 0xE2 SHL DUP2 MSTORE PUSH1 0x4 SWAP1 REVERT JUMPDEST PUSH32 0x10EE94E9840988DEBCDE08483D660602BA7CC7450991DA1F586E2EF21E036933 PUSH1 0x40 PUSH1 0x7 SLOAD DUP2 MLOAD SWAP1 DUP2 MSTORE TIMESTAMP PUSH1 0x20 DUP3 ADD MSTORE LOG1 PUSH1 0x0 PUSH1 0x7 SSTORE TIMESTAMP PUSH1 0x8 SSTORE PUSH2 0xC07 JUMP JUMPDEST PUSH1 0x40 MLOAD PUSH4 0xA74C1C5F PUSH1 0xE0 SHL DUP2 MSTORE PUSH1 0x4 SWAP1 REVERT JUMPDEST CALLVALUE PUSH2 0x208 JUMPI PUSH1 0x0 CALLDATASIZE PUSH1 0x3 NOT ADD SLT PUSH2 0x208 JUMPI PUSH1 0x20 PUSH1 0x7 SLOAD PUSH1 0x40 MLOAD SWAP1 DUP2 MSTORE RETURN JUMPDEST CALLVALUE PUSH2 0x208 JUMPI PUSH1 0x0 CALLDATASIZE PUSH1 0x3 NOT ADD SLT PUSH2 0x208 JUMPI PUSH1 0x1 SLOAD PUSH1 0x40 MLOAD PUSH1 0x1 PUSH1 0x1 PUSH1 0xA0 SHL SUB SWAP1 SWAP2 AND DUP2 MSTORE PUSH1 0x20 SWAP1 RETURN JUMPDEST CALLVALUE PUSH2 0x208 JUMPI PUSH1 0x0 CALLDATASIZE PUSH1 0x3 NOT ADD SLT PUSH2 0x208 JUMPI PUSH2 0x1089 PUSH2 0x1E36 JUMP JUMPDEST PUSH2 0x1091 PUSH2 0x1F32 JUMP JUMPDEST PUSH1 0x1 DUP1 SLOAD PUSH1 0xFF PUSH1 0xA0 SHL NOT AND PUSH1 0x1 PUSH1 0xA0 SHL OR SWAP1 SSTORE PUSH1 0x40 MLOAD CALLER DUP2 MSTORE PUSH32 0x62E78CEA01BEE320CD4E420270B5EA74000D11B0C9F74754EBDBFC544B05A258 SWAP1 PUSH1 0x20 SWAP1 LOG1 STOP JUMPDEST CALLVALUE PUSH2 0x208 JUMPI PUSH1 0x20 CALLDATASIZE PUSH1 0x3 NOT ADD SLT PUSH2 0x208 JUMPI PUSH2 0x10EB PUSH2 0x1C8F JUMP JUMPDEST PUSH2 0x10F3 PUSH2 0x1E36 JUMP JUMPDEST PUSH1 0xD DUP1 SLOAD PUSH1 0x1 PUSH1 0x1 PUSH1 0xA0 SHL SUB NOT AND PUSH1 0x1 PUSH1 0x1 PUSH1 0xA0 SHL SUB SWAP3 SWAP1 SWAP3 AND SWAP2 SWAP1 SWAP2 OR SWAP1 SSTORE STOP JUMPDEST CALLVALUE PUSH2 0x208 JUMPI PUSH1 0x0 CALLDATASIZE PUSH1 0x3 NOT ADD SLT PUSH2 0x208 JUMPI PUSH2 0x112E PUSH2 0x1E36 JUMP JUMPDEST PUSH1 0x1 DUP1 SLOAD PUSH1 0x1 PUSH1 0x1 PUSH1 0xA0 SHL SUB NOT DUP2 AND SWAP1 SWAP2 SSTORE PUSH1 0x0 SWAP1 PUSH1 0x1 PUSH1 0x1 PUSH1 0xA0 SHL SUB AND PUSH32 0x8BE0079C531659141344CD1FD0A4F28419497F9722A3DAAFE3B4186F6B6457E0 DUP3 DUP1 LOG3 STOP JUMPDEST CALLVALUE PUSH2 0x208 JUMPI PUSH1 0x0 CALLDATASIZE PUSH1 0x3 NOT ADD SLT PUSH2 0x208 JUMPI PUSH1 0xC SLOAD PUSH1 0x40 MLOAD PUSH1 0x1 PUSH1 0x1 PUSH1 0xA0 SHL SUB SWAP1 SWAP2 AND DUP2 MSTORE PUSH1 0x20 SWAP1 RETURN JUMPDEST CALLVALUE PUSH2 0x208 JUMPI PUSH1 0x0 CALLDATASIZE PUSH1 0x3 NOT ADD SLT PUSH2 0x208 JUMPI PUSH1 0x20 PUSH1 0xFF PUSH1 0x1 SLOAD PUSH1 0xA0 SHR AND PUSH1 0x40 MLOAD SWAP1 ISZERO ISZERO DUP2 MSTORE RETURN JUMPDEST CALLVALUE PUSH2 0x208 JUMPI PUSH1 0x20 CALLDATASIZE PUSH1 0x3 NOT ADD SLT PUSH2 0x208 JUMPI PUSH2 0x11DA PUSH2 0x1E36 JUMP JUMPDEST PUSH1 0x4 CALLDATALOAD PUSH1 0x6 SSTORE STOP JUMPDEST CALLVALUE PUSH2 0x208 JUMPI PUSH1 0x20 CALLDATASIZE PUSH1 0x3 NOT ADD SLT PUSH2 0x208 JUMPI PUSH1 0x4 CALLDATALOAD PUSH1 0x1 DUP2 LT ISZERO PUSH2 0x208 JUMPI PUSH1 0x0 MSTORE PUSH1 0xB PUSH1 0x20 MSTORE PUSH1 0x20 PUSH1 0xFF PUSH1 0x40 PUSH1 0x0 KECCAK256 SLOAD AND PUSH1 0x40 MLOAD SWAP1 DUP2 MSTORE RETURN JUMPDEST CALLVALUE PUSH2 0x208 JUMPI PUSH1 0x0 CALLDATASIZE PUSH1 0x3 NOT ADD SLT PUSH2 0x208 JUMPI PUSH1 0x20 PUSH1 0x40 MLOAD PUSH2 0x7D0 DUP2 MSTORE RETURN JUMPDEST CALLVALUE PUSH2 0x208 JUMPI PUSH1 0x40 CALLDATASIZE PUSH1 0x3 NOT ADD SLT PUSH2 0x208 JUMPI PUSH1 0x4 CALLDATALOAD PUSH1 0x24 CALLDATALOAD PUSH2 0x1256 PUSH2 0x1F53 JUMP JUMPDEST DUP2 PUSH1 0x0 MSTORE PUSH1 0x9 PUSH1 0x20 MSTORE PUSH1 0x40 PUSH1 0x0 KECCAK256 PUSH1 0xFF PUSH1 0x5 DUP3 ADD SLOAD AND PUSH1 0x6 DUP2 LT ISZERO PUSH2 0x472 JUMPI PUSH1 0x2 SUB PUSH2 0x920 JUMPI PUSH1 0x1 DUP2 ADD SLOAD PUSH1 0x1 PUSH1 0x1 PUSH1 0xA0 SHL SUB AND CALLER SUB PUSH2 0x90E JUMPI DUP2 PUSH32 0x403182C8A62EC46B58FB2AA1AB220C85785D0E5027DB9A9156D12A911861808 SWAP3 PUSH1 0xA PUSH1 0x20 SWAP4 ADD SSTORE PUSH1 0x40 MLOAD SWAP1 DUP2 MSTORE LOG2 PUSH1 0x1 PUSH1 0x0 SSTORE STOP JUMPDEST CALLVALUE PUSH2 0x208 JUMPI PUSH1 0x0 CALLDATASIZE PUSH1 0x3 NOT ADD SLT PUSH2 0x208 JUMPI PUSH1 0x20 PUSH1 0x40 MLOAD PUSH2 0x1388 DUP2 MSTORE RETURN JUMPDEST CALLVALUE PUSH2 0x208 JUMPI PUSH1 0x20 DUP1 PUSH1 0x3 NOT CALLDATASIZE ADD SLT PUSH2 0x208 JUMPI PUSH1 0x4 CALLDATALOAD PUSH2 0x1302 PUSH2 0x1F53 JUMP JUMPDEST DUP1 PUSH1 0x0 MSTORE PUSH1 0x9 DUP3 MSTORE PUSH1 0x40 PUSH1 0x0 KECCAK256 SWAP1 PUSH1 0x5 DUP3 ADD PUSH1 0xFF DUP2 SLOAD AND PUSH1 0x6 DUP2 LT ISZERO PUSH2 0x472 JUMPI PUSH1 0x2 SUB PUSH2 0x920 JUMPI PUSH1 0x7 DUP4 ADD SLOAD TIMESTAMP LT PUSH2 0x1512 JUMPI PUSH1 0x1 DUP4 ADD SLOAD PUSH1 0x1 PUSH1 0x1 PUSH1 0xA0 SHL SUB SWAP1 DUP2 AND PUSH1 0x0 DUP2 DUP2 MSTORE PUSH1 0xA DUP8 MSTORE PUSH1 0x40 SWAP1 KECCAK256 SLOAD SWAP3 DUP7 SWAP3 SWAP2 DUP5 ISZERO SWAP1 DUP2 ISZERO PUSH2 0x1412 JUMPI JUMPDEST POP POP PUSH32 0xFC31A7DDBE933AA6E67F3C98C183FBC87ADDD2B602FCFB10238D2F85CF026617 SWAP4 POP PUSH1 0x4 PUSH1 0xFF NOT DUP3 SLOAD AND OR SWAP1 SSTORE PUSH1 0x4 DUP6 ADD SLOAD DUP2 DUP7 SLOAD AND PUSH1 0x0 MSTORE PUSH1 0xA DUP4 MSTORE PUSH2 0x13B3 PUSH1 0x1 PUSH1 0x40 PUSH1 0x0 KECCAK256 ADD SWAP2 DUP3 SLOAD PUSH2 0x1F76 JUMP JUMPDEST SWAP1 SSTORE DUP1 DUP6 SLOAD AND SWAP5 PUSH2 0x13F9 PUSH1 0x2 DUP3 ADD SWAP7 PUSH2 0x13D2 DUP9 SLOAD PUSH1 0x3 DUP6 ADD SLOAD SWAP1 PUSH2 0x1E62 JUMP JUMPDEST SWAP1 PUSH32 0x0 PUSH2 0x1F83 JUMP JUMPDEST SLOAD AND SWAP4 SLOAD PUSH1 0x40 MLOAD SWAP1 DUP2 MSTORE LOG3 PUSH1 0x1 PUSH1 0x0 SSTORE PUSH1 0x40 MLOAD PUSH1 0x1 DUP2 MSTORE RETURN JUMPDEST PUSH1 0x40 MLOAD SWAP5 POP SWAP1 PUSH2 0x1421 DUP6 PUSH2 0x1D18 JUMP JUMPDEST PUSH1 0xD DUP6 MSTORE PUSH13 0x13DC99195C881D1A5B595BDD5D PUSH1 0x9A SHL DUP10 DUP7 ADD MSTORE PUSH2 0x7D0 DUP1 DUP8 MUL SWAP7 DUP8 DIV EQ OR ISZERO PUSH2 0x817 JUMPI PUSH32 0xC32D81504C00CE92EAEED0852B187E372B250D24935CA5A510426ADBD42CC257 DUP9 SWAP5 PUSH2 0x2710 PUSH32 0xFC31A7DDBE933AA6E67F3C98C183FBC87ADDD2B602FCFB10238D2F85CF026617 SWAP8 DIV DUP4 PUSH1 0x0 MSTORE PUSH1 0xA DUP8 MSTORE PUSH1 0x40 PUSH1 0x0 KECCAK256 DUP1 SLOAD DUP1 DUP4 GT PUSH2 0x150A JUMPI JUMPDEST DUP3 PUSH2 0x14B4 SWAP2 PUSH2 0x1F76 JUMP JUMPDEST SWAP1 SSTORE PUSH2 0x14E5 DUP2 DUP8 PUSH1 0x1 SLOAD AND PUSH32 0x0 PUSH2 0x1F83 JUMP JUMPDEST PUSH2 0x1500 PUSH1 0x40 MLOAD SWAP3 DUP4 SWAP3 DUP4 MSTORE PUSH1 0x40 DUP10 DUP5 ADD MSTORE PUSH1 0x40 DUP4 ADD SWAP1 PUSH2 0x1DF6 JUMP JUMPDEST SUB SWAP1 LOG2 DUP8 DUP1 PUSH2 0x1360 JUMP JUMPDEST SWAP2 POP DUP2 PUSH2 0x14AA JUMP JUMPDEST PUSH1 0x40 MLOAD PUSH4 0x5B3D0EDD PUSH1 0xE0 SHL DUP2 MSTORE PUSH1 0x4 SWAP1 REVERT JUMPDEST CALLVALUE PUSH2 0x208 JUMPI PUSH1 0x0 CALLDATASIZE PUSH1 0x3 NOT ADD SLT PUSH2 0x208 JUMPI PUSH2 0x153D PUSH2 0x1E36 JUMP JUMPDEST PUSH1 0x1 SLOAD PUSH1 0xFF DUP2 PUSH1 0xA0 SHR AND ISZERO PUSH2 0x1584 JUMPI PUSH1 0xFF PUSH1 0xA0 SHL NOT AND PUSH1 0x1 SSTORE PUSH1 0x40 MLOAD CALLER DUP2 MSTORE PUSH32 0x5DB9EE0A495BF2E6FF9C91A7834C1BA4FDD244A5E8AA4E537BD38AEAE4B073AA SWAP1 PUSH1 0x20 SWAP1 LOG1 STOP JUMPDEST PUSH1 0x40 MLOAD PUSH4 0x8DFC202B PUSH1 0xE0 SHL DUP2 MSTORE PUSH1 0x4 SWAP1 REVERT JUMPDEST CALLVALUE PUSH2 0x208 JUMPI PUSH1 0x0 CALLDATASIZE PUSH1 0x3 NOT ADD SLT PUSH2 0x208 JUMPI PUSH1 0x40 MLOAD PUSH32 0x0 PUSH1 0x1 PUSH1 0x1 PUSH1 0xA0 SHL SUB AND DUP2 MSTORE PUSH1 0x20 SWAP1 RETURN JUMPDEST CALLVALUE PUSH2 0x208 JUMPI PUSH1 0x0 CALLDATASIZE PUSH1 0x3 NOT ADD SLT PUSH2 0x208 JUMPI PUSH1 0x20 PUSH1 0x5 SLOAD PUSH1 0x40 MLOAD SWAP1 DUP2 MSTORE RETURN JUMPDEST CALLVALUE PUSH2 0x208 JUMPI PUSH1 0x0 CALLDATASIZE PUSH1 0x3 NOT ADD SLT PUSH2 0x208 JUMPI PUSH1 0x20 PUSH1 0x40 MLOAD PUSH2 0x1F4 DUP2 MSTORE RETURN JUMPDEST CALLVALUE PUSH2 0x208 JUMPI PUSH1 0x20 CALLDATASIZE PUSH1 0x3 NOT ADD SLT PUSH2 0x208 JUMPI PUSH1 0x4 CALLDATALOAD PUSH1 0x0 MSTORE PUSH1 0x9 PUSH1 0x20 MSTORE PUSH1 0x40 PUSH1 0x0 KECCAK256 PUSH1 0x1 DUP1 PUSH1 0xA0 SHL SUB DUP1 DUP3 SLOAD AND SWAP1 PUSH1 0x1 DUP4 ADD SLOAD AND SWAP2 PUSH2 0x16D4 PUSH1 0x2 DUP3 ADD SLOAD SWAP2 PUSH1 0x3 DUP2 ADD SLOAD PUSH1 0x4 DUP3 ADD SLOAD PUSH1 0xFF PUSH1 0x5 DUP5 ADD SLOAD AND PUSH2 0x16B2 PUSH1 0x6 DUP6 ADD SLOAD SWAP2 PUSH1 0x7 DUP7 ADD SLOAD SWAP4 PUSH1 0x8 DUP8 ADD SLOAD SWAP6 PUSH1 0xA PUSH2 0x1688 PUSH1 0x9 DUP11 ADD PUSH2 0x1D34 JUMP JUMPDEST SWAP9 ADD SLOAD SWAP10 PUSH1 0x40 MLOAD SWAP13 DUP14 SWAP13 DUP14 MSTORE PUSH1 0x20 DUP14 ADD MSTORE PUSH1 0x40 DUP13 ADD MSTORE PUSH1 0x60 DUP12 ADD MSTORE PUSH1 0x80 DUP11 ADD MSTORE PUSH1 0xA0 DUP10 ADD SWAP1 PUSH2 0x1DE9 JUMP JUMPDEST PUSH1 0xC0 DUP8 ADD MSTORE PUSH1 0xE0 DUP7 ADD MSTORE PUSH2 0x100 DUP6 ADD MSTORE PUSH2 0x160 DUP1 PUSH2 0x120 DUP7 ADD MSTORE DUP5 ADD SWAP1 PUSH2 0x1DF6 JUMP JUMPDEST SWAP1 PUSH2 0x140 DUP4 ADD MSTORE SUB SWAP1 RETURN JUMPDEST CALLVALUE PUSH2 0x208 JUMPI PUSH1 0x0 CALLDATASIZE PUSH1 0x3 NOT ADD SLT PUSH2 0x208 JUMPI PUSH1 0x80 PUSH1 0xE SLOAD PUSH1 0x40 MLOAD SWAP1 PUSH2 0xFFFF SWAP1 DUP2 DUP2 AND DUP4 MSTORE DUP2 DUP2 PUSH1 0x10 SHR AND PUSH1 0x20 DUP5 ADD MSTORE DUP2 DUP2 PUSH1 0x20 SHR AND PUSH1 0x40 DUP5 ADD MSTORE PUSH1 0x30 SHR AND PUSH1 0x60 DUP3 ADD MSTORE RETURN JUMPDEST CALLVALUE PUSH2 0x208 JUMPI PUSH1 0x20 CALLDATASIZE PUSH1 0x3 NOT ADD SLT PUSH2 0x208 JUMPI PUSH1 0x4 CALLDATALOAD PUSH2 0x173F PUSH2 0x1F53 JUMP JUMPDEST CALLER PUSH1 0x0 MSTORE PUSH1 0xA PUSH1 0x20 MSTORE PUSH1 0x40 PUSH1 0x0 KECCAK256 DUP1 SLOAD PUSH2 0x175D PUSH1 0x1 DUP4 ADD SLOAD DUP3 PUSH2 0x1F76 JUMP JUMPDEST DUP4 GT PUSH2 0xF7D JUMPI DUP3 PUSH2 0x176D SWAP2 PUSH2 0x1F76 JUMP JUMPDEST SWAP1 SSTORE PUSH2 0x179A DUP2 CALLER PUSH32 0x0 PUSH2 0x1F83 JUMP JUMPDEST PUSH1 0x40 MLOAD SWAP1 DUP2 MSTORE PUSH32 0x8108595EB6BAD3ACEFA9DA467D90CC2217686D5C5AC85460F8B7849C840645FC PUSH1 0x20 CALLER SWAP3 LOG2 PUSH1 0x1 PUSH1 0x0 SSTORE STOP JUMPDEST CALLVALUE PUSH2 0x208 JUMPI PUSH1 0x0 CALLDATASIZE PUSH1 0x3 NOT ADD SLT PUSH2 0x208 JUMPI PUSH1 0x20 PUSH1 0x2 SLOAD PUSH1 0x40 MLOAD SWAP1 DUP2 MSTORE RETURN JUMPDEST CALLVALUE PUSH2 0x208 JUMPI PUSH1 0x60 CALLDATASIZE PUSH1 0x3 NOT ADD SLT PUSH2 0x208 JUMPI PUSH1 0x24 CALLDATALOAD PUSH1 0x4 CALLDATALOAD DUP2 ISZERO ISZERO DUP3 SUB PUSH2 0x208 JUMPI PUSH1 0x44 CALLDATALOAD SWAP2 DUP3 ISZERO ISZERO DUP4 SUB PUSH2 0x208 JUMPI PUSH2 0x1820 PUSH2 0x1F53 JUMP JUMPDEST PUSH1 0xC SLOAD PUSH1 0x1 PUSH1 0x1 PUSH1 0xA0 SHL SUB SWAP1 DUP2 AND CALLER EQ ISZERO DUP1 PUSH2 0x1AC7 JUMPI JUMPDEST PUSH2 0x90E JUMPI DUP3 PUSH1 0x0 MSTORE PUSH1 0x20 SWAP1 PUSH1 0x9 DUP3 MSTORE PUSH1 0x40 PUSH1 0x0 KECCAK256 SWAP1 PUSH1 0x5 DUP3 ADD SWAP1 PUSH1 0xFF DUP3 SLOAD AND PUSH1 0x6 DUP2 LT ISZERO PUSH2 0x472 JUMPI PUSH1 0x5 SUB PUSH2 0x920 JUMPI DUP5 ISZERO PUSH2 0x1ABA JUMPI DUP1 DUP4 SLOAD AND SWAP7 JUMPDEST DUP6 ISZERO PUSH2 0x1AB0 JUMPI DUP2 PUSH1 0x1 DUP6 ADD SLOAD AND SWAP1 JUMPDEST DUP1 PUSH2 0x1A98 JUMPI JUMPDEST PUSH2 0x1980 JUMPI JUMPDEST POP SWAP1 DUP2 PUSH32 0xE44B3676D6DF957DEF7F6B146C2D11487456BE34F4233923B46216CFB196467D SWAP6 DUP2 DUP6 SWAP5 PUSH1 0x2 SWAP7 SLOAD AND SWAP10 AND SWAP9 DUP1 DUP11 EQ PUSH2 0x1958 JUMPI JUMPDEST POP ISZERO PUSH2 0x18FE JUMPI PUSH2 0x18EE SWAP2 PUSH1 0x4 PUSH1 0xFF NOT DUP3 SLOAD AND OR SWAP1 SSTORE DUP3 SLOAD AND PUSH2 0x13D2 DUP5 DUP5 ADD SLOAD PUSH1 0x3 DUP6 ADD SLOAD SWAP1 PUSH2 0x1E62 JUMP JUMPDEST ADD SLOAD PUSH1 0x40 MLOAD SWAP1 DUP2 MSTORE LOG3 PUSH1 0x1 PUSH1 0x0 SSTORE STOP JUMPDEST PUSH2 0x1953 SWAP2 PUSH1 0x3 PUSH1 0xFF NOT DUP3 SLOAD AND OR SWAP1 SSTORE PUSH32 0x0 SWAP1 PUSH2 0x1944 DUP2 PUSH1 0x1 DUP7 ADD SLOAD AND DUP7 DUP7 ADD SLOAD SWAP1 DUP5 PUSH2 0x1F83 JUMP JUMPDEST PUSH1 0x1 SLOAD AND PUSH1 0x3 DUP5 ADD SLOAD SWAP2 PUSH2 0x1F83 JUMP JUMPDEST PUSH2 0x18EE JUMP JUMPDEST PUSH1 0x4 DUP6 ADD SLOAD SWAP1 PUSH1 0x0 MSTORE PUSH1 0xA DUP8 MSTORE PUSH2 0x1978 PUSH1 0x1 PUSH1 0x40 PUSH1 0x0 KECCAK256 ADD SWAP2 DUP3 SLOAD PUSH2 0x1F76 JUMP JUMPDEST SWAP1 SSTORE DUP10 PUSH2 0x18C4 JUMP JUMPDEST SWAP1 DUP1 SWAP4 SWAP3 SWAP2 AND DUP1 PUSH1 0x0 MSTORE PUSH1 0xA DUP6 MSTORE PUSH1 0x40 PUSH1 0x0 KECCAK256 SLOAD PUSH1 0x40 MLOAD SWAP1 PUSH2 0x19A1 DUP3 PUSH2 0x1D18 JUMP JUMPDEST PUSH1 0xC DUP3 MSTORE PUSH12 0x111A5CDC1D5D19481B1BDCDD PUSH1 0xA2 SHL DUP8 DUP4 ADD MSTORE PUSH2 0x1388 SWAP1 DUP2 DUP2 MUL SWAP2 DUP2 DUP4 DIV EQ SWAP1 ISZERO OR ISZERO PUSH2 0x817 JUMPI DUP3 SWAP2 PUSH2 0x2710 PUSH32 0xC32D81504C00CE92EAEED0852B187E372B250D24935CA5A510426ADBD42CC257 SWAP3 DIV DUP4 PUSH1 0x0 MSTORE PUSH1 0xA DUP10 MSTORE PUSH1 0x40 PUSH1 0x0 KECCAK256 DUP1 SLOAD DUP1 DUP4 GT PUSH2 0x1A90 JUMPI JUMPDEST DUP3 PUSH2 0x1A16 SWAP2 PUSH2 0x1F76 JUMP JUMPDEST SWAP1 SSTORE PUSH2 0x1A47 DUP2 DUP10 PUSH1 0x1 SLOAD AND PUSH32 0x0 PUSH2 0x1F83 JUMP JUMPDEST PUSH2 0x1A62 PUSH1 0x40 MLOAD SWAP3 DUP4 SWAP3 DUP4 MSTORE PUSH1 0x40 DUP12 DUP5 ADD MSTORE PUSH1 0x40 DUP4 ADD SWAP1 PUSH2 0x1DF6 JUMP JUMPDEST SUB SWAP1 LOG2 PUSH1 0x0 MSTORE PUSH1 0xA DUP5 MSTORE PUSH1 0x5 PUSH1 0x40 PUSH1 0x0 KECCAK256 ADD SWAP3 DUP4 SLOAD SWAP6 PUSH1 0x1 DUP8 ADD DUP1 SWAP8 GT PUSH2 0x817 JUMPI SWAP6 SWAP1 SWAP4 SSTORE SWAP1 SWAP2 PUSH1 0x2 PUSH2 0x188C JUMP JUMPDEST SWAP2 POP DUP2 PUSH2 0x1A0C JUMP JUMPDEST POP DUP2 DUP2 AND PUSH1 0x0 MSTORE PUSH1 0xA DUP6 MSTORE PUSH1 0x40 PUSH1 0x0 KECCAK256 SLOAD ISZERO ISZERO PUSH2 0x1887 JUMP JUMPDEST DUP2 DUP5 SLOAD AND SWAP1 PUSH2 0x1881 JUMP JUMPDEST DUP1 PUSH1 0x1 DUP5 ADD SLOAD AND SWAP7 PUSH2 0x1872 JUMP JUMPDEST POP DUP1 PUSH1 0xD SLOAD AND CALLER EQ ISZERO PUSH2 0x1837 JUMP JUMPDEST CALLVALUE PUSH2 0x208 JUMPI PUSH1 0x20 CALLDATASIZE PUSH1 0x3 NOT ADD SLT PUSH2 0x208 JUMPI PUSH1 0x1 PUSH1 0x1 PUSH1 0xA0 SHL SUB PUSH2 0x1AF6 PUSH2 0x1C8F JUMP JUMPDEST AND PUSH1 0x0 MSTORE PUSH1 0xA PUSH1 0x20 MSTORE PUSH1 0xE0 PUSH1 0x40 PUSH1 0x0 KECCAK256 DUP1 SLOAD SWAP1 PUSH1 0x1 DUP2 ADD SLOAD SWAP1 PUSH1 0x2 DUP2 ADD SLOAD PUSH1 0x3 DUP3 ADD SLOAD PUSH1 0x4 DUP4 ADD SLOAD SWAP2 PUSH1 0xFF PUSH1 0x6 PUSH1 0x5 DUP7 ADD SLOAD SWAP6 ADD SLOAD AND SWAP5 PUSH1 0x40 MLOAD SWAP7 DUP8 MSTORE PUSH1 0x20 DUP8 ADD MSTORE PUSH1 0x40 DUP7 ADD MSTORE PUSH1 0x60 DUP6 ADD MSTORE PUSH1 0x80 DUP5 ADD MSTORE PUSH1 0xA0 DUP4 ADD MSTORE ISZERO ISZERO PUSH1 0xC0 DUP3 ADD MSTORE RETURN JUMPDEST CALLVALUE PUSH2 0x208 JUMPI PUSH1 0x20 CALLDATASIZE PUSH1 0x3 NOT ADD SLT PUSH2 0x208 JUMPI PUSH1 0x1 PUSH1 0x1 PUSH1 0xA0 SHL SUB PUSH2 0x1B76 PUSH2 0x1C8F JUMP JUMPDEST AND PUSH1 0x0 MSTORE PUSH1 0xA PUSH1 0x20 MSTORE PUSH1 0x20 PUSH2 0x5CF PUSH1 0x40 PUSH1 0x0 KECCAK256 PUSH1 0x1 DUP2 SLOAD SWAP2 ADD SLOAD SWAP1 PUSH2 0x1F76 JUMP JUMPDEST CALLVALUE PUSH2 0x208 JUMPI PUSH1 0x20 CALLDATASIZE PUSH1 0x3 NOT ADD SLT PUSH2 0x208 JUMPI PUSH1 0x4 CALLDATALOAD PUSH2 0x1BB2 PUSH2 0x1E36 JUMP JUMPDEST PUSH2 0x1F4 DUP2 GT PUSH2 0x1BC0 JUMPI PUSH1 0x2 SSTORE STOP JUMPDEST PUSH1 0x40 MLOAD PUSH3 0x461BCD PUSH1 0xE5 SHL DUP2 MSTORE PUSH1 0x20 PUSH1 0x4 DUP3 ADD MSTORE PUSH1 0xC PUSH1 0x24 DUP3 ADD MSTORE PUSH12 0x8CCACA40E8DEDE40D0D2CED PUSH1 0xA3 SHL PUSH1 0x44 DUP3 ADD MSTORE PUSH1 0x64 SWAP1 REVERT JUMPDEST CALLVALUE PUSH2 0x208 JUMPI PUSH1 0x0 CALLDATASIZE PUSH1 0x3 NOT ADD SLT PUSH2 0x208 JUMPI PUSH1 0x20 PUSH1 0x40 MLOAD PUSH2 0x4E20 DUP2 MSTORE RETURN JUMPDEST CALLVALUE PUSH2 0x208 JUMPI PUSH1 0x0 CALLDATASIZE PUSH1 0x3 NOT ADD SLT PUSH2 0x208 JUMPI PUSH1 0x20 PUSH1 0x6 SLOAD PUSH1 0x40 MLOAD SWAP1 DUP2 MSTORE RETURN JUMPDEST CALLVALUE PUSH2 0x208 JUMPI PUSH1 0x20 CALLDATASIZE PUSH1 0x3 NOT ADD SLT PUSH2 0x208 JUMPI PUSH1 0x4 CALLDATALOAD PUSH2 0x1C4B PUSH2 0x1E36 JUMP JUMPDEST PUSH2 0x7D0 DUP2 GT PUSH2 0x1C59 JUMPI PUSH1 0x3 SSTORE STOP JUMPDEST PUSH1 0x40 MLOAD PUSH3 0x461BCD PUSH1 0xE5 SHL DUP2 MSTORE PUSH1 0x20 PUSH1 0x4 DUP3 ADD MSTORE PUSH1 0xE PUSH1 0x24 DUP3 ADD MSTORE PUSH14 0xA6E8C2D6CA40E8DEDE40D0D2CED PUSH1 0x93 SHL PUSH1 0x44 DUP3 ADD MSTORE PUSH1 0x64 SWAP1 REVERT JUMPDEST PUSH1 0x4 CALLDATALOAD SWAP1 PUSH1 0x1 PUSH1 0x1 PUSH1 0xA0 SHL SUB DUP3 AND DUP3 SUB PUSH2 0x208 JUMPI JUMP JUMPDEST SWAP1 PUSH1 0x1 DUP3 DUP2 SHR SWAP3 AND DUP1 ISZERO PUSH2 0x1CD5 JUMPI JUMPDEST PUSH1 0x20 DUP4 LT EQ PUSH2 0x1CBF JUMPI JUMP JUMPDEST PUSH4 0x4E487B71 PUSH1 0xE0 SHL PUSH1 0x0 MSTORE PUSH1 0x22 PUSH1 0x4 MSTORE PUSH1 0x24 PUSH1 0x0 REVERT JUMPDEST SWAP2 PUSH1 0x7F AND SWAP2 PUSH2 0x1CB4 JUMP JUMPDEST PUSH2 0x160 DUP2 ADD SWAP1 DUP2 LT PUSH8 0xFFFFFFFFFFFFFFFF DUP3 GT OR PUSH2 0xF67 JUMPI PUSH1 0x40 MSTORE JUMP JUMPDEST PUSH1 0xE0 DUP2 ADD SWAP1 DUP2 LT PUSH8 0xFFFFFFFFFFFFFFFF DUP3 GT OR PUSH2 0xF67 JUMPI PUSH1 0x40 MSTORE JUMP JUMPDEST PUSH1 0x40 DUP2 ADD SWAP1 DUP2 LT PUSH8 0xFFFFFFFFFFFFFFFF DUP3 GT OR PUSH2 0xF67 JUMPI PUSH1 0x40 MSTORE JUMP JUMPDEST SWAP1 PUSH1 0x40 MLOAD SWAP2 PUSH1 0x0 SWAP1 DUP1 SLOAD SWAP1 PUSH2 0x1D48 DUP3 PUSH2 0x1CA5 JUMP JUMPDEST SWAP1 DUP2 DUP7 MSTORE PUSH1 0x1 SWAP3 DUP4 DUP2 AND SWAP1 DUP2 PUSH1 0x0 EQ PUSH2 0x1DC8 JUMPI POP PUSH1 0x1 EQ PUSH2 0x1D8B JUMPI JUMPDEST POP POP POP DUP3 SWAP1 SUB PUSH1 0x1F ADD PUSH1 0x1F NOT AND DUP3 ADD PUSH8 0xFFFFFFFFFFFFFFFF DUP2 GT DUP4 DUP3 LT OR PUSH2 0xF67 JUMPI PUSH1 0x40 MSTORE JUMP JUMPDEST SWAP1 SWAP3 POP PUSH1 0x0 MSTORE PUSH1 0x20 SWAP2 DUP3 PUSH1 0x0 KECCAK256 SWAP2 DUP4 PUSH1 0x0 SWAP4 JUMPDEST DUP4 DUP6 LT PUSH2 0x1DB4 JUMPI POP POP POP POP DUP4 ADD ADD CODESIZE DUP1 DUP1 PUSH2 0x1D64 JUMP JUMPDEST DUP1 SLOAD DUP9 DUP7 ADD DUP4 ADD MSTORE SWAP4 ADD SWAP3 DUP5 SWAP1 DUP3 ADD PUSH2 0x1D9E JUMP JUMPDEST SWAP3 SWAP4 POP POP POP PUSH1 0x20 SWAP3 POP PUSH1 0xFF NOT AND DUP3 DUP6 ADD MSTORE ISZERO ISZERO PUSH1 0x5 SHL DUP4 ADD ADD CODESIZE DUP1 DUP1 PUSH2 0x1D64 JUMP JUMPDEST SWAP1 PUSH1 0x6 DUP3 LT ISZERO PUSH2 0x472 JUMPI MSTORE JUMP JUMPDEST SWAP2 SWAP1 DUP3 MLOAD SWAP3 DUP4 DUP3 MSTORE PUSH1 0x0 JUMPDEST DUP5 DUP2 LT PUSH2 0x1E22 JUMPI POP POP DUP3 PUSH1 0x0 PUSH1 0x20 DUP1 SWAP5 SWAP6 DUP5 ADD ADD MSTORE PUSH1 0x1F DUP1 NOT SWAP2 ADD AND ADD ADD SWAP1 JUMP JUMPDEST PUSH1 0x20 DUP2 DUP4 ADD DUP2 ADD MLOAD DUP5 DUP4 ADD DUP3 ADD MSTORE ADD PUSH2 0x1E01 JUMP JUMPDEST PUSH1 0x1 SLOAD PUSH1 0x1 PUSH1 0x1 PUSH1 0xA0 SHL SUB AND CALLER SUB PUSH2 0x1E4A JUMPI JUMP JUMPDEST PUSH1 0x40 MLOAD PUSH4 0x118CDAA7 PUSH1 0xE0 SHL DUP2 MSTORE CALLER PUSH1 0x4 DUP3 ADD MSTORE PUSH1 0x24 SWAP1 REVERT JUMPDEST SWAP2 SWAP1 DUP3 ADD DUP1 SWAP3 GT PUSH2 0x817 JUMPI JUMP JUMPDEST PUSH1 0x40 MLOAD PUSH4 0x23B872DD PUSH1 0xE0 SHL PUSH1 0x20 DUP3 ADD MSTORE PUSH1 0x1 PUSH1 0x1 PUSH1 0xA0 SHL SUB SWAP3 DUP4 AND PUSH1 0x24 DUP3 ADD MSTORE SWAP3 SWAP1 SWAP2 AND PUSH1 0x44 DUP4 ADD MSTORE PUSH1 0x64 DUP1 DUP4 ADD SWAP4 SWAP1 SWAP4 MSTORE SWAP2 DUP2 MSTORE PUSH1 0xA0 DUP2 ADD SWAP2 DUP2 DUP4 LT PUSH8 0xFFFFFFFFFFFFFFFF DUP5 GT OR PUSH2 0xF67 JUMPI PUSH2 0x1EC8 SWAP3 PUSH1 0x40 MSTORE PUSH2 0x1ECA JUMP JUMPDEST JUMP JUMPDEST SWAP1 PUSH1 0x0 PUSH1 0x20 SWAP2 DUP3 DUP2 MLOAD SWAP2 ADD DUP3 DUP6 GAS CALL ISZERO PUSH2 0x1F26 JUMPI PUSH1 0x0 MLOAD RETURNDATASIZE PUSH2 0x1F1D JUMPI POP PUSH1 0x1 PUSH1 0x1 PUSH1 0xA0 SHL SUB DUP2 AND EXTCODESIZE ISZERO JUMPDEST PUSH2 0x1EFB JUMPI POP JUMP JUMPDEST PUSH1 0x40 MLOAD PUSH4 0x5274AFE7 PUSH1 0xE0 SHL DUP2 MSTORE PUSH1 0x1 PUSH1 0x1 PUSH1 0xA0 SHL SUB SWAP1 SWAP2 AND PUSH1 0x4 DUP3 ADD MSTORE PUSH1 0x24 SWAP1 REVERT JUMPDEST PUSH1 0x1 EQ ISZERO PUSH2 0x1EF4 JUMP JUMPDEST PUSH1 0x40 MLOAD RETURNDATASIZE PUSH1 0x0 DUP3 RETURNDATACOPY RETURNDATASIZE SWAP1 REVERT JUMPDEST PUSH1 0xFF PUSH1 0x1 SLOAD PUSH1 0xA0 SHR AND PUSH2 0x1F41 JUMPI JUMP JUMPDEST PUSH1 0x40 MLOAD PUSH4 0xD93C0665 PUSH1 0xE0 SHL DUP2 MSTORE PUSH1 0x4 SWAP1 REVERT JUMPDEST PUSH1 0x2 PUSH1 0x0 SLOAD EQ PUSH2 0x1F64 JUMPI PUSH1 0x2 PUSH1 0x0 SSTORE JUMP JUMPDEST PUSH1 0x40 MLOAD PUSH4 0x3EE5AEB5 PUSH1 0xE0 SHL DUP2 MSTORE PUSH1 0x4 SWAP1 REVERT JUMPDEST SWAP2 SWAP1 DUP3 SUB SWAP2 DUP3 GT PUSH2 0x817 JUMPI JUMP JUMPDEST PUSH1 0x40 MLOAD PUSH4 0xA9059CBB PUSH1 0xE0 SHL PUSH1 0x20 DUP3 ADD MSTORE PUSH1 0x1 PUSH1 0x1 PUSH1 0xA0 SHL SUB SWAP1 SWAP3 AND PUSH1 0x24 DUP4 ADD MSTORE PUSH1 0x44 DUP1 DUP4 ADD SWAP4 SWAP1 SWAP4 MSTORE SWAP2 DUP2 MSTORE PUSH1 0x80 DUP2 ADD SWAP2 PUSH8 0xFFFFFFFFFFFFFFFF DUP4 GT DUP3 DUP5 LT OR PUSH2 0xF67 JUMPI PUSH2 0x1EC8 SWAP3 PUSH1 0x40 MSTORE PUSH2 0x1ECA JUMP JUMPDEST DUP2 DUP2 MUL SWAP3 SWAP2 DUP2 ISZERO SWAP2 DUP5 DIV EQ OR ISZERO PUSH2 0x817 JUMPI JUMP JUMPDEST SWAP2 PUSH2 0x2000 SWAP3 PUSH1 0xFF PUSH2 0x204F SWAP4 PUSH2 0x2710 SWAP6 DUP7 SWAP2 PUSH1 0x3 SLOAD SWAP1 PUSH2 0x1FD3 JUMP JUMPDEST DIV SWAP3 AND PUSH1 0x14 DUP2 LT ISZERO PUSH2 0x206E JUMPI POP PUSH2 0xFFFF PUSH1 0xE SLOAD AND JUMPDEST PUSH1 0x64 SWAP2 PUSH1 0x1 DUP1 PUSH1 0xA0 SHL SUB AND PUSH1 0x0 MSTORE PUSH1 0xA PUSH1 0x20 MSTORE PUSH1 0x4 PUSH1 0x40 PUSH1 0x0 KECCAK256 ADD SLOAD PUSH1 0x32 DUP2 GT PUSH1 0x0 EQ PUSH2 0x2053 JUMPI POP PUSH2 0x204A SWAP2 POP PUSH1 0x50 SWAP3 PUSH2 0x1FD3 JUMP JUMPDEST PUSH2 0x1FD3 JUMP JUMPDEST DIV SWAP1 JUMP JUMPDEST PUSH1 0x14 LT PUSH2 0x2065 JUMPI JUMPDEST PUSH2 0x204A SWAP2 SWAP3 PUSH2 0x1FD3 JUMP JUMPDEST PUSH1 0x5A SWAP2 POP PUSH2 0x205B JUMP JUMPDEST PUSH1 0x28 DUP2 LT ISZERO PUSH2 0x2087 JUMPI POP PUSH2 0xFFFF PUSH1 0xE SLOAD PUSH1 0x10 SHR AND PUSH2 0x2015 JUMP JUMPDEST PUSH1 0x3C GT ISZERO PUSH2 0x209E JUMPI PUSH2 0xFFFF PUSH1 0xE SLOAD PUSH1 0x20 SHR AND PUSH2 0x2015 JUMP JUMPDEST PUSH2 0xFFFF PUSH1 0xE SLOAD PUSH1 0x30 SHR AND PUSH2 0x2015 JUMP JUMPDEST SWAP1 PUSH1 0x1F DUP2 GT PUSH2 0x20BB JUMPI POP POP POP JUMP JUMPDEST PUSH1 0x0 SWAP2 DUP3 MSTORE PUSH1 0x20 DUP3 KECCAK256 SWAP1 PUSH1 0x20 PUSH1 0x1F DUP6 ADD PUSH1 0x5 SHR DUP4 ADD SWAP5 LT PUSH2 0x20F7 JUMPI JUMPDEST PUSH1 0x1F ADD PUSH1 0x5 SHR ADD SWAP2 JUMPDEST DUP3 DUP2 LT PUSH2 0x20EC JUMPI POP POP POP JUMP JUMPDEST DUP2 DUP2 SSTORE PUSH1 0x1 ADD PUSH2 0x20E0 JUMP JUMPDEST SWAP1 SWAP3 POP DUP3 SWAP1 PUSH2 0x20D7 JUMP INVALID LOG2 PUSH5 0x6970667358 0x22 SLT KECCAK256 0xC9 SLOAD PUSH18 0x48B37975AA18C3AA4CFB2295352E9CA61015 0xE5 PUSH7 0x51462C8E9F8543 0xE0 ADDRESS PUSH5 0x736F6C6343 STOP ADDMOD EQ STOP CALLER "},"methodIdentifiers":{"SLASH_DISPUTE_LOST()":"4a2d59e4","SLASH_FAKE_PROOF()":"ced51e06","SLASH_LATE_RELEASE()":"3440f25d","SLASH_ORDER_TIMEOUT()":"55e14620","SLASH_PAYMENT_REVERSAL()":"0e0964c1","arbitrator()":"6cc6cde1","baseStakeBps()":"f7085604","calculateRequiredStake(address,uint256,uint8)":"d539beae","createEscrow(bytes32,uint256,address,uint256,uint8)":"99a48992","dailyVolume()":"98c8877e","depositStake(uint256)":"cb82cc8f","disputeDAO()":"f1c2d0d9","disputeTimeout()":"c04c22a4","escrows(bytes32)":"2d83549c","getAvailableStake(address)":"14f6b190","getEscrow(bytes32)":"f023b811","getStakeProfile(address)":"e6d0ef28","lastVolumeReset()":"e5bd9fa1","maxDailyVolume()":"07df2f18","owner()":"8da5cb5b","pause()":"8456cb59","paused()":"5c975abb","paymentMethodRisk(uint8)":"5c3f1c75","platformFeeBps()":"22dcd13e","raiseDispute(bytes32,string)":"be7b8a77","rateLimitSeconds()":"3bb8705e","refundEscrow(bytes32)":"47aed508","releaseEscrow(bytes32)":"bf89fc61","renounceOwnership()":"715018a6","resolveDispute(bytes32,bool,bool)":"18a459c9","riskMultipliers()":"27f352cb","setArbitrator(address)":"b0eefabe","setBaseStake(uint256)":"06ae5851","setDisputeDAO(address)":"75e8eca8","setMaxDailyVolume(uint256)":"5c3f2f4a","setPlatformFee(uint256)":"12e8e2c3","stakes(address)":"16934fc4","submitPaymentProof(bytes32,bytes32)":"4af2f421","transferOwnership(address)":"f2fde38b","unpause()":"3f4ba83a","usdc()":"3e413bee","withdrawStake(uint256)":"25d5971f"}}}}}