{"contracts/DisputeDAO.sol":{"DisputeDAO":{"abi":[{"inputs":[{"internalType":"address","name":"_usdc","type":"address"},{"internalType":"address","name":"_escrowContract","type":"address"}],"stateMutability":"nonpayable","type":"constructor"},{"inputs":[],"name":"AlreadyVoted","type":"error"},{"inputs":[],"name":"DisputeNotFound","type":"error"},{"inputs":[],"name":"InsufficientArbitrators","type":"error"},{"inputs":[],"name":"InsufficientStake","type":"error"},{"inputs":[],"name":"InvalidStatus","type":"error"},{"inputs":[],"name":"NotArbitrator","type":"error"},{"inputs":[],"name":"NotAuthorized","type":"error"},{"inputs":[{"internalType":"address","name":"owner","type":"address"}],"name":"OwnableInvalidOwner","type":"error"},{"inputs":[{"internalType":"address","name":"account","type":"address"}],"name":"OwnableUnauthorizedAccount","type":"error"},{"inputs":[],"name":"ReentrancyGuardReentrantCall","type":"error"},{"inputs":[{"internalType":"address","name":"token","type":"address"}],"name":"SafeERC20FailedOperation","type":"error"},{"inputs":[],"name":"VotingClosed","type":"error"},{"inputs":[],"name":"VotingNotClosed","type":"error"},{"anonymous":false,"inputs":[{"indexed":true,"internalType":"address","name":"arbitrator","type":"address"},{"indexed":false,"internalType":"uint256","name":"accuracyDropBps","type":"uint256"}],"name":"ArbitratorPenalized","type":"event"},{"anonymous":false,"inputs":[{"indexed":true,"internalType":"address","name":"arbitrator","type":"address"},{"indexed":false,"internalType":"uint256","name":"stake","type":"uint256"}],"name":"ArbitratorRegistered","type":"event"},{"anonymous":false,"inputs":[{"indexed":true,"internalType":"address","name":"arbitrator","type":"address"}],"name":"ArbitratorRemoved","type":"event"},{"anonymous":false,"inputs":[{"indexed":true,"internalType":"address","name":"arbitrator","type":"address"},{"indexed":false,"internalType":"uint256","name":"amount","type":"uint256"}],"name":"ArbitratorRewarded","type":"event"},{"anonymous":false,"inputs":[{"indexed":true,"internalType":"uint256","name":"disputeId","type":"uint256"},{"indexed":false,"internalType":"address[3]","name":"arbitrators","type":"address[3]"}],"name":"ArbitratorsSelected","type":"event"},{"anonymous":false,"inputs":[{"indexed":true,"internalType":"uint256","name":"disputeId","type":"uint256"},{"indexed":true,"internalType":"bytes32","name":"escrowOrderId","type":"bytes32"},{"indexed":false,"internalType":"enum DisputeDAO.DisputeTier","name":"tier","type":"uint8"}],"name":"DisputeCreated","type":"event"},{"anonymous":false,"inputs":[{"indexed":true,"internalType":"uint256","name":"disputeId","type":"uint256"},{"indexed":false,"internalType":"enum DisputeDAO.DisputeTier","name":"newTier","type":"uint8"}],"name":"DisputeEscalated","type":"event"},{"anonymous":false,"inputs":[{"indexed":true,"internalType":"uint256","name":"disputeId","type":"uint256"},{"indexed":false,"internalType":"bool","name":"buyerWins","type":"bool"}],"name":"DisputeResolved","type":"event"},{"anonymous":false,"inputs":[{"indexed":true,"internalType":"address","name":"previousOwner","type":"address"},{"indexed":true,"internalType":"address","name":"newOwner","type":"address"}],"name":"OwnershipTransferred","type":"event"},{"anonymous":false,"inputs":[{"indexed":true,"internalType":"uint256","name":"disputeId","type":"uint256"},{"indexed":true,"internalType":"address","name":"arbitrator","type":"address"},{"indexed":false,"internalType":"bool","name":"favorBuyer","type":"bool"}],"name":"VoteCast","type":"event"},{"inputs":[{"internalType":"uint256","name":"amount","type":"uint256"}],"name":"addArbitratorStake","outputs":[],"stateMutability":"nonpayable","type":"function"},{"inputs":[{"internalType":"uint256","name":"disputeId","type":"uint256"},{"internalType":"bool","name":"favorBuyer","type":"bool"}],"name":"adminResolve","outputs":[],"stateMutability":"nonpayable","type":"function"},{"inputs":[{"internalType":"uint256","name":"","type":"uint256"}],"name":"arbitratorList","outputs":[{"internalType":"address","name":"","type":"address"}],"stateMutability":"view","type":"function"},{"inputs":[],"name":"arbitratorRewardBps","outputs":[{"internalType":"uint256","name":"","type":"uint256"}],"stateMutability":"view","type":"function"},{"inputs":[{"internalType":"address","name":"","type":"address"}],"name":"arbitrators","outputs":[{"internalType":"uint256","name":"stake","type":"uint256"},{"internalType":"uint256","name":"disputesResolved","type":"uint256"},{"internalType":"uint256","name":"correctVotes","type":"uint256"},{"internalType":"uint256","name":"totalVotes","type":"uint256"},{"internalType":"uint256","name":"totalEarned","type":"uint256"},{"internalType":"bool","name":"isActive","type":"bool"},{"internalType":"uint256","name":"registeredAt","type":"uint256"}],"stateMutability":"view","type":"function"},{"inputs":[{"internalType":"bytes32","name":"escrowOrderId","type":"bytes32"},{"internalType":"address","name":"buyer","type":"address"},{"internalType":"address","name":"seller","type":"address"},{"internalType":"uint256","name":"amount","type":"uint256"},{"internalType":"string","name":"reason","type":"string"},{"internalType":"enum DisputeDAO.DisputeTier","name":"tier","type":"uint8"}],"name":"createDispute","outputs":[{"internalType":"uint256","name":"","type":"uint256"}],"stateMutability":"nonpayable","type":"function"},{"inputs":[],"name":"disputeCount","outputs":[{"internalType":"uint256","name":"","type":"uint256"}],"stateMutability":"view","type":"function"},{"inputs":[{"internalType":"uint256","name":"","type":"uint256"},{"internalType":"address","name":"","type":"address"}],"name":"disputeVotes","outputs":[{"internalType":"bool","name":"hasVoted","type":"bool"},{"internalType":"bool","name":"favorBuyer","type":"bool"},{"internalType":"string","name":"reasoning","type":"string"},{"internalType":"uint256","name":"votedAt","type":"uint256"}],"stateMutability":"view","type":"function"},{"inputs":[{"internalType":"uint256","name":"","type":"uint256"}],"name":"disputes","outputs":[{"internalType":"bytes32","name":"escrowOrderId","type":"bytes32"},{"internalType":"address","name":"buyer","type":"address"},{"internalType":"address","name":"seller","type":"address"},{"internalType":"uint256","name":"amount","type":"uint256"},{"internalType":"enum DisputeDAO.DisputeTier","name":"tier","type":"uint8"},{"internalType":"enum DisputeDAO.DisputeStatus","name":"status","type":"uint8"},{"internalType":"string","name":"reason","type":"string"},{"internalType":"bytes32","name":"buyerEvidence","type":"bytes32"},{"internalType":"bytes32","name":"sellerEvidence","type":"bytes32"},{"internalType":"uint256","name":"votesForBuyer","type":"uint256"},{"internalType":"uint256","name":"votesForSeller","type":"uint256"},{"internalType":"bool","name":"finalDecision","type":"bool"},{"internalType":"uint256","name":"createdAt","type":"uint256"},{"internalType":"uint256","name":"votingDeadline","type":"uint256"},{"internalType":"uint256","name":"resolvedAt","type":"uint256"}],"stateMutability":"view","type":"function"},{"inputs":[],"name":"escrowContract","outputs":[{"internalType":"address","name":"","type":"address"}],"stateMutability":"view","type":"function"},{"inputs":[{"internalType":"uint256","name":"disputeId","type":"uint256"}],"name":"forceResolve","outputs":[],"stateMutability":"nonpayable","type":"function"},{"inputs":[],"name":"getActiveArbitratorCount","outputs":[{"internalType":"uint256","name":"","type":"uint256"}],"stateMutability":"view","type":"function"},{"inputs":[{"internalType":"address","name":"arb","type":"address"}],"name":"getArbitrator","outputs":[{"components":[{"internalType":"uint256","name":"stake","type":"uint256"},{"internalType":"uint256","name":"disputesResolved","type":"uint256"},{"internalType":"uint256","name":"correctVotes","type":"uint256"},{"internalType":"uint256","name":"totalVotes","type":"uint256"},{"internalType":"uint256","name":"totalEarned","type":"uint256"},{"internalType":"bool","name":"isActive","type":"bool"},{"internalType":"uint256","name":"registeredAt","type":"uint256"}],"internalType":"struct DisputeDAO.Arbitrator","name":"","type":"tuple"}],"stateMutability":"view","type":"function"},{"inputs":[{"internalType":"address","name":"arb","type":"address"}],"name":"getArbitratorAccuracy","outputs":[{"internalType":"uint256","name":"","type":"uint256"}],"stateMutability":"view","type":"function"},{"inputs":[{"internalType":"uint256","name":"disputeId","type":"uint256"}],"name":"getDispute","outputs":[{"components":[{"internalType":"bytes32","name":"escrowOrderId","type":"bytes32"},{"internalType":"address","name":"buyer","type":"address"},{"internalType":"address","name":"seller","type":"address"},{"internalType":"uint256","name":"amount","type":"uint256"},{"internalType":"enum DisputeDAO.DisputeTier","name":"tier","type":"uint8"},{"internalType":"enum DisputeDAO.DisputeStatus","name":"status","type":"uint8"},{"internalType":"string","name":"reason","type":"string"},{"internalType":"bytes32","name":"buyerEvidence","type":"bytes32"},{"internalType":"bytes32","name":"sellerEvidence","type":"bytes32"},{"internalType":"address[3]","name":"selectedArbitrators","type":"address[3]"},{"internalType":"uint256","name":"votesForBuyer","type":"uint256"},{"internalType":"uint256","name":"votesForSeller","type":"uint256"},{"internalType":"bool","name":"finalDecision","type":"bool"},{"internalType":"uint256","name":"createdAt","type":"uint256"},{"internalType":"uint256","name":"votingDeadline","type":"uint256"},{"internalType":"uint256","name":"resolvedAt","type":"uint256"}],"internalType":"struct DisputeDAO.Dispute","name":"","type":"tuple"}],"stateMutability":"view","type":"function"},{"inputs":[{"internalType":"uint256","name":"disputeId","type":"uint256"},{"internalType":"address","name":"arb","type":"address"}],"name":"getVote","outputs":[{"components":[{"internalType":"bool","name":"hasVoted","type":"bool"},{"internalType":"bool","name":"favorBuyer","type":"bool"},{"internalType":"string","name":"reasoning","type":"string"},{"internalType":"uint256","name":"votedAt","type":"uint256"}],"internalType":"struct DisputeDAO.Vote","name":"","type":"tuple"}],"stateMutability":"view","type":"function"},{"inputs":[],"name":"maxDisputeRateBps","outputs":[{"internalType":"uint256","name":"","type":"uint256"}],"stateMutability":"view","type":"function"},{"inputs":[],"name":"minArbitratorStake","outputs":[{"internalType":"uint256","name":"","type":"uint256"}],"stateMutability":"view","type":"function"},{"inputs":[],"name":"minArbitratorTrades","outputs":[{"internalType":"uint256","name":"","type":"uint256"}],"stateMutability":"view","type":"function"},{"inputs":[],"name":"owner","outputs":[{"internalType":"address","name":"","type":"address"}],"stateMutability":"view","type":"function"},{"inputs":[{"internalType":"uint256","name":"stakeAmount","type":"uint256"}],"name":"registerArbitrator","outputs":[],"stateMutability":"nonpayable","type":"function"},{"inputs":[],"name":"renounceOwnership","outputs":[],"stateMutability":"nonpayable","type":"function"},{"inputs":[{"internalType":"address","name":"_escrow","type":"address"}],"name":"setEscrowContract","outputs":[],"stateMutability":"nonpayable","type":"function"},{"inputs":[{"internalType":"uint256","name":"_stake","type":"uint256"}],"name":"setMinArbitratorStake","outputs":[],"stateMutability":"nonpayable","type":"function"},{"inputs":[{"internalType":"uint256","name":"_period","type":"uint256"}],"name":"setVotingPeriod","outputs":[],"stateMutability":"nonpayable","type":"function"},{"inputs":[{"internalType":"uint256","name":"disputeId","type":"uint256"}],"name":"startVoting","outputs":[],"stateMutability":"nonpayable","type":"function"},{"inputs":[{"internalType":"uint256","name":"disputeId","type":"uint256"},{"internalType":"bytes32","name":"evidenceHash","type":"bytes32"}],"name":"submitEvidence","outputs":[],"stateMutability":"nonpayable","type":"function"},{"inputs":[{"internalType":"address","name":"newOwner","type":"address"}],"name":"transferOwnership","outputs":[],"stateMutability":"nonpayable","type":"function"},{"inputs":[],"name":"usdc","outputs":[{"internalType":"contract IERC20","name":"","type":"address"}],"stateMutability":"view","type":"function"},{"inputs":[{"internalType":"uint256","name":"disputeId","type":"uint256"},{"internalType":"bool","name":"favorBuyer","type":"bool"},{"internalType":"string","name":"reasoning","type":"string"}],"name":"voteOnDispute","outputs":[],"stateMutability":"nonpayable","type":"function"},{"inputs":[],"name":"votesRequired","outputs":[{"internalType":"uint256","name":"","type":"uint256"}],"stateMutability":"view","type":"function"},{"inputs":[],"name":"votingPeriod","outputs":[{"internalType":"uint256","name":"","type":"uint256"}],"stateMutability":"view","type":"function"},{"inputs":[],"name":"withdrawArbitratorStake","outputs":[],"stateMutability":"nonpayable","type":"function"}],"evm":{"bytecode":{"linkReferences":{},"object":"60a0346200013257601f620025e838819003918201601f19168301916001600160401b038311848410176200013757808492604094855283398101031262000132576200005a602062000052836200014d565b92016200014d565b60016000553315620001195760018054336001600160a01b031980831682179093556040519492936001600160a01b0393909284929083167f8be0079c531659141344cd1fd0a4f28419497f9722a3daafe3b4186f6b6457e0600080a3631dcd6500600355603260045560c860055560326006556138406007556003600855166080521690600254161760025561248590816200016382396080518181816102c201528181610dfe01528181610fe0015281816111d501526122a30152f35b604051631e4fbdf760e01b815260006004820152602490fd5b600080fd5b634e487b7160e01b600052604160045260246000fd5b51906001600160a01b0382168203620001325756fe6080604052600436101561001257600080fd5b60003560e01c806301b77adf146115165780630290c915146114eb57806302a251a3146114cd57806308f52894146114ac5780630c2891b71461148e57806315f22be414611470578063203d82cb146113e657806335a0b30814611367578063388b0c02146112755780633d2f5bda146112045780633e413bee146111bf57806351d0ea371461113f578063564a565d14611031578063642b0e5014610f95578063715018a614610f385780637d3d58b714610db8578063806b023614610d9a57806382c7316e14610d7c5780638da5cb5b14610d53578063912da4db14610cb9578063a23ae20314610c77578063a28889e114610c59578063a34803ad14610b8f578063ae7c18df14610ab7578063b64d194b14610a99578063bc3f931f146109bb578063e3a96cbd146106e4578063e42a96e7146106bb578063e88b9d6414610308578063e9d8b2df1461027e578063ea0217cf1461025d578063f2fde38b146101cf5763f42375b51461018757600080fd5b346101ca5760203660031901126101ca576101a0611beb565b6101a8611e6d565b600280546001600160a01b0319166001600160a01b0392909216919091179055005b600080fd5b346101ca5760203660031901126101ca576101e8611beb565b6101f0611e6d565b6001600160a01b0390811690811561024457600154826bffffffffffffffffffffffff60a01b821617600155167f8be0079c531659141344cd1fd0a4f28419497f9722a3daafe3b4186f6b6457e0600080a3005b604051631e4fbdf760e01b815260006004820152602490fd5b346101ca5760203660031901126101ca57610276611e6d565b600435600755005b346101ca5760203660031901126101ca5760043561029a611f43565b33600052600960205260406000209060ff600583015416156102f657806102e66102ed9230337f0000000000000000000000000000000000000000000000000000000000000000611e99565b8254611f9f565b90556001600055005b60405163667f86ef60e01b8152600490fd5b346101ca5760603660031901126101ca57600435610324611e5e565b906001600160401b03906044358281116101ca57610346903690600401611c01565b61034e611f43565b82600052602094600a865260406000209260ff600485015460081c1660058110156106a55760020361069357600f8401544211610681576000858152600a88526040902060088101546001600160a01b03908116331491908215610671575b821561065f575b5050156102f65784600052600b8752604060002033600052875260ff6040600020541661064d57604051906103e882611c9f565b60019687835261040389840192851515968785523691611fe2565b9060408401918252606084019242845288600052600b8b526040600020336000528b52610444604060002095511515869060ff801983541691151516179055565b51151561ff0085549160081b169061ff00191617845588840191518051918211610637576104728354611c2e565b8b601f82116105fb575b50508a90601f83116001146105685793899a9b949383807fe71fcdac32df1877c1700e7bda2a03157e20993363a28fc35ac495cefc76e4d498958f6002966105299f9c9960009461055d575b50501b916000199060031b1c19161790555b519101551561054857600b85016104f18154611fac565b90555b3360005260098152600360406000200161050e8154611fac565b90556040519384523393a3600c600b82015491015490611f9f565b6008541115610539575b50600055005b6105429061212e565b81610533565b600c85016105568154611fac565b90556104f4565b0151925038806104c8565b90601f19831691846000528c6000209260005b8181106105e657509b84600294829f98948e9f946105299f9c9995987fe71fcdac32df1877c1700e7bda2a03157e20993363a28fc35ac495cefc76e4d49c99106105cd575b505050811b0190556104da565b015160001960f88460031b161c191690558f80806105c0565b828401518555938d0193928e01928e0161057b565b61062691856000528160002090601f860160051c820192861061062d575b601f0160051c0190612019565b8b8b61047c565b9091508190610619565b634e487b7160e01b600052604160045260246000fd5b604051637c9a1cf960e01b8152600490fd5b909150600a33920154161488806103b4565b60098201548116331492506103ad565b60405163335b65a560e11b8152600490fd5b6040516307a92f1960e51b8152600490fd5b634e487b7160e01b600052602160045260246000fd5b346101ca5760003660031901126101ca576002546040516001600160a01b039091168152602090f35b346101ca5760203660031901126101ca5760006101e060405161070681611c68565b8281528260208201528260408201528260608201528260808201528260a0820152606060c08201528260e08201528261010082015260405161074781611cba565b6060368237610120820152826101408201528261016082015282610180820152826101a0820152826101c08201520152600435600052600a60205260406000206040519061079482611c68565b8054825260018101546001600160a01b03908116602084015260028201541660408301526003810154606083015260048101546107d760ff821660808501611fbb565b600560ff8260081c1610156106a55760081c60ff1660a08301526107fd60058201611d11565b60c0830152600681015460e08301526007810154610100830152604051600882016000825b6003821061099b57856010868661083881611cba565b610120840152600b810154610140840152600c81015461016084015260ff600d820154161515610180840152600e8101546101a0840152600f8101546101c084015201546101e0820152604051602081528151602082015260018060a01b03602083015116604082015260018060a01b036040830151166060820152606082015160808201526108d0608083015160a0830190611df7565b6108e260a083015160c0830190611e04565b6108fd60c083015161024060e0840152610260830190611db7565b60e083015161010083015261010083015161012083015261012083015161014083016000905b6003821061097b575050506101e083610140849501516101a08501526101608101516101c08501526101808101511515828501526101a08101516102008501526101c081015161022085015201516102408301520390f35b82516001600160a01b031681526020928301926001929092019101610923565b82546001600160a01b031681526001928301929190910190602001610822565b346101ca5760403660031901126101ca576109d4611bd5565b604051906109e182611c9f565b600082526000606060209382858201528160408201520152600435600052600b825260406000209060018060a01b03166000528152604060002060405190610a2882611c9f565b610a8e81549160ff83161515845260ff8585019360081c16151583526002610a5260018301611d11565b916040860192835201549260608501938452604051958695818752511515908601525115156040850152516080606085015260a0840190611db7565b905160808301520390f35b346101ca5760003660031901126101ca576020600654604051908152f35b346101ca5760403660031901126101ca57600435610ad3611e5e565b610adb611e6d565b81600052600a6020526040600020906004820190815460ff8160081c1660058110156106a557600414159081610b77575b506106935782602092610b4f83600d7f5a87909bff68caaaaf0b3fd9c74eeccc928832f879315e5c6fb7a73612f26c0c97019060ff801983541691151516179055565b61030061ff0019825416179055601042910155610b6c8185612330565b6040519015158152a2005b60ff91501660038110156106a5576002141585610b0c565b346101ca5760203660031901126101ca5760043580600052600a602052604060002060ff600482015460081c1660058110156106a55760020361069357600f810154421115610c475780600c600b610bec93015491015490611f9f565b15610bfc57610bfa9061212e565b005b80600052600a602052600460406000200161040261ffff198254161790557f73def29f6de637ad3f548d1039ab2b80b13d75bb78e9f8cf12b6fe7acc05343d602060405160028152a2005b604051637ae1d57760e01b8152600490fd5b346101ca5760003660031901126101ca576020600c54604051908152f35b346101ca5760203660031901126101ca57600435600d548110156101ca57610ca0602091611e11565b905460405160039290921b1c6001600160a01b03168152f35b346101ca5760403660031901126101ca57602435600435600052600a602052604060002060ff600482015460081c1660058110156106a55760018114159081610d47575b506106935760018101546001600160a01b03903390821603610d20575060060155005b6002820154163314600014610d355760070155005b60405163ea8e4eb560e01b8152600490fd5b60029150141583610cfd565b346101ca5760003660031901126101ca576001546040516001600160a01b039091168152602090f35b346101ca5760003660031901126101ca576020600354604051908152f35b346101ca5760003660031901126101ca576020600454604051908152f35b346101ca5760203660031901126101ca57600435610dd4611f43565b6003548110610f265733600052600960205260ff60056040600020015416610d3557610e228130337f0000000000000000000000000000000000000000000000000000000000000000611e99565b604051610e2e81611c84565b81815260066020820160008152610eaa6040840160008152606085016000815260808601906000825260a08701926001845260c0880195428752336000526009602052604060002098518955516001890155516002880155516003870155516004860155511515600585019060ff801983541691151516179055565b51910155600d546801000000000000000081101561063757610ed5816001610ef39301600d55611e11565b81546001600160a01b0360039290921b91821b19163390911b179055565b6040519081527f8964d147132eb34950084efda449f1e07fcaa2b53f7c3ffa82b5ddb1f084044660203392a26001600055005b6040516378de4a6960e11b8152600490fd5b346101ca5760003660031901126101ca57610f51611e6d565b600180546001600160a01b031981169091556000906001600160a01b03167f8be0079c531659141344cd1fd0a4f28419497f9722a3daafe3b4186f6b6457e08280a3005b346101ca5760003660031901126101ca57610fae611f43565b3360005260096020526040600020600581019081549160ff8316156102f6576110049260008354935560ff19169055337f0000000000000000000000000000000000000000000000000000000000000000611f66565b337f715484adb5bc9cc29af577725dbf8486d0b82eca3ba79f65846e92ff38ef32b5600080a26001600055005b346101ca5760203660031901126101ca57600435600052600a60205260406000208054600160a01b600190039182600182015416926002820154166003820154916004810154926005820161108590611d11565b936006830154946007840154600b85015490600c86015492600d87015460ff1694600e88015496600f8901549860100154996040519d8e809e81526020015260408d015260608c015260808b0160ff8216906110e091611df7565b60a08b019060081c60ff16906110f591611e04565b6101e08060c08c01528a0161110991611db7565b9760e08a015261010089015261012088015261014087015215156101608601526101808501526101a08401526101c08301520390f35b346101ca5760203660031901126101ca576001600160a01b03611160611beb565b16600052600960205260e0604060002080549060018101549060028101546003820154600483015491600660ff600586015416940154946040519687526020870152604086015260608501526080840152151560a083015260c0820152f35b346101ca5760003660031901126101ca576040517f00000000000000000000000000000000000000000000000000000000000000006001600160a01b03168152602090f35b346101ca5760203660031901126101ca57600435600052600a602052604060002060048101805460ff8160081c1660058110156106a5576001036106935760ff811660038110156106a557600103610693576102009061ff001916179055600f61127060075442611f9f565b910155005b346101ca5760203660031901126101ca5761128e611beb565b600060c060405161129e81611c84565b8281528260208201528260408201528260608201528260808201528260a0820152015260018060a01b0316600052600960205260e060406000206040516112e481611c84565b815491828252600181015460208301908152600282015460408401908152600383015490606085019182526004840154926080860193845260c0600660ff6005880154169660a0890197151588520154960195865260405196875251602087015251604086015251606085015251608084015251151560a08301525160c0820152f35b346101ca5760003660031901126101ca57600080600d54905b81811061139257602083604051908152f35b61139b81611e11565b60018060a01b0391549060031b1c16600052600960205260ff600560406000200154166113d1575b6113cc90611fac565b611380565b916113de6113cc91611fac565b9290506113c3565b346101ca5760403660031901126101ca576113ff611bd5565b600435600052600b60205260406000209060018060a01b031660005260205260ff6040600020805490611466600261143960018401611d11565b920154916040519484818796161515865260081c1615156020850152608060408501526080840190611db7565b9060608301520390f35b346101ca5760003660031901126101ca576020600554604051908152f35b346101ca5760003660031901126101ca576020600854604051908152f35b346101ca5760203660031901126101ca576114c5611e6d565b600435600355005b346101ca5760003660031901126101ca576020600754604051908152f35b346101ca5760203660031901126101ca57602061150e611509611beb565b612402565b604051908152f35b346101ca5760c03660031901126101ca5761152f611bd5565b6044356001600160a01b03811681036101ca576084356001600160401b0381116101ca57611561903690600401611c01565b9091600360a43510156101ca57611576611f43565b6002546001600160a01b031633141580611bc2575b80611baf575b610d35576115a0600c54611fac565b9283600c556040519260608401928484106001600160401b038511176106375761162693604052600085526000602086015260006040860152604051966115e688611c68565b60043588526001600160a01b039081166020890152166040870152606435606087015261161860a43560808801611fbb565b600160a08701523691611fe2565b60c0840152600060e08401526000610100840152610120830152600061014083015260006101608301526000610180830152426101a083015260006101c083015260006101e083015280600052600a6020526040600020825181556001810160018060a01b03602085015116906bffffffffffffffffffffffff60a01b9182825416179055600282019060018060a01b036040860151169082541617905560608301516003820155608083015160038110156106a557600482015460a085015160058110156106a55761ff0060ff9160081b1692169061ffff19161717600482015560c08301519283516001600160401b0381116106375761172b6005840154611c2e565b601f8111611b7a575b506020601f8211600114611b0b578192939495600092611b00575b50508160011b916000199060031b1c19161760058301555b60e08101516006830155610100810151600783015561012081015160005b60038110611ae05750506101e0816101406010930151600b850155610160810151600c8501556117cb6101808201511515600d86019060ff801983541691151516179055565b6101a0810151600e8501556101c0810151600f85015501519101556040516117f58160a435611df7565b817f79e0c6dd611bb98ea4b6cede51ce737ec01cf85ad6ba167a85ff09b2da645f6a602060043593a3600160a43514611839575b6020906001600055604051908152f35b6000818152600a6020526040812060018101546002820154600d54939493916001600160a01b039182169116855b838110611a93575061187886612054565b956118866040519788611cf0565b808752611895601f1991612054565b0136602088013760009160005b848110611a3f5750505050506003835110611a2d57916040516020810190428252446040820152836060820152606081526118dc81611c9f565b51902090600860009401935b600381106119565750505060405191826000905b6003821061193657505050807f81cda40e49d0323c0130d0850cc66291282a092a52124d11922e1ade0709ccae6060602094a29050611829565b82546001600160a01b0316815260019283019291909101906020016118fc565b8060031b81810460081482151715611a01578251908115611a175784901c06906119b66001600160a01b0361198b8486612030565b51166119978389612044565b90919082549060031b9160018060a01b03809116831b921b1916179055565b82516000198082019391808511611a015783900301928311611a01576119fc926119f6906001600160a01b03906119ed9087612030565b51169185612030565b52611fac565b6118e8565b634e487b7160e01b600052601160045260246000fd5b634e487b7160e01b600052601260045260246000fd5b60405163b5bd121f60e01b8152600490fd5b611a4881611e11565b905460039190911b1c6001600160a01b0316611a65838583612075565b611a79575b50611a7490611fac565b6118a2565b84611a8c916119f6611a7494978c612030565b9390611a6a565b611ab88383611aa184611e11565b905460039190911b1c6001600160a01b0316612075565b611acb575b611ac690611fac565b611867565b95611ad8611ac691611fac565b969050611abd565b81516001600160a01b031660088286010155602090910190600101611785565b01519050858061174f565b6005840160005260206000209060005b601f1984168110611b62575060019394959683601f19811610611b49575b505050811b016005830155611767565b015160001960f88460031b161c19169055858080611b39565b9091602060018192858b015181550193019101611b1b565b611ba990600585016000526020600020601f840160051c8101916020851061062d57601f0160051c0190612019565b85611734565b50336001600160a01b0382161415611591565b50336001600160a01b038516141561158b565b602435906001600160a01b03821682036101ca57565b600435906001600160a01b03821682036101ca57565b9181601f840112156101ca578235916001600160401b0383116101ca57602083818601950101116101ca57565b90600182811c92168015611c5e575b6020831014611c4857565b634e487b7160e01b600052602260045260246000fd5b91607f1691611c3d565b61020081019081106001600160401b0382111761063757604052565b60e081019081106001600160401b0382111761063757604052565b608081019081106001600160401b0382111761063757604052565b606081019081106001600160401b0382111761063757604052565b60a081019081106001600160401b0382111761063757604052565b90601f801991011681019081106001600160401b0382111761063757604052565b9060405191826000825492611d2584611c2e565b908184526001948581169081600014611d945750600114611d51575b5050611d4f92500383611cf0565b565b9093915060005260209081600020936000915b818310611d7c575050611d4f93508201013880611d41565b85548884018501529485019487945091830191611d64565b915050611d4f94506020925060ff191682840152151560051b8201013880611d41565b919082519283825260005b848110611de3575050826000602080949584010152601f8019910116010190565b602081830181015184830182015201611dc2565b9060038210156106a55752565b9060058210156106a55752565b600d54811015611e4857600d6000527fd7b6990105719101dabeb77144f2a3385c8033acd3af97e9423a695e81ad1eb50190600090565b634e487b7160e01b600052603260045260246000fd5b6024359081151582036101ca57565b6001546001600160a01b03163303611e8157565b60405163118cdaa760e01b8152336004820152602490fd5b6040516323b872dd60e01b60208201526001600160a01b039283166024820152929091166044830152606480830193909352918152611d4f91611edb82611cd5565b906000602091828151910182855af115611f37576000513d611f2e57506001600160a01b0381163b155b611f0c5750565b604051635274afe760e01b81526001600160a01b039091166004820152602490fd5b60011415611f05565b6040513d6000823e3d90fd5b600260005414611f54576002600055565b604051633ee5aeb560e01b8152600490fd5b60405163a9059cbb60e01b60208201526001600160a01b039092166024830152604480830193909352918152611d4f91611edb82611c9f565b91908201809211611a0157565b6000198114611a015760010190565b60038210156106a55752565b6001600160401b03811161063757601f01601f191660200190565b929192611fee82611fc7565b91611ffc6040519384611cf0565b8294818452818301116101ca578281602093846000960137010152565b818110612024575050565b60008155600101612019565b8051821015611e485760209160051b010190565b6003821015611e48570190600090565b6001600160401b0381116106375760051b60200190565b8115611a17570490565b9160018060a01b038093166000938185526009602052604085209360ff6005860154161561212657845460035411612126578116821492831561211a575b50505061211657600381015490816120ce575b505050600190565b600201546127109081810291818304149015171561210257611388916120f39161206b565b106120ff5780806120c6565b90565b634e487b7160e01b83526011600452602483fd5b5090565b161490503880806120b3565b505050505090565b906000918083526020600a815260409384812090600b9182810154600c820154109261216984600d84019060ff801983541691151516179055565b600480830161030061ff0019825416179055426010840155600393848401546006549081810291818304149015171561231d57612710869104049281956008809601965b8181106121f15750505050505050508293946121ea827f5a87909bff68caaaaf0b3fd9c74eeccc928832f879315e5c6fb7a73612f26c0c95612330565b51908152a2565b808b8a8f8d906122046122d1968e612044565b905490881b1c6001600160a01b0316938415612313578952878252808920848a52825289818a20938d60ff9081875416156123065760098652848d20966001880161224f8154611fac565b905554901c161515036122d6578360027fa6c6250ec856e9379df1665d0d76a9d2dfe284b7a11a7a6b78f73c4c78cd4644950161228c8154611fac565b90550161229a8c8254611f9f565b90556122c78b857f0000000000000000000000000000000000000000000000000000000000000000611f66565b518a8152a2611fac565b6121ad565b507fee8ca2a91b27ea933813d98404446b6a2639794841525e611ba2932ee38c5fe39250516101f48152a2611fac565b5050505050505050611fac565b5050505050611fac565b506011602492634e487b7160e01b835252fd5b6000809281928252600a60205260408220908260018060a01b03600254169254916040519060208201936318a459c960e01b85526024830152156044820152600160648201526064815261238381611cd5565b51925af1903d156123fc573d9061239982611fc7565b916123a76040519384611cf0565b825260203d92013e5b156123b757565b60405162461bcd60e51b815260206004820152601b60248201527f5265736f6c7574696f6e20657865637574696f6e206661696c656400000000006044820152606490fd5b506123b0565b6001600160a01b03166000908152600960205260409020600381015490811561244757600201549061271091828102928184041490151715611a01576120ff9161206b565b50506127109056fea2646970667358221220ce0a29dfd9a7020dae19402a16eb28fe3e23725d11f9013431ee699eb84049f364736f6c63430008140033","opcodes":"PUSH1 0xA0 CALLVALUE PUSH3 0x132 JUMPI PUSH1 0x1F PUSH3 0x25E8 CODESIZE DUP2 SWAP1 SUB SWAP2 DUP3 ADD PUSH1 0x1F NOT AND DUP4 ADD SWAP2 PUSH1 0x1 PUSH1 0x1 PUSH1 0x40 SHL SUB DUP4 GT DUP5 DUP5 LT OR PUSH3 0x137 JUMPI DUP1 DUP5 SWAP3 PUSH1 0x40 SWAP5 DUP6 MSTORE DUP4 CODECOPY DUP2 ADD SUB SLT PUSH3 0x132 JUMPI PUSH3 0x5A PUSH1 0x20 PUSH3 0x52 DUP4 PUSH3 0x14D JUMP JUMPDEST SWAP3 ADD PUSH3 0x14D JUMP JUMPDEST PUSH1 0x1 PUSH1 0x0 SSTORE CALLER ISZERO PUSH3 0x119 JUMPI PUSH1 0x1 DUP1 SLOAD CALLER PUSH1 0x1 PUSH1 0x1 PUSH1 0xA0 SHL SUB NOT DUP1 DUP4 AND DUP3 OR SWAP1 SWAP4 SSTORE PUSH1 0x40 MLOAD SWAP5 SWAP3 SWAP4 PUSH1 0x1 PUSH1 0x1 PUSH1 0xA0 SHL SUB SWAP4 SWAP1 SWAP3 DUP5 SWAP3 SWAP1 DUP4 AND PUSH32 0x8BE0079C531659141344CD1FD0A4F28419497F9722A3DAAFE3B4186F6B6457E0 PUSH1 0x0 DUP1 LOG3 PUSH4 0x1DCD6500 PUSH1 0x3 SSTORE PUSH1 0x32 PUSH1 0x4 SSTORE PUSH1 0xC8 PUSH1 0x5 SSTORE PUSH1 0x32 PUSH1 0x6 SSTORE PUSH2 0x3840 PUSH1 0x7 SSTORE PUSH1 0x3 PUSH1 0x8 SSTORE AND PUSH1 0x80 MSTORE AND SWAP1 PUSH1 0x2 SLOAD AND OR PUSH1 0x2 SSTORE PUSH2 0x2485 SWAP1 DUP2 PUSH3 0x163 DUP3 CODECOPY PUSH1 0x80 MLOAD DUP2 DUP2 DUP2 PUSH2 0x2C2 ADD MSTORE DUP2 DUP2 PUSH2 0xDFE ADD MSTORE DUP2 DUP2 PUSH2 0xFE0 ADD MSTORE DUP2 DUP2 PUSH2 0x11D5 ADD MSTORE PUSH2 0x22A3 ADD MSTORE RETURN JUMPDEST PUSH1 0x40 MLOAD PUSH4 0x1E4FBDF7 PUSH1 0xE0 SHL DUP2 MSTORE PUSH1 0x0 PUSH1 0x4 DUP3 ADD MSTORE PUSH1 0x24 SWAP1 REVERT JUMPDEST PUSH1 0x0 DUP1 REVERT JUMPDEST PUSH4 0x4E487B71 PUSH1 0xE0 SHL PUSH1 0x0 MSTORE PUSH1 0x41 PUSH1 0x4 MSTORE PUSH1 0x24 PUSH1 0x0 REVERT JUMPDEST MLOAD SWAP1 PUSH1 0x1 PUSH1 0x1 PUSH1 0xA0 SHL SUB DUP3 AND DUP3 SUB PUSH3 0x132 JUMPI JUMP INVALID PUSH1 0x80 PUSH1 0x40 MSTORE PUSH1 0x4 CALLDATASIZE LT ISZERO PUSH2 0x12 JUMPI PUSH1 0x0 DUP1 REVERT JUMPDEST PUSH1 0x0 CALLDATALOAD PUSH1 0xE0 SHR DUP1 PUSH4 0x1B77ADF EQ PUSH2 0x1516 JUMPI DUP1 PUSH4 0x290C915 EQ PUSH2 0x14EB JUMPI DUP1 PUSH4 0x2A251A3 EQ PUSH2 0x14CD JUMPI DUP1 PUSH4 0x8F52894 EQ PUSH2 0x14AC JUMPI DUP1 PUSH4 0xC2891B7 EQ PUSH2 0x148E JUMPI DUP1 PUSH4 0x15F22BE4 EQ PUSH2 0x1470 JUMPI DUP1 PUSH4 0x203D82CB EQ PUSH2 0x13E6 JUMPI DUP1 PUSH4 0x35A0B308 EQ PUSH2 0x1367 JUMPI DUP1 PUSH4 0x388B0C02 EQ PUSH2 0x1275 JUMPI DUP1 PUSH4 0x3D2F5BDA EQ PUSH2 0x1204 JUMPI DUP1 PUSH4 0x3E413BEE EQ PUSH2 0x11BF JUMPI DUP1 PUSH4 0x51D0EA37 EQ PUSH2 0x113F JUMPI DUP1 PUSH4 0x564A565D EQ PUSH2 0x1031 JUMPI DUP1 PUSH4 0x642B0E50 EQ PUSH2 0xF95 JUMPI DUP1 PUSH4 0x715018A6 EQ PUSH2 0xF38 JUMPI DUP1 PUSH4 0x7D3D58B7 EQ PUSH2 0xDB8 JUMPI DUP1 PUSH4 0x806B0236 EQ PUSH2 0xD9A JUMPI DUP1 PUSH4 0x82C7316E EQ PUSH2 0xD7C JUMPI DUP1 PUSH4 0x8DA5CB5B EQ PUSH2 0xD53 JUMPI DUP1 PUSH4 0x912DA4DB EQ PUSH2 0xCB9 JUMPI DUP1 PUSH4 0xA23AE203 EQ PUSH2 0xC77 JUMPI DUP1 PUSH4 0xA28889E1 EQ PUSH2 0xC59 JUMPI DUP1 PUSH4 0xA34803AD EQ PUSH2 0xB8F JUMPI DUP1 PUSH4 0xAE7C18DF EQ PUSH2 0xAB7 JUMPI DUP1 PUSH4 0xB64D194B EQ PUSH2 0xA99 JUMPI DUP1 PUSH4 0xBC3F931F EQ PUSH2 0x9BB JUMPI DUP1 PUSH4 0xE3A96CBD EQ PUSH2 0x6E4 JUMPI DUP1 PUSH4 0xE42A96E7 EQ PUSH2 0x6BB JUMPI DUP1 PUSH4 0xE88B9D64 EQ PUSH2 0x308 JUMPI DUP1 PUSH4 0xE9D8B2DF EQ PUSH2 0x27E JUMPI DUP1 PUSH4 0xEA0217CF EQ PUSH2 0x25D JUMPI DUP1 PUSH4 0xF2FDE38B EQ PUSH2 0x1CF JUMPI PUSH4 0xF42375B5 EQ PUSH2 0x187 JUMPI PUSH1 0x0 DUP1 REVERT JUMPDEST CALLVALUE PUSH2 0x1CA JUMPI PUSH1 0x20 CALLDATASIZE PUSH1 0x3 NOT ADD SLT PUSH2 0x1CA JUMPI PUSH2 0x1A0 PUSH2 0x1BEB JUMP JUMPDEST PUSH2 0x1A8 PUSH2 0x1E6D JUMP JUMPDEST PUSH1 0x2 DUP1 SLOAD PUSH1 0x1 PUSH1 0x1 PUSH1 0xA0 SHL SUB NOT AND PUSH1 0x1 PUSH1 0x1 PUSH1 0xA0 SHL SUB SWAP3 SWAP1 SWAP3 AND SWAP2 SWAP1 SWAP2 OR SWAP1 SSTORE STOP JUMPDEST PUSH1 0x0 DUP1 REVERT JUMPDEST CALLVALUE PUSH2 0x1CA JUMPI PUSH1 0x20 CALLDATASIZE PUSH1 0x3 NOT ADD SLT PUSH2 0x1CA JUMPI PUSH2 0x1E8 PUSH2 0x1BEB JUMP JUMPDEST PUSH2 0x1F0 PUSH2 0x1E6D JUMP JUMPDEST PUSH1 0x1 PUSH1 0x1 PUSH1 0xA0 SHL SUB SWAP1 DUP2 AND SWAP1 DUP2 ISZERO PUSH2 0x244 JUMPI PUSH1 0x1 SLOAD DUP3 PUSH12 0xFFFFFFFFFFFFFFFFFFFFFFFF PUSH1 0xA0 SHL DUP3 AND OR PUSH1 0x1 SSTORE AND PUSH32 0x8BE0079C531659141344CD1FD0A4F28419497F9722A3DAAFE3B4186F6B6457E0 PUSH1 0x0 DUP1 LOG3 STOP JUMPDEST PUSH1 0x40 MLOAD PUSH4 0x1E4FBDF7 PUSH1 0xE0 SHL DUP2 MSTORE PUSH1 0x0 PUSH1 0x4 DUP3 ADD MSTORE PUSH1 0x24 SWAP1 REVERT JUMPDEST CALLVALUE PUSH2 0x1CA JUMPI PUSH1 0x20 CALLDATASIZE PUSH1 0x3 NOT ADD SLT PUSH2 0x1CA JUMPI PUSH2 0x276 PUSH2 0x1E6D JUMP JUMPDEST PUSH1 0x4 CALLDATALOAD PUSH1 0x7 SSTORE STOP JUMPDEST CALLVALUE PUSH2 0x1CA JUMPI PUSH1 0x20 CALLDATASIZE PUSH1 0x3 NOT ADD SLT PUSH2 0x1CA JUMPI PUSH1 0x4 CALLDATALOAD PUSH2 0x29A PUSH2 0x1F43 JUMP JUMPDEST CALLER PUSH1 0x0 MSTORE PUSH1 0x9 PUSH1 0x20 MSTORE PUSH1 0x40 PUSH1 0x0 KECCAK256 SWAP1 PUSH1 0xFF PUSH1 0x5 DUP4 ADD SLOAD AND ISZERO PUSH2 0x2F6 JUMPI DUP1 PUSH2 0x2E6 PUSH2 0x2ED SWAP3 ADDRESS CALLER PUSH32 0x0 PUSH2 0x1E99 JUMP JUMPDEST DUP3 SLOAD PUSH2 0x1F9F JUMP JUMPDEST SWAP1 SSTORE PUSH1 0x1 PUSH1 0x0 SSTORE STOP JUMPDEST PUSH1 0x40 MLOAD PUSH4 0x667F86EF PUSH1 0xE0 SHL DUP2 MSTORE PUSH1 0x4 SWAP1 REVERT JUMPDEST CALLVALUE PUSH2 0x1CA JUMPI PUSH1 0x60 CALLDATASIZE PUSH1 0x3 NOT ADD SLT PUSH2 0x1CA JUMPI PUSH1 0x4 CALLDATALOAD PUSH2 0x324 PUSH2 0x1E5E JUMP JUMPDEST SWAP1 PUSH1 0x1 PUSH1 0x1 PUSH1 0x40 SHL SUB SWAP1 PUSH1 0x44 CALLDATALOAD DUP3 DUP2 GT PUSH2 0x1CA JUMPI PUSH2 0x346 SWAP1 CALLDATASIZE SWAP1 PUSH1 0x4 ADD PUSH2 0x1C01 JUMP JUMPDEST PUSH2 0x34E PUSH2 0x1F43 JUMP JUMPDEST DUP3 PUSH1 0x0 MSTORE PUSH1 0x20 SWAP5 PUSH1 0xA DUP7 MSTORE PUSH1 0x40 PUSH1 0x0 KECCAK256 SWAP3 PUSH1 0xFF PUSH1 0x4 DUP6 ADD SLOAD PUSH1 0x8 SHR AND PUSH1 0x5 DUP2 LT ISZERO PUSH2 0x6A5 JUMPI PUSH1 0x2 SUB PUSH2 0x693 JUMPI PUSH1 0xF DUP5 ADD SLOAD TIMESTAMP GT PUSH2 0x681 JUMPI PUSH1 0x0 DUP6 DUP2 MSTORE PUSH1 0xA DUP9 MSTORE PUSH1 0x40 SWAP1 KECCAK256 PUSH1 0x8 DUP2 ADD SLOAD PUSH1 0x1 PUSH1 0x1 PUSH1 0xA0 SHL SUB SWAP1 DUP2 AND CALLER EQ SWAP2 SWAP1 DUP3 ISZERO PUSH2 0x671 JUMPI JUMPDEST DUP3 ISZERO PUSH2 0x65F JUMPI JUMPDEST POP POP ISZERO PUSH2 0x2F6 JUMPI DUP5 PUSH1 0x0 MSTORE PUSH1 0xB DUP8 MSTORE PUSH1 0x40 PUSH1 0x0 KECCAK256 CALLER PUSH1 0x0 MSTORE DUP8 MSTORE PUSH1 0xFF PUSH1 0x40 PUSH1 0x0 KECCAK256 SLOAD AND PUSH2 0x64D JUMPI PUSH1 0x40 MLOAD SWAP1 PUSH2 0x3E8 DUP3 PUSH2 0x1C9F JUMP JUMPDEST PUSH1 0x1 SWAP7 DUP8 DUP4 MSTORE PUSH2 0x403 DUP10 DUP5 ADD SWAP3 DUP6 ISZERO ISZERO SWAP7 DUP8 DUP6 MSTORE CALLDATASIZE SWAP2 PUSH2 0x1FE2 JUMP JUMPDEST SWAP1 PUSH1 0x40 DUP5 ADD SWAP2 DUP3 MSTORE PUSH1 0x60 DUP5 ADD SWAP3 TIMESTAMP DUP5 MSTORE DUP9 PUSH1 0x0 MSTORE PUSH1 0xB DUP12 MSTORE PUSH1 0x40 PUSH1 0x0 KECCAK256 CALLER PUSH1 0x0 MSTORE DUP12 MSTORE PUSH2 0x444 PUSH1 0x40 PUSH1 0x0 KECCAK256 SWAP6 MLOAD ISZERO ISZERO DUP7 SWAP1 PUSH1 0xFF DUP1 NOT DUP4 SLOAD AND SWAP2 ISZERO ISZERO AND OR SWAP1 SSTORE JUMP JUMPDEST MLOAD ISZERO ISZERO PUSH2 0xFF00 DUP6 SLOAD SWAP2 PUSH1 0x8 SHL AND SWAP1 PUSH2 0xFF00 NOT AND OR DUP5 SSTORE DUP9 DUP5 ADD SWAP2 MLOAD DUP1 MLOAD SWAP2 DUP3 GT PUSH2 0x637 JUMPI PUSH2 0x472 DUP4 SLOAD PUSH2 0x1C2E JUMP JUMPDEST DUP12 PUSH1 0x1F DUP3 GT PUSH2 0x5FB JUMPI JUMPDEST POP POP DUP11 SWAP1 PUSH1 0x1F DUP4 GT PUSH1 0x1 EQ PUSH2 0x568 JUMPI SWAP4 DUP10 SWAP11 SWAP12 SWAP5 SWAP4 DUP4 DUP1 PUSH32 0xE71FCDAC32DF1877C1700E7BDA2A03157E20993363A28FC35AC495CEFC76E4D4 SWAP9 SWAP6 DUP16 PUSH1 0x2 SWAP7 PUSH2 0x529 SWAP16 SWAP13 SWAP10 PUSH1 0x0 SWAP5 PUSH2 0x55D JUMPI JUMPDEST POP POP SHL SWAP2 PUSH1 0x0 NOT SWAP1 PUSH1 0x3 SHL SHR NOT AND OR SWAP1 SSTORE JUMPDEST MLOAD SWAP2 ADD SSTORE ISZERO PUSH2 0x548 JUMPI PUSH1 0xB DUP6 ADD PUSH2 0x4F1 DUP2 SLOAD PUSH2 0x1FAC JUMP JUMPDEST SWAP1 SSTORE JUMPDEST CALLER PUSH1 0x0 MSTORE PUSH1 0x9 DUP2 MSTORE PUSH1 0x3 PUSH1 0x40 PUSH1 0x0 KECCAK256 ADD PUSH2 0x50E DUP2 SLOAD PUSH2 0x1FAC JUMP JUMPDEST SWAP1 SSTORE PUSH1 0x40 MLOAD SWAP4 DUP5 MSTORE CALLER SWAP4 LOG3 PUSH1 0xC PUSH1 0xB DUP3 ADD SLOAD SWAP2 ADD SLOAD SWAP1 PUSH2 0x1F9F JUMP JUMPDEST PUSH1 0x8 SLOAD GT ISZERO PUSH2 0x539 JUMPI JUMPDEST POP PUSH1 0x0 SSTORE STOP JUMPDEST PUSH2 0x542 SWAP1 PUSH2 0x212E JUMP JUMPDEST DUP2 PUSH2 0x533 JUMP JUMPDEST PUSH1 0xC DUP6 ADD PUSH2 0x556 DUP2 SLOAD PUSH2 0x1FAC JUMP JUMPDEST SWAP1 SSTORE PUSH2 0x4F4 JUMP JUMPDEST ADD MLOAD SWAP3 POP CODESIZE DUP1 PUSH2 0x4C8 JUMP JUMPDEST SWAP1 PUSH1 0x1F NOT DUP4 AND SWAP2 DUP5 PUSH1 0x0 MSTORE DUP13 PUSH1 0x0 KECCAK256 SWAP3 PUSH1 0x0 JUMPDEST DUP2 DUP2 LT PUSH2 0x5E6 JUMPI POP SWAP12 DUP5 PUSH1 0x2 SWAP5 DUP3 SWAP16 SWAP9 SWAP5 DUP15 SWAP16 SWAP5 PUSH2 0x529 SWAP16 SWAP13 SWAP10 SWAP6 SWAP9 PUSH32 0xE71FCDAC32DF1877C1700E7BDA2A03157E20993363A28FC35AC495CEFC76E4D4 SWAP13 SWAP10 LT PUSH2 0x5CD JUMPI JUMPDEST POP POP POP DUP2 SHL ADD SWAP1 SSTORE PUSH2 0x4DA JUMP JUMPDEST ADD MLOAD PUSH1 0x0 NOT PUSH1 0xF8 DUP5 PUSH1 0x3 SHL AND SHR NOT AND SWAP1 SSTORE DUP16 DUP1 DUP1 PUSH2 0x5C0 JUMP JUMPDEST DUP3 DUP5 ADD MLOAD DUP6 SSTORE SWAP4 DUP14 ADD SWAP4 SWAP3 DUP15 ADD SWAP3 DUP15 ADD PUSH2 0x57B JUMP JUMPDEST PUSH2 0x626 SWAP2 DUP6 PUSH1 0x0 MSTORE DUP2 PUSH1 0x0 KECCAK256 SWAP1 PUSH1 0x1F DUP7 ADD PUSH1 0x5 SHR DUP3 ADD SWAP3 DUP7 LT PUSH2 0x62D JUMPI JUMPDEST PUSH1 0x1F ADD PUSH1 0x5 SHR ADD SWAP1 PUSH2 0x2019 JUMP JUMPDEST DUP12 DUP12 PUSH2 0x47C JUMP JUMPDEST SWAP1 SWAP2 POP DUP2 SWAP1 PUSH2 0x619 JUMP JUMPDEST PUSH4 0x4E487B71 PUSH1 0xE0 SHL PUSH1 0x0 MSTORE PUSH1 0x41 PUSH1 0x4 MSTORE PUSH1 0x24 PUSH1 0x0 REVERT JUMPDEST PUSH1 0x40 MLOAD PUSH4 0x7C9A1CF9 PUSH1 0xE0 SHL DUP2 MSTORE PUSH1 0x4 SWAP1 REVERT JUMPDEST SWAP1 SWAP2 POP PUSH1 0xA CALLER SWAP3 ADD SLOAD AND EQ DUP9 DUP1 PUSH2 0x3B4 JUMP JUMPDEST PUSH1 0x9 DUP3 ADD SLOAD DUP2 AND CALLER EQ SWAP3 POP PUSH2 0x3AD JUMP JUMPDEST PUSH1 0x40 MLOAD PUSH4 0x335B65A5 PUSH1 0xE1 SHL DUP2 MSTORE PUSH1 0x4 SWAP1 REVERT JUMPDEST PUSH1 0x40 MLOAD PUSH4 0x7A92F19 PUSH1 0xE5 SHL DUP2 MSTORE PUSH1 0x4 SWAP1 REVERT JUMPDEST PUSH4 0x4E487B71 PUSH1 0xE0 SHL PUSH1 0x0 MSTORE PUSH1 0x21 PUSH1 0x4 MSTORE PUSH1 0x24 PUSH1 0x0 REVERT JUMPDEST CALLVALUE PUSH2 0x1CA JUMPI PUSH1 0x0 CALLDATASIZE PUSH1 0x3 NOT ADD SLT PUSH2 0x1CA JUMPI PUSH1 0x2 SLOAD PUSH1 0x40 MLOAD PUSH1 0x1 PUSH1 0x1 PUSH1 0xA0 SHL SUB SWAP1 SWAP2 AND DUP2 MSTORE PUSH1 0x20 SWAP1 RETURN JUMPDEST CALLVALUE PUSH2 0x1CA JUMPI PUSH1 0x20 CALLDATASIZE PUSH1 0x3 NOT ADD SLT PUSH2 0x1CA JUMPI PUSH1 0x0 PUSH2 0x1E0 PUSH1 0x40 MLOAD PUSH2 0x706 DUP2 PUSH2 0x1C68 JUMP JUMPDEST DUP3 DUP2 MSTORE DUP3 PUSH1 0x20 DUP3 ADD MSTORE DUP3 PUSH1 0x40 DUP3 ADD MSTORE DUP3 PUSH1 0x60 DUP3 ADD MSTORE DUP3 PUSH1 0x80 DUP3 ADD MSTORE DUP3 PUSH1 0xA0 DUP3 ADD MSTORE PUSH1 0x60 PUSH1 0xC0 DUP3 ADD MSTORE DUP3 PUSH1 0xE0 DUP3 ADD MSTORE DUP3 PUSH2 0x100 DUP3 ADD MSTORE PUSH1 0x40 MLOAD PUSH2 0x747 DUP2 PUSH2 0x1CBA JUMP JUMPDEST PUSH1 0x60 CALLDATASIZE DUP3 CALLDATACOPY PUSH2 0x120 DUP3 ADD MSTORE DUP3 PUSH2 0x140 DUP3 ADD MSTORE DUP3 PUSH2 0x160 DUP3 ADD MSTORE DUP3 PUSH2 0x180 DUP3 ADD MSTORE DUP3 PUSH2 0x1A0 DUP3 ADD MSTORE DUP3 PUSH2 0x1C0 DUP3 ADD MSTORE ADD MSTORE PUSH1 0x4 CALLDATALOAD PUSH1 0x0 MSTORE PUSH1 0xA PUSH1 0x20 MSTORE PUSH1 0x40 PUSH1 0x0 KECCAK256 PUSH1 0x40 MLOAD SWAP1 PUSH2 0x794 DUP3 PUSH2 0x1C68 JUMP JUMPDEST DUP1 SLOAD DUP3 MSTORE PUSH1 0x1 DUP2 ADD SLOAD PUSH1 0x1 PUSH1 0x1 PUSH1 0xA0 SHL SUB SWAP1 DUP2 AND PUSH1 0x20 DUP5 ADD MSTORE PUSH1 0x2 DUP3 ADD SLOAD AND PUSH1 0x40 DUP4 ADD MSTORE PUSH1 0x3 DUP2 ADD SLOAD PUSH1 0x60 DUP4 ADD MSTORE PUSH1 0x4 DUP2 ADD SLOAD PUSH2 0x7D7 PUSH1 0xFF DUP3 AND PUSH1 0x80 DUP6 ADD PUSH2 0x1FBB JUMP JUMPDEST PUSH1 0x5 PUSH1 0xFF DUP3 PUSH1 0x8 SHR AND LT ISZERO PUSH2 0x6A5 JUMPI PUSH1 0x8 SHR PUSH1 0xFF AND PUSH1 0xA0 DUP4 ADD MSTORE PUSH2 0x7FD PUSH1 0x5 DUP3 ADD PUSH2 0x1D11 JUMP JUMPDEST PUSH1 0xC0 DUP4 ADD MSTORE PUSH1 0x6 DUP2 ADD SLOAD PUSH1 0xE0 DUP4 ADD MSTORE PUSH1 0x7 DUP2 ADD SLOAD PUSH2 0x100 DUP4 ADD MSTORE PUSH1 0x40 MLOAD PUSH1 0x8 DUP3 ADD PUSH1 0x0 DUP3 JUMPDEST PUSH1 0x3 DUP3 LT PUSH2 0x99B JUMPI DUP6 PUSH1 0x10 DUP7 DUP7 PUSH2 0x838 DUP2 PUSH2 0x1CBA JUMP JUMPDEST PUSH2 0x120 DUP5 ADD MSTORE PUSH1 0xB DUP2 ADD SLOAD PUSH2 0x140 DUP5 ADD MSTORE PUSH1 0xC DUP2 ADD SLOAD PUSH2 0x160 DUP5 ADD MSTORE PUSH1 0xFF PUSH1 0xD DUP3 ADD SLOAD AND ISZERO ISZERO PUSH2 0x180 DUP5 ADD MSTORE PUSH1 0xE DUP2 ADD SLOAD PUSH2 0x1A0 DUP5 ADD MSTORE PUSH1 0xF DUP2 ADD SLOAD PUSH2 0x1C0 DUP5 ADD MSTORE ADD SLOAD PUSH2 0x1E0 DUP3 ADD MSTORE PUSH1 0x40 MLOAD PUSH1 0x20 DUP2 MSTORE DUP2 MLOAD PUSH1 0x20 DUP3 ADD MSTORE PUSH1 0x1 DUP1 PUSH1 0xA0 SHL SUB PUSH1 0x20 DUP4 ADD MLOAD AND PUSH1 0x40 DUP3 ADD MSTORE PUSH1 0x1 DUP1 PUSH1 0xA0 SHL SUB PUSH1 0x40 DUP4 ADD MLOAD AND PUSH1 0x60 DUP3 ADD MSTORE PUSH1 0x60 DUP3 ADD MLOAD PUSH1 0x80 DUP3 ADD MSTORE PUSH2 0x8D0 PUSH1 0x80 DUP4 ADD MLOAD PUSH1 0xA0 DUP4 ADD SWAP1 PUSH2 0x1DF7 JUMP JUMPDEST PUSH2 0x8E2 PUSH1 0xA0 DUP4 ADD MLOAD PUSH1 0xC0 DUP4 ADD SWAP1 PUSH2 0x1E04 JUMP JUMPDEST PUSH2 0x8FD PUSH1 0xC0 DUP4 ADD MLOAD PUSH2 0x240 PUSH1 0xE0 DUP5 ADD MSTORE PUSH2 0x260 DUP4 ADD SWAP1 PUSH2 0x1DB7 JUMP JUMPDEST PUSH1 0xE0 DUP4 ADD MLOAD PUSH2 0x100 DUP4 ADD MSTORE PUSH2 0x100 DUP4 ADD MLOAD PUSH2 0x120 DUP4 ADD MSTORE PUSH2 0x120 DUP4 ADD MLOAD PUSH2 0x140 DUP4 ADD PUSH1 0x0 SWAP1 JUMPDEST PUSH1 0x3 DUP3 LT PUSH2 0x97B JUMPI POP POP POP PUSH2 0x1E0 DUP4 PUSH2 0x140 DUP5 SWAP6 ADD MLOAD PUSH2 0x1A0 DUP6 ADD MSTORE PUSH2 0x160 DUP2 ADD MLOAD PUSH2 0x1C0 DUP6 ADD MSTORE PUSH2 0x180 DUP2 ADD MLOAD ISZERO ISZERO DUP3 DUP6 ADD MSTORE PUSH2 0x1A0 DUP2 ADD MLOAD PUSH2 0x200 DUP6 ADD MSTORE PUSH2 0x1C0 DUP2 ADD MLOAD PUSH2 0x220 DUP6 ADD MSTORE ADD MLOAD PUSH2 0x240 DUP4 ADD MSTORE SUB SWAP1 RETURN JUMPDEST DUP3 MLOAD PUSH1 0x1 PUSH1 0x1 PUSH1 0xA0 SHL SUB AND DUP2 MSTORE PUSH1 0x20 SWAP3 DUP4 ADD SWAP3 PUSH1 0x1 SWAP3 SWAP1 SWAP3 ADD SWAP2 ADD PUSH2 0x923 JUMP JUMPDEST DUP3 SLOAD PUSH1 0x1 PUSH1 0x1 PUSH1 0xA0 SHL SUB AND DUP2 MSTORE PUSH1 0x1 SWAP3 DUP4 ADD SWAP3 SWAP2 SWAP1 SWAP2 ADD SWAP1 PUSH1 0x20 ADD PUSH2 0x822 JUMP JUMPDEST CALLVALUE PUSH2 0x1CA JUMPI PUSH1 0x40 CALLDATASIZE PUSH1 0x3 NOT ADD SLT PUSH2 0x1CA JUMPI PUSH2 0x9D4 PUSH2 0x1BD5 JUMP JUMPDEST PUSH1 0x40 MLOAD SWAP1 PUSH2 0x9E1 DUP3 PUSH2 0x1C9F JUMP JUMPDEST PUSH1 0x0 DUP3 MSTORE PUSH1 0x0 PUSH1 0x60 PUSH1 0x20 SWAP4 DUP3 DUP6 DUP3 ADD MSTORE DUP2 PUSH1 0x40 DUP3 ADD MSTORE ADD MSTORE PUSH1 0x4 CALLDATALOAD PUSH1 0x0 MSTORE PUSH1 0xB DUP3 MSTORE PUSH1 0x40 PUSH1 0x0 KECCAK256 SWAP1 PUSH1 0x1 DUP1 PUSH1 0xA0 SHL SUB AND PUSH1 0x0 MSTORE DUP2 MSTORE PUSH1 0x40 PUSH1 0x0 KECCAK256 PUSH1 0x40 MLOAD SWAP1 PUSH2 0xA28 DUP3 PUSH2 0x1C9F JUMP JUMPDEST PUSH2 0xA8E DUP2 SLOAD SWAP2 PUSH1 0xFF DUP4 AND ISZERO ISZERO DUP5 MSTORE PUSH1 0xFF DUP6 DUP6 ADD SWAP4 PUSH1 0x8 SHR AND ISZERO ISZERO DUP4 MSTORE PUSH1 0x2 PUSH2 0xA52 PUSH1 0x1 DUP4 ADD PUSH2 0x1D11 JUMP JUMPDEST SWAP2 PUSH1 0x40 DUP7 ADD SWAP3 DUP4 MSTORE ADD SLOAD SWAP3 PUSH1 0x60 DUP6 ADD SWAP4 DUP5 MSTORE PUSH1 0x40 MLOAD SWAP6 DUP7 SWAP6 DUP2 DUP8 MSTORE MLOAD ISZERO ISZERO SWAP1 DUP7 ADD MSTORE MLOAD ISZERO ISZERO PUSH1 0x40 DUP6 ADD MSTORE MLOAD PUSH1 0x80 PUSH1 0x60 DUP6 ADD MSTORE PUSH1 0xA0 DUP5 ADD SWAP1 PUSH2 0x1DB7 JUMP JUMPDEST SWAP1 MLOAD PUSH1 0x80 DUP4 ADD MSTORE SUB SWAP1 RETURN JUMPDEST CALLVALUE PUSH2 0x1CA JUMPI PUSH1 0x0 CALLDATASIZE PUSH1 0x3 NOT ADD SLT PUSH2 0x1CA JUMPI PUSH1 0x20 PUSH1 0x6 SLOAD PUSH1 0x40 MLOAD SWAP1 DUP2 MSTORE RETURN JUMPDEST CALLVALUE PUSH2 0x1CA JUMPI PUSH1 0x40 CALLDATASIZE PUSH1 0x3 NOT ADD SLT PUSH2 0x1CA JUMPI PUSH1 0x4 CALLDATALOAD PUSH2 0xAD3 PUSH2 0x1E5E JUMP JUMPDEST PUSH2 0xADB PUSH2 0x1E6D JUMP JUMPDEST DUP2 PUSH1 0x0 MSTORE PUSH1 0xA PUSH1 0x20 MSTORE PUSH1 0x40 PUSH1 0x0 KECCAK256 SWAP1 PUSH1 0x4 DUP3 ADD SWAP1 DUP2 SLOAD PUSH1 0xFF DUP2 PUSH1 0x8 SHR AND PUSH1 0x5 DUP2 LT ISZERO PUSH2 0x6A5 JUMPI PUSH1 0x4 EQ ISZERO SWAP1 DUP2 PUSH2 0xB77 JUMPI JUMPDEST POP PUSH2 0x693 JUMPI DUP3 PUSH1 0x20 SWAP3 PUSH2 0xB4F DUP4 PUSH1 0xD PUSH32 0x5A87909BFF68CAAAAF0B3FD9C74EECCC928832F879315E5C6FB7A73612F26C0C SWAP8 ADD SWAP1 PUSH1 0xFF DUP1 NOT DUP4 SLOAD AND SWAP2 ISZERO ISZERO AND OR SWAP1 SSTORE JUMP JUMPDEST PUSH2 0x300 PUSH2 0xFF00 NOT DUP3 SLOAD AND OR SWAP1 SSTORE PUSH1 0x10 TIMESTAMP SWAP2 ADD SSTORE PUSH2 0xB6C DUP2 DUP6 PUSH2 0x2330 JUMP JUMPDEST PUSH1 0x40 MLOAD SWAP1 ISZERO ISZERO DUP2 MSTORE LOG2 STOP JUMPDEST PUSH1 0xFF SWAP2 POP AND PUSH1 0x3 DUP2 LT ISZERO PUSH2 0x6A5 JUMPI PUSH1 0x2 EQ ISZERO DUP6 PUSH2 0xB0C JUMP JUMPDEST CALLVALUE PUSH2 0x1CA JUMPI PUSH1 0x20 CALLDATASIZE PUSH1 0x3 NOT ADD SLT PUSH2 0x1CA JUMPI PUSH1 0x4 CALLDATALOAD DUP1 PUSH1 0x0 MSTORE PUSH1 0xA PUSH1 0x20 MSTORE PUSH1 0x40 PUSH1 0x0 KECCAK256 PUSH1 0xFF PUSH1 0x4 DUP3 ADD SLOAD PUSH1 0x8 SHR AND PUSH1 0x5 DUP2 LT ISZERO PUSH2 0x6A5 JUMPI PUSH1 0x2 SUB PUSH2 0x693 JUMPI PUSH1 0xF DUP2 ADD SLOAD TIMESTAMP GT ISZERO PUSH2 0xC47 JUMPI DUP1 PUSH1 0xC PUSH1 0xB PUSH2 0xBEC SWAP4 ADD SLOAD SWAP2 ADD SLOAD SWAP1 PUSH2 0x1F9F JUMP JUMPDEST ISZERO PUSH2 0xBFC JUMPI PUSH2 0xBFA SWAP1 PUSH2 0x212E JUMP JUMPDEST STOP JUMPDEST DUP1 PUSH1 0x0 MSTORE PUSH1 0xA PUSH1 0x20 MSTORE PUSH1 0x4 PUSH1 0x40 PUSH1 0x0 KECCAK256 ADD PUSH2 0x402 PUSH2 0xFFFF NOT DUP3 SLOAD AND OR SWAP1 SSTORE PUSH32 0x73DEF29F6DE637AD3F548D1039AB2B80B13D75BB78E9F8CF12B6FE7ACC05343D PUSH1 0x20 PUSH1 0x40 MLOAD PUSH1 0x2 DUP2 MSTORE LOG2 STOP JUMPDEST PUSH1 0x40 MLOAD PUSH4 0x7AE1D577 PUSH1 0xE0 SHL DUP2 MSTORE PUSH1 0x4 SWAP1 REVERT JUMPDEST CALLVALUE PUSH2 0x1CA JUMPI PUSH1 0x0 CALLDATASIZE PUSH1 0x3 NOT ADD SLT PUSH2 0x1CA JUMPI PUSH1 0x20 PUSH1 0xC SLOAD PUSH1 0x40 MLOAD SWAP1 DUP2 MSTORE RETURN JUMPDEST CALLVALUE PUSH2 0x1CA JUMPI PUSH1 0x20 CALLDATASIZE PUSH1 0x3 NOT ADD SLT PUSH2 0x1CA JUMPI PUSH1 0x4 CALLDATALOAD PUSH1 0xD SLOAD DUP2 LT ISZERO PUSH2 0x1CA JUMPI PUSH2 0xCA0 PUSH1 0x20 SWAP2 PUSH2 0x1E11 JUMP JUMPDEST SWAP1 SLOAD PUSH1 0x40 MLOAD PUSH1 0x3 SWAP3 SWAP1 SWAP3 SHL SHR PUSH1 0x1 PUSH1 0x1 PUSH1 0xA0 SHL SUB AND DUP2 MSTORE RETURN JUMPDEST CALLVALUE PUSH2 0x1CA JUMPI PUSH1 0x40 CALLDATASIZE PUSH1 0x3 NOT ADD SLT PUSH2 0x1CA JUMPI PUSH1 0x24 CALLDATALOAD PUSH1 0x4 CALLDATALOAD PUSH1 0x0 MSTORE PUSH1 0xA PUSH1 0x20 MSTORE PUSH1 0x40 PUSH1 0x0 KECCAK256 PUSH1 0xFF PUSH1 0x4 DUP3 ADD SLOAD PUSH1 0x8 SHR AND PUSH1 0x5 DUP2 LT ISZERO PUSH2 0x6A5 JUMPI PUSH1 0x1 DUP2 EQ ISZERO SWAP1 DUP2 PUSH2 0xD47 JUMPI JUMPDEST POP PUSH2 0x693 JUMPI PUSH1 0x1 DUP2 ADD SLOAD PUSH1 0x1 PUSH1 0x1 PUSH1 0xA0 SHL SUB SWAP1 CALLER SWAP1 DUP3 AND SUB PUSH2 0xD20 JUMPI POP PUSH1 0x6 ADD SSTORE STOP JUMPDEST PUSH1 0x2 DUP3 ADD SLOAD AND CALLER EQ PUSH1 0x0 EQ PUSH2 0xD35 JUMPI PUSH1 0x7 ADD SSTORE STOP JUMPDEST PUSH1 0x40 MLOAD PUSH4 0xEA8E4EB5 PUSH1 0xE0 SHL DUP2 MSTORE PUSH1 0x4 SWAP1 REVERT JUMPDEST PUSH1 0x2 SWAP2 POP EQ ISZERO DUP4 PUSH2 0xCFD JUMP JUMPDEST CALLVALUE PUSH2 0x1CA JUMPI PUSH1 0x0 CALLDATASIZE PUSH1 0x3 NOT ADD SLT PUSH2 0x1CA JUMPI PUSH1 0x1 SLOAD PUSH1 0x40 MLOAD PUSH1 0x1 PUSH1 0x1 PUSH1 0xA0 SHL SUB SWAP1 SWAP2 AND DUP2 MSTORE PUSH1 0x20 SWAP1 RETURN JUMPDEST CALLVALUE PUSH2 0x1CA JUMPI PUSH1 0x0 CALLDATASIZE PUSH1 0x3 NOT ADD SLT PUSH2 0x1CA JUMPI PUSH1 0x20 PUSH1 0x3 SLOAD PUSH1 0x40 MLOAD SWAP1 DUP2 MSTORE RETURN JUMPDEST CALLVALUE PUSH2 0x1CA JUMPI PUSH1 0x0 CALLDATASIZE PUSH1 0x3 NOT ADD SLT PUSH2 0x1CA JUMPI PUSH1 0x20 PUSH1 0x4 SLOAD PUSH1 0x40 MLOAD SWAP1 DUP2 MSTORE RETURN JUMPDEST CALLVALUE PUSH2 0x1CA JUMPI PUSH1 0x20 CALLDATASIZE PUSH1 0x3 NOT ADD SLT PUSH2 0x1CA JUMPI PUSH1 0x4 CALLDATALOAD PUSH2 0xDD4 PUSH2 0x1F43 JUMP JUMPDEST PUSH1 0x3 SLOAD DUP2 LT PUSH2 0xF26 JUMPI CALLER PUSH1 0x0 MSTORE PUSH1 0x9 PUSH1 0x20 MSTORE PUSH1 0xFF PUSH1 0x5 PUSH1 0x40 PUSH1 0x0 KECCAK256 ADD SLOAD AND PUSH2 0xD35 JUMPI PUSH2 0xE22 DUP2 ADDRESS CALLER PUSH32 0x0 PUSH2 0x1E99 JUMP JUMPDEST PUSH1 0x40 MLOAD PUSH2 0xE2E DUP2 PUSH2 0x1C84 JUMP JUMPDEST DUP2 DUP2 MSTORE PUSH1 0x6 PUSH1 0x20 DUP3 ADD PUSH1 0x0 DUP2 MSTORE PUSH2 0xEAA PUSH1 0x40 DUP5 ADD PUSH1 0x0 DUP2 MSTORE PUSH1 0x60 DUP6 ADD PUSH1 0x0 DUP2 MSTORE PUSH1 0x80 DUP7 ADD SWAP1 PUSH1 0x0 DUP3 MSTORE PUSH1 0xA0 DUP8 ADD SWAP3 PUSH1 0x1 DUP5 MSTORE PUSH1 0xC0 DUP9 ADD SWAP6 TIMESTAMP DUP8 MSTORE CALLER PUSH1 0x0 MSTORE PUSH1 0x9 PUSH1 0x20 MSTORE PUSH1 0x40 PUSH1 0x0 KECCAK256 SWAP9 MLOAD DUP10 SSTORE MLOAD PUSH1 0x1 DUP10 ADD SSTORE MLOAD PUSH1 0x2 DUP9 ADD SSTORE MLOAD PUSH1 0x3 DUP8 ADD SSTORE MLOAD PUSH1 0x4 DUP7 ADD SSTORE MLOAD ISZERO ISZERO PUSH1 0x5 DUP6 ADD SWAP1 PUSH1 0xFF DUP1 NOT DUP4 SLOAD AND SWAP2 ISZERO ISZERO AND OR SWAP1 SSTORE JUMP JUMPDEST MLOAD SWAP2 ADD SSTORE PUSH1 0xD SLOAD PUSH9 0x10000000000000000 DUP2 LT ISZERO PUSH2 0x637 JUMPI PUSH2 0xED5 DUP2 PUSH1 0x1 PUSH2 0xEF3 SWAP4 ADD PUSH1 0xD SSTORE PUSH2 0x1E11 JUMP JUMPDEST DUP2 SLOAD PUSH1 0x1 PUSH1 0x1 PUSH1 0xA0 SHL SUB PUSH1 0x3 SWAP3 SWAP1 SWAP3 SHL SWAP2 DUP3 SHL NOT AND CALLER SWAP1 SWAP2 SHL OR SWAP1 SSTORE JUMP JUMPDEST PUSH1 0x40 MLOAD SWAP1 DUP2 MSTORE PUSH32 0x8964D147132EB34950084EFDA449F1E07FCAA2B53F7C3FFA82B5DDB1F0840446 PUSH1 0x20 CALLER SWAP3 LOG2 PUSH1 0x1 PUSH1 0x0 SSTORE STOP JUMPDEST PUSH1 0x40 MLOAD PUSH4 0x78DE4A69 PUSH1 0xE1 SHL DUP2 MSTORE PUSH1 0x4 SWAP1 REVERT JUMPDEST CALLVALUE PUSH2 0x1CA JUMPI PUSH1 0x0 CALLDATASIZE PUSH1 0x3 NOT ADD SLT PUSH2 0x1CA JUMPI PUSH2 0xF51 PUSH2 0x1E6D JUMP JUMPDEST PUSH1 0x1 DUP1 SLOAD PUSH1 0x1 PUSH1 0x1 PUSH1 0xA0 SHL SUB NOT DUP2 AND SWAP1 SWAP2 SSTORE PUSH1 0x0 SWAP1 PUSH1 0x1 PUSH1 0x1 PUSH1 0xA0 SHL SUB AND PUSH32 0x8BE0079C531659141344CD1FD0A4F28419497F9722A3DAAFE3B4186F6B6457E0 DUP3 DUP1 LOG3 STOP JUMPDEST CALLVALUE PUSH2 0x1CA JUMPI PUSH1 0x0 CALLDATASIZE PUSH1 0x3 NOT ADD SLT PUSH2 0x1CA JUMPI PUSH2 0xFAE PUSH2 0x1F43 JUMP JUMPDEST CALLER PUSH1 0x0 MSTORE PUSH1 0x9 PUSH1 0x20 MSTORE PUSH1 0x40 PUSH1 0x0 KECCAK256 PUSH1 0x5 DUP2 ADD SWAP1 DUP2 SLOAD SWAP2 PUSH1 0xFF DUP4 AND ISZERO PUSH2 0x2F6 JUMPI PUSH2 0x1004 SWAP3 PUSH1 0x0 DUP4 SLOAD SWAP4 SSTORE PUSH1 0xFF NOT AND SWAP1 SSTORE CALLER PUSH32 0x0 PUSH2 0x1F66 JUMP JUMPDEST CALLER PUSH32 0x715484ADB5BC9CC29AF577725DBF8486D0B82ECA3BA79F65846E92FF38EF32B5 PUSH1 0x0 DUP1 LOG2 PUSH1 0x1 PUSH1 0x0 SSTORE STOP JUMPDEST CALLVALUE PUSH2 0x1CA JUMPI PUSH1 0x20 CALLDATASIZE PUSH1 0x3 NOT ADD SLT PUSH2 0x1CA JUMPI PUSH1 0x4 CALLDATALOAD PUSH1 0x0 MSTORE PUSH1 0xA PUSH1 0x20 MSTORE PUSH1 0x40 PUSH1 0x0 KECCAK256 DUP1 SLOAD PUSH1 0x1 PUSH1 0xA0 SHL PUSH1 0x1 SWAP1 SUB SWAP2 DUP3 PUSH1 0x1 DUP3 ADD SLOAD AND SWAP3 PUSH1 0x2 DUP3 ADD SLOAD AND PUSH1 0x3 DUP3 ADD SLOAD SWAP2 PUSH1 0x4 DUP2 ADD SLOAD SWAP3 PUSH1 0x5 DUP3 ADD PUSH2 0x1085 SWAP1 PUSH2 0x1D11 JUMP JUMPDEST SWAP4 PUSH1 0x6 DUP4 ADD SLOAD SWAP5 PUSH1 0x7 DUP5 ADD SLOAD PUSH1 0xB DUP6 ADD SLOAD SWAP1 PUSH1 0xC DUP7 ADD SLOAD SWAP3 PUSH1 0xD DUP8 ADD SLOAD PUSH1 0xFF AND SWAP5 PUSH1 0xE DUP9 ADD SLOAD SWAP7 PUSH1 0xF DUP10 ADD SLOAD SWAP9 PUSH1 0x10 ADD SLOAD SWAP10 PUSH1 0x40 MLOAD SWAP14 DUP15 DUP1 SWAP15 DUP2 MSTORE PUSH1 0x20 ADD MSTORE PUSH1 0x40 DUP14 ADD MSTORE PUSH1 0x60 DUP13 ADD MSTORE PUSH1 0x80 DUP12 ADD PUSH1 0xFF DUP3 AND SWAP1 PUSH2 0x10E0 SWAP2 PUSH2 0x1DF7 JUMP JUMPDEST PUSH1 0xA0 DUP12 ADD SWAP1 PUSH1 0x8 SHR PUSH1 0xFF AND SWAP1 PUSH2 0x10F5 SWAP2 PUSH2 0x1E04 JUMP JUMPDEST PUSH2 0x1E0 DUP1 PUSH1 0xC0 DUP13 ADD MSTORE DUP11 ADD PUSH2 0x1109 SWAP2 PUSH2 0x1DB7 JUMP JUMPDEST SWAP8 PUSH1 0xE0 DUP11 ADD MSTORE PUSH2 0x100 DUP10 ADD MSTORE PUSH2 0x120 DUP9 ADD MSTORE PUSH2 0x140 DUP8 ADD MSTORE ISZERO ISZERO PUSH2 0x160 DUP7 ADD MSTORE PUSH2 0x180 DUP6 ADD MSTORE PUSH2 0x1A0 DUP5 ADD MSTORE PUSH2 0x1C0 DUP4 ADD MSTORE SUB SWAP1 RETURN JUMPDEST CALLVALUE PUSH2 0x1CA JUMPI PUSH1 0x20 CALLDATASIZE PUSH1 0x3 NOT ADD SLT PUSH2 0x1CA JUMPI PUSH1 0x1 PUSH1 0x1 PUSH1 0xA0 SHL SUB PUSH2 0x1160 PUSH2 0x1BEB JUMP JUMPDEST AND PUSH1 0x0 MSTORE PUSH1 0x9 PUSH1 0x20 MSTORE PUSH1 0xE0 PUSH1 0x40 PUSH1 0x0 KECCAK256 DUP1 SLOAD SWAP1 PUSH1 0x1 DUP2 ADD SLOAD SWAP1 PUSH1 0x2 DUP2 ADD SLOAD PUSH1 0x3 DUP3 ADD SLOAD PUSH1 0x4 DUP4 ADD SLOAD SWAP2 PUSH1 0x6 PUSH1 0xFF PUSH1 0x5 DUP7 ADD SLOAD AND SWAP5 ADD SLOAD SWAP5 PUSH1 0x40 MLOAD SWAP7 DUP8 MSTORE PUSH1 0x20 DUP8 ADD MSTORE PUSH1 0x40 DUP7 ADD MSTORE PUSH1 0x60 DUP6 ADD MSTORE PUSH1 0x80 DUP5 ADD MSTORE ISZERO ISZERO PUSH1 0xA0 DUP4 ADD MSTORE PUSH1 0xC0 DUP3 ADD MSTORE RETURN JUMPDEST CALLVALUE PUSH2 0x1CA JUMPI PUSH1 0x0 CALLDATASIZE PUSH1 0x3 NOT ADD SLT PUSH2 0x1CA JUMPI PUSH1 0x40 MLOAD PUSH32 0x0 PUSH1 0x1 PUSH1 0x1 PUSH1 0xA0 SHL SUB AND DUP2 MSTORE PUSH1 0x20 SWAP1 RETURN JUMPDEST CALLVALUE PUSH2 0x1CA JUMPI PUSH1 0x20 CALLDATASIZE PUSH1 0x3 NOT ADD SLT PUSH2 0x1CA JUMPI PUSH1 0x4 CALLDATALOAD PUSH1 0x0 MSTORE PUSH1 0xA PUSH1 0x20 MSTORE PUSH1 0x40 PUSH1 0x0 KECCAK256 PUSH1 0x4 DUP2 ADD DUP1 SLOAD PUSH1 0xFF DUP2 PUSH1 0x8 SHR AND PUSH1 0x5 DUP2 LT ISZERO PUSH2 0x6A5 JUMPI PUSH1 0x1 SUB PUSH2 0x693 JUMPI PUSH1 0xFF DUP2 AND PUSH1 0x3 DUP2 LT ISZERO PUSH2 0x6A5 JUMPI PUSH1 0x1 SUB PUSH2 0x693 JUMPI PUSH2 0x200 SWAP1 PUSH2 0xFF00 NOT AND OR SWAP1 SSTORE PUSH1 0xF PUSH2 0x1270 PUSH1 0x7 SLOAD TIMESTAMP PUSH2 0x1F9F JUMP JUMPDEST SWAP2 ADD SSTORE STOP JUMPDEST CALLVALUE PUSH2 0x1CA JUMPI PUSH1 0x20 CALLDATASIZE PUSH1 0x3 NOT ADD SLT PUSH2 0x1CA JUMPI PUSH2 0x128E PUSH2 0x1BEB JUMP JUMPDEST PUSH1 0x0 PUSH1 0xC0 PUSH1 0x40 MLOAD PUSH2 0x129E DUP2 PUSH2 0x1C84 JUMP JUMPDEST DUP3 DUP2 MSTORE DUP3 PUSH1 0x20 DUP3 ADD MSTORE DUP3 PUSH1 0x40 DUP3 ADD MSTORE DUP3 PUSH1 0x60 DUP3 ADD MSTORE DUP3 PUSH1 0x80 DUP3 ADD MSTORE DUP3 PUSH1 0xA0 DUP3 ADD MSTORE ADD MSTORE PUSH1 0x1 DUP1 PUSH1 0xA0 SHL SUB AND PUSH1 0x0 MSTORE PUSH1 0x9 PUSH1 0x20 MSTORE PUSH1 0xE0 PUSH1 0x40 PUSH1 0x0 KECCAK256 PUSH1 0x40 MLOAD PUSH2 0x12E4 DUP2 PUSH2 0x1C84 JUMP JUMPDEST DUP2 SLOAD SWAP2 DUP3 DUP3 MSTORE PUSH1 0x1 DUP2 ADD SLOAD PUSH1 0x20 DUP4 ADD SWAP1 DUP2 MSTORE PUSH1 0x2 DUP3 ADD SLOAD PUSH1 0x40 DUP5 ADD SWAP1 DUP2 MSTORE PUSH1 0x3 DUP4 ADD SLOAD SWAP1 PUSH1 0x60 DUP6 ADD SWAP2 DUP3 MSTORE PUSH1 0x4 DUP5 ADD SLOAD SWAP3 PUSH1 0x80 DUP7 ADD SWAP4 DUP5 MSTORE PUSH1 0xC0 PUSH1 0x6 PUSH1 0xFF PUSH1 0x5 DUP9 ADD SLOAD AND SWAP7 PUSH1 0xA0 DUP10 ADD SWAP8 ISZERO ISZERO DUP9 MSTORE ADD SLOAD SWAP7 ADD SWAP6 DUP7 MSTORE PUSH1 0x40 MLOAD SWAP7 DUP8 MSTORE MLOAD PUSH1 0x20 DUP8 ADD MSTORE MLOAD PUSH1 0x40 DUP7 ADD MSTORE MLOAD PUSH1 0x60 DUP6 ADD MSTORE MLOAD PUSH1 0x80 DUP5 ADD MSTORE MLOAD ISZERO ISZERO PUSH1 0xA0 DUP4 ADD MSTORE MLOAD PUSH1 0xC0 DUP3 ADD MSTORE RETURN JUMPDEST CALLVALUE PUSH2 0x1CA JUMPI PUSH1 0x0 CALLDATASIZE PUSH1 0x3 NOT ADD SLT PUSH2 0x1CA JUMPI PUSH1 0x0 DUP1 PUSH1 0xD SLOAD SWAP1 JUMPDEST DUP2 DUP2 LT PUSH2 0x1392 JUMPI PUSH1 0x20 DUP4 PUSH1 0x40 MLOAD SWAP1 DUP2 MSTORE RETURN JUMPDEST PUSH2 0x139B DUP2 PUSH2 0x1E11 JUMP JUMPDEST PUSH1 0x1 DUP1 PUSH1 0xA0 SHL SUB SWAP2 SLOAD SWAP1 PUSH1 0x3 SHL SHR AND PUSH1 0x0 MSTORE PUSH1 0x9 PUSH1 0x20 MSTORE PUSH1 0xFF PUSH1 0x5 PUSH1 0x40 PUSH1 0x0 KECCAK256 ADD SLOAD AND PUSH2 0x13D1 JUMPI JUMPDEST PUSH2 0x13CC SWAP1 PUSH2 0x1FAC JUMP JUMPDEST PUSH2 0x1380 JUMP JUMPDEST SWAP2 PUSH2 0x13DE PUSH2 0x13CC SWAP2 PUSH2 0x1FAC JUMP JUMPDEST SWAP3 SWAP1 POP PUSH2 0x13C3 JUMP JUMPDEST CALLVALUE PUSH2 0x1CA JUMPI PUSH1 0x40 CALLDATASIZE PUSH1 0x3 NOT ADD SLT PUSH2 0x1CA JUMPI PUSH2 0x13FF PUSH2 0x1BD5 JUMP JUMPDEST PUSH1 0x4 CALLDATALOAD PUSH1 0x0 MSTORE PUSH1 0xB PUSH1 0x20 MSTORE PUSH1 0x40 PUSH1 0x0 KECCAK256 SWAP1 PUSH1 0x1 DUP1 PUSH1 0xA0 SHL SUB AND PUSH1 0x0 MSTORE PUSH1 0x20 MSTORE PUSH1 0xFF PUSH1 0x40 PUSH1 0x0 KECCAK256 DUP1 SLOAD SWAP1 PUSH2 0x1466 PUSH1 0x2 PUSH2 0x1439 PUSH1 0x1 DUP5 ADD PUSH2 0x1D11 JUMP JUMPDEST SWAP3 ADD SLOAD SWAP2 PUSH1 0x40 MLOAD SWAP5 DUP5 DUP2 DUP8 SWAP7 AND ISZERO ISZERO DUP7 MSTORE PUSH1 0x8 SHR AND ISZERO ISZERO PUSH1 0x20 DUP6 ADD MSTORE PUSH1 0x80 PUSH1 0x40 DUP6 ADD MSTORE PUSH1 0x80 DUP5 ADD SWAP1 PUSH2 0x1DB7 JUMP JUMPDEST SWAP1 PUSH1 0x60 DUP4 ADD MSTORE SUB SWAP1 RETURN JUMPDEST CALLVALUE PUSH2 0x1CA JUMPI PUSH1 0x0 CALLDATASIZE PUSH1 0x3 NOT ADD SLT PUSH2 0x1CA JUMPI PUSH1 0x20 PUSH1 0x5 SLOAD PUSH1 0x40 MLOAD SWAP1 DUP2 MSTORE RETURN JUMPDEST CALLVALUE PUSH2 0x1CA JUMPI PUSH1 0x0 CALLDATASIZE PUSH1 0x3 NOT ADD SLT PUSH2 0x1CA JUMPI PUSH1 0x20 PUSH1 0x8 SLOAD PUSH1 0x40 MLOAD SWAP1 DUP2 MSTORE RETURN JUMPDEST CALLVALUE PUSH2 0x1CA JUMPI PUSH1 0x20 CALLDATASIZE PUSH1 0x3 NOT ADD SLT PUSH2 0x1CA JUMPI PUSH2 0x14C5 PUSH2 0x1E6D JUMP JUMPDEST PUSH1 0x4 CALLDATALOAD PUSH1 0x3 SSTORE STOP JUMPDEST CALLVALUE PUSH2 0x1CA JUMPI PUSH1 0x0 CALLDATASIZE PUSH1 0x3 NOT ADD SLT PUSH2 0x1CA JUMPI PUSH1 0x20 PUSH1 0x7 SLOAD PUSH1 0x40 MLOAD SWAP1 DUP2 MSTORE RETURN JUMPDEST CALLVALUE PUSH2 0x1CA JUMPI PUSH1 0x20 CALLDATASIZE PUSH1 0x3 NOT ADD SLT PUSH2 0x1CA JUMPI PUSH1 0x20 PUSH2 0x150E PUSH2 0x1509 PUSH2 0x1BEB JUMP JUMPDEST PUSH2 0x2402 JUMP JUMPDEST PUSH1 0x40 MLOAD SWAP1 DUP2 MSTORE RETURN JUMPDEST CALLVALUE PUSH2 0x1CA JUMPI PUSH1 0xC0 CALLDATASIZE PUSH1 0x3 NOT ADD SLT PUSH2 0x1CA JUMPI PUSH2 0x152F PUSH2 0x1BD5 JUMP JUMPDEST PUSH1 0x44 CALLDATALOAD PUSH1 0x1 PUSH1 0x1 PUSH1 0xA0 SHL SUB DUP2 AND DUP2 SUB PUSH2 0x1CA JUMPI PUSH1 0x84 CALLDATALOAD PUSH1 0x1 PUSH1 0x1 PUSH1 0x40 SHL SUB DUP2 GT PUSH2 0x1CA JUMPI PUSH2 0x1561 SWAP1 CALLDATASIZE SWAP1 PUSH1 0x4 ADD PUSH2 0x1C01 JUMP JUMPDEST SWAP1 SWAP2 PUSH1 0x3 PUSH1 0xA4 CALLDATALOAD LT ISZERO PUSH2 0x1CA JUMPI PUSH2 0x1576 PUSH2 0x1F43 JUMP JUMPDEST PUSH1 0x2 SLOAD PUSH1 0x1 PUSH1 0x1 PUSH1 0xA0 SHL SUB AND CALLER EQ ISZERO DUP1 PUSH2 0x1BC2 JUMPI JUMPDEST DUP1 PUSH2 0x1BAF JUMPI JUMPDEST PUSH2 0xD35 JUMPI PUSH2 0x15A0 PUSH1 0xC SLOAD PUSH2 0x1FAC JUMP JUMPDEST SWAP3 DUP4 PUSH1 0xC SSTORE PUSH1 0x40 MLOAD SWAP3 PUSH1 0x60 DUP5 ADD SWAP3 DUP5 DUP5 LT PUSH1 0x1 PUSH1 0x1 PUSH1 0x40 SHL SUB DUP6 GT OR PUSH2 0x637 JUMPI PUSH2 0x1626 SWAP4 PUSH1 0x40 MSTORE PUSH1 0x0 DUP6 MSTORE PUSH1 0x0 PUSH1 0x20 DUP7 ADD MSTORE PUSH1 0x0 PUSH1 0x40 DUP7 ADD MSTORE PUSH1 0x40 MLOAD SWAP7 PUSH2 0x15E6 DUP9 PUSH2 0x1C68 JUMP JUMPDEST PUSH1 0x4 CALLDATALOAD DUP9 MSTORE PUSH1 0x1 PUSH1 0x1 PUSH1 0xA0 SHL SUB SWAP1 DUP2 AND PUSH1 0x20 DUP10 ADD MSTORE AND PUSH1 0x40 DUP8 ADD MSTORE PUSH1 0x64 CALLDATALOAD PUSH1 0x60 DUP8 ADD MSTORE PUSH2 0x1618 PUSH1 0xA4 CALLDATALOAD PUSH1 0x80 DUP9 ADD PUSH2 0x1FBB JUMP JUMPDEST PUSH1 0x1 PUSH1 0xA0 DUP8 ADD MSTORE CALLDATASIZE SWAP2 PUSH2 0x1FE2 JUMP JUMPDEST PUSH1 0xC0 DUP5 ADD MSTORE PUSH1 0x0 PUSH1 0xE0 DUP5 ADD MSTORE PUSH1 0x0 PUSH2 0x100 DUP5 ADD MSTORE PUSH2 0x120 DUP4 ADD MSTORE PUSH1 0x0 PUSH2 0x140 DUP4 ADD MSTORE PUSH1 0x0 PUSH2 0x160 DUP4 ADD MSTORE PUSH1 0x0 PUSH2 0x180 DUP4 ADD MSTORE TIMESTAMP PUSH2 0x1A0 DUP4 ADD MSTORE PUSH1 0x0 PUSH2 0x1C0 DUP4 ADD MSTORE PUSH1 0x0 PUSH2 0x1E0 DUP4 ADD MSTORE DUP1 PUSH1 0x0 MSTORE PUSH1 0xA PUSH1 0x20 MSTORE PUSH1 0x40 PUSH1 0x0 KECCAK256 DUP3 MLOAD DUP2 SSTORE PUSH1 0x1 DUP2 ADD PUSH1 0x1 DUP1 PUSH1 0xA0 SHL SUB PUSH1 0x20 DUP6 ADD MLOAD AND SWAP1 PUSH12 0xFFFFFFFFFFFFFFFFFFFFFFFF PUSH1 0xA0 SHL SWAP2 DUP3 DUP3 SLOAD AND OR SWAP1 SSTORE PUSH1 0x2 DUP3 ADD SWAP1 PUSH1 0x1 DUP1 PUSH1 0xA0 SHL SUB PUSH1 0x40 DUP7 ADD MLOAD AND SWAP1 DUP3 SLOAD AND OR SWAP1 SSTORE PUSH1 0x60 DUP4 ADD MLOAD PUSH1 0x3 DUP3 ADD SSTORE PUSH1 0x80 DUP4 ADD MLOAD PUSH1 0x3 DUP2 LT ISZERO PUSH2 0x6A5 JUMPI PUSH1 0x4 DUP3 ADD SLOAD PUSH1 0xA0 DUP6 ADD MLOAD PUSH1 0x5 DUP2 LT ISZERO PUSH2 0x6A5 JUMPI PUSH2 0xFF00 PUSH1 0xFF SWAP2 PUSH1 0x8 SHL AND SWAP3 AND SWAP1 PUSH2 0xFFFF NOT AND OR OR PUSH1 0x4 DUP3 ADD SSTORE PUSH1 0xC0 DUP4 ADD MLOAD SWAP3 DUP4 MLOAD PUSH1 0x1 PUSH1 0x1 PUSH1 0x40 SHL SUB DUP2 GT PUSH2 0x637 JUMPI PUSH2 0x172B PUSH1 0x5 DUP5 ADD SLOAD PUSH2 0x1C2E JUMP JUMPDEST PUSH1 0x1F DUP2 GT PUSH2 0x1B7A JUMPI JUMPDEST POP PUSH1 0x20 PUSH1 0x1F DUP3 GT PUSH1 0x1 EQ PUSH2 0x1B0B JUMPI DUP2 SWAP3 SWAP4 SWAP5 SWAP6 PUSH1 0x0 SWAP3 PUSH2 0x1B00 JUMPI JUMPDEST POP POP DUP2 PUSH1 0x1 SHL SWAP2 PUSH1 0x0 NOT SWAP1 PUSH1 0x3 SHL SHR NOT AND OR PUSH1 0x5 DUP4 ADD SSTORE JUMPDEST PUSH1 0xE0 DUP2 ADD MLOAD PUSH1 0x6 DUP4 ADD SSTORE PUSH2 0x100 DUP2 ADD MLOAD PUSH1 0x7 DUP4 ADD SSTORE PUSH2 0x120 DUP2 ADD MLOAD PUSH1 0x0 JUMPDEST PUSH1 0x3 DUP2 LT PUSH2 0x1AE0 JUMPI POP POP PUSH2 0x1E0 DUP2 PUSH2 0x140 PUSH1 0x10 SWAP4 ADD MLOAD PUSH1 0xB DUP6 ADD SSTORE PUSH2 0x160 DUP2 ADD MLOAD PUSH1 0xC DUP6 ADD SSTORE PUSH2 0x17CB PUSH2 0x180 DUP3 ADD MLOAD ISZERO ISZERO PUSH1 0xD DUP7 ADD SWAP1 PUSH1 0xFF DUP1 NOT DUP4 SLOAD AND SWAP2 ISZERO ISZERO AND OR SWAP1 SSTORE JUMP JUMPDEST PUSH2 0x1A0 DUP2 ADD MLOAD PUSH1 0xE DUP6 ADD SSTORE PUSH2 0x1C0 DUP2 ADD MLOAD PUSH1 0xF DUP6 ADD SSTORE ADD MLOAD SWAP2 ADD SSTORE PUSH1 0x40 MLOAD PUSH2 0x17F5 DUP2 PUSH1 0xA4 CALLDATALOAD PUSH2 0x1DF7 JUMP JUMPDEST DUP2 PUSH32 0x79E0C6DD611BB98EA4B6CEDE51CE737EC01CF85AD6BA167A85FF09B2DA645F6A PUSH1 0x20 PUSH1 0x4 CALLDATALOAD SWAP4 LOG3 PUSH1 0x1 PUSH1 0xA4 CALLDATALOAD EQ PUSH2 0x1839 JUMPI JUMPDEST PUSH1 0x20 SWAP1 PUSH1 0x1 PUSH1 0x0 SSTORE PUSH1 0x40 MLOAD SWAP1 DUP2 MSTORE RETURN JUMPDEST PUSH1 0x0 DUP2 DUP2 MSTORE PUSH1 0xA PUSH1 0x20 MSTORE PUSH1 0x40 DUP2 KECCAK256 PUSH1 0x1 DUP2 ADD SLOAD PUSH1 0x2 DUP3 ADD SLOAD PUSH1 0xD SLOAD SWAP4 SWAP5 SWAP4 SWAP2 PUSH1 0x1 PUSH1 0x1 PUSH1 0xA0 SHL SUB SWAP2 DUP3 AND SWAP2 AND DUP6 JUMPDEST DUP4 DUP2 LT PUSH2 0x1A93 JUMPI POP PUSH2 0x1878 DUP7 PUSH2 0x2054 JUMP JUMPDEST SWAP6 PUSH2 0x1886 PUSH1 0x40 MLOAD SWAP8 DUP9 PUSH2 0x1CF0 JUMP JUMPDEST DUP1 DUP8 MSTORE PUSH2 0x1895 PUSH1 0x1F NOT SWAP2 PUSH2 0x2054 JUMP JUMPDEST ADD CALLDATASIZE PUSH1 0x20 DUP9 ADD CALLDATACOPY PUSH1 0x0 SWAP2 PUSH1 0x0 JUMPDEST DUP5 DUP2 LT PUSH2 0x1A3F JUMPI POP POP POP POP POP PUSH1 0x3 DUP4 MLOAD LT PUSH2 0x1A2D JUMPI SWAP2 PUSH1 0x40 MLOAD PUSH1 0x20 DUP2 ADD SWAP1 TIMESTAMP DUP3 MSTORE PREVRANDAO PUSH1 0x40 DUP3 ADD MSTORE DUP4 PUSH1 0x60 DUP3 ADD MSTORE PUSH1 0x60 DUP2 MSTORE PUSH2 0x18DC DUP2 PUSH2 0x1C9F JUMP JUMPDEST MLOAD SWAP1 KECCAK256 SWAP1 PUSH1 0x8 PUSH1 0x0 SWAP5 ADD SWAP4 JUMPDEST PUSH1 0x3 DUP2 LT PUSH2 0x1956 JUMPI POP POP POP PUSH1 0x40 MLOAD SWAP2 DUP3 PUSH1 0x0 SWAP1 JUMPDEST PUSH1 0x3 DUP3 LT PUSH2 0x1936 JUMPI POP POP POP DUP1 PUSH32 0x81CDA40E49D0323C0130D0850CC66291282A092A52124D11922E1ADE0709CCAE PUSH1 0x60 PUSH1 0x20 SWAP5 LOG2 SWAP1 POP PUSH2 0x1829 JUMP JUMPDEST DUP3 SLOAD PUSH1 0x1 PUSH1 0x1 PUSH1 0xA0 SHL SUB AND DUP2 MSTORE PUSH1 0x1 SWAP3 DUP4 ADD SWAP3 SWAP2 SWAP1 SWAP2 ADD SWAP1 PUSH1 0x20 ADD PUSH2 0x18FC JUMP JUMPDEST DUP1 PUSH1 0x3 SHL DUP2 DUP2 DIV PUSH1 0x8 EQ DUP3 ISZERO OR ISZERO PUSH2 0x1A01 JUMPI DUP3 MLOAD SWAP1 DUP2 ISZERO PUSH2 0x1A17 JUMPI DUP5 SWAP1 SHR MOD SWAP1 PUSH2 0x19B6 PUSH1 0x1 PUSH1 0x1 PUSH1 0xA0 SHL SUB PUSH2 0x198B DUP5 DUP7 PUSH2 0x2030 JUMP JUMPDEST MLOAD AND PUSH2 0x1997 DUP4 DUP10 PUSH2 0x2044 JUMP JUMPDEST SWAP1 SWAP2 SWAP1 DUP3 SLOAD SWAP1 PUSH1 0x3 SHL SWAP2 PUSH1 0x1 DUP1 PUSH1 0xA0 SHL SUB DUP1 SWAP2 AND DUP4 SHL SWAP3 SHL NOT AND OR SWAP1 SSTORE JUMP JUMPDEST DUP3 MLOAD PUSH1 0x0 NOT DUP1 DUP3 ADD SWAP4 SWAP2 DUP1 DUP6 GT PUSH2 0x1A01 JUMPI DUP4 SWAP1 SUB ADD SWAP3 DUP4 GT PUSH2 0x1A01 JUMPI PUSH2 0x19FC SWAP3 PUSH2 0x19F6 SWAP1 PUSH1 0x1 PUSH1 0x1 PUSH1 0xA0 SHL SUB SWAP1 PUSH2 0x19ED SWAP1 DUP8 PUSH2 0x2030 JUMP JUMPDEST MLOAD AND SWAP2 DUP6 PUSH2 0x2030 JUMP JUMPDEST MSTORE PUSH2 0x1FAC JUMP JUMPDEST PUSH2 0x18E8 JUMP JUMPDEST PUSH4 0x4E487B71 PUSH1 0xE0 SHL PUSH1 0x0 MSTORE PUSH1 0x11 PUSH1 0x4 MSTORE PUSH1 0x24 PUSH1 0x0 REVERT JUMPDEST PUSH4 0x4E487B71 PUSH1 0xE0 SHL PUSH1 0x0 MSTORE PUSH1 0x12 PUSH1 0x4 MSTORE PUSH1 0x24 PUSH1 0x0 REVERT JUMPDEST PUSH1 0x40 MLOAD PUSH4 0xB5BD121F PUSH1 0xE0 SHL DUP2 MSTORE PUSH1 0x4 SWAP1 REVERT JUMPDEST PUSH2 0x1A48 DUP2 PUSH2 0x1E11 JUMP JUMPDEST SWAP1 SLOAD PUSH1 0x3 SWAP2 SWAP1 SWAP2 SHL SHR PUSH1 0x1 PUSH1 0x1 PUSH1 0xA0 SHL SUB AND PUSH2 0x1A65 DUP4 DUP6 DUP4 PUSH2 0x2075 JUMP JUMPDEST PUSH2 0x1A79 JUMPI JUMPDEST POP PUSH2 0x1A74 SWAP1 PUSH2 0x1FAC JUMP JUMPDEST PUSH2 0x18A2 JUMP JUMPDEST DUP5 PUSH2 0x1A8C SWAP2 PUSH2 0x19F6 PUSH2 0x1A74 SWAP5 SWAP8 DUP13 PUSH2 0x2030 JUMP JUMPDEST SWAP4 SWAP1 PUSH2 0x1A6A JUMP JUMPDEST PUSH2 0x1AB8 DUP4 DUP4 PUSH2 0x1AA1 DUP5 PUSH2 0x1E11 JUMP JUMPDEST SWAP1 SLOAD PUSH1 0x3 SWAP2 SWAP1 SWAP2 SHL SHR PUSH1 0x1 PUSH1 0x1 PUSH1 0xA0 SHL SUB AND PUSH2 0x2075 JUMP JUMPDEST PUSH2 0x1ACB JUMPI JUMPDEST PUSH2 0x1AC6 SWAP1 PUSH2 0x1FAC JUMP JUMPDEST PUSH2 0x1867 JUMP JUMPDEST SWAP6 PUSH2 0x1AD8 PUSH2 0x1AC6 SWAP2 PUSH2 0x1FAC JUMP JUMPDEST SWAP7 SWAP1 POP PUSH2 0x1ABD JUMP JUMPDEST DUP2 MLOAD PUSH1 0x1 PUSH1 0x1 PUSH1 0xA0 SHL SUB AND PUSH1 0x8 DUP3 DUP7 ADD ADD SSTORE PUSH1 0x20 SWAP1 SWAP2 ADD SWAP1 PUSH1 0x1 ADD PUSH2 0x1785 JUMP JUMPDEST ADD MLOAD SWAP1 POP DUP6 DUP1 PUSH2 0x174F JUMP JUMPDEST PUSH1 0x5 DUP5 ADD PUSH1 0x0 MSTORE PUSH1 0x20 PUSH1 0x0 KECCAK256 SWAP1 PUSH1 0x0 JUMPDEST PUSH1 0x1F NOT DUP5 AND DUP2 LT PUSH2 0x1B62 JUMPI POP PUSH1 0x1 SWAP4 SWAP5 SWAP6 SWAP7 DUP4 PUSH1 0x1F NOT DUP2 AND LT PUSH2 0x1B49 JUMPI JUMPDEST POP POP POP DUP2 SHL ADD PUSH1 0x5 DUP4 ADD SSTORE PUSH2 0x1767 JUMP JUMPDEST ADD MLOAD PUSH1 0x0 NOT PUSH1 0xF8 DUP5 PUSH1 0x3 SHL AND SHR NOT AND SWAP1 SSTORE DUP6 DUP1 DUP1 PUSH2 0x1B39 JUMP JUMPDEST SWAP1 SWAP2 PUSH1 0x20 PUSH1 0x1 DUP2 SWAP3 DUP6 DUP12 ADD MLOAD DUP2 SSTORE ADD SWAP4 ADD SWAP2 ADD PUSH2 0x1B1B JUMP JUMPDEST PUSH2 0x1BA9 SWAP1 PUSH1 0x5 DUP6 ADD PUSH1 0x0 MSTORE PUSH1 0x20 PUSH1 0x0 KECCAK256 PUSH1 0x1F DUP5 ADD PUSH1 0x5 SHR DUP2 ADD SWAP2 PUSH1 0x20 DUP6 LT PUSH2 0x62D JUMPI PUSH1 0x1F ADD PUSH1 0x5 SHR ADD SWAP1 PUSH2 0x2019 JUMP JUMPDEST DUP6 PUSH2 0x1734 JUMP JUMPDEST POP CALLER PUSH1 0x1 PUSH1 0x1 PUSH1 0xA0 SHL SUB DUP3 AND EQ ISZERO PUSH2 0x1591 JUMP JUMPDEST POP CALLER PUSH1 0x1 PUSH1 0x1 PUSH1 0xA0 SHL SUB DUP6 AND EQ ISZERO PUSH2 0x158B JUMP JUMPDEST PUSH1 0x24 CALLDATALOAD SWAP1 PUSH1 0x1 PUSH1 0x1 PUSH1 0xA0 SHL SUB DUP3 AND DUP3 SUB PUSH2 0x1CA JUMPI JUMP JUMPDEST PUSH1 0x4 CALLDATALOAD SWAP1 PUSH1 0x1 PUSH1 0x1 PUSH1 0xA0 SHL SUB DUP3 AND DUP3 SUB PUSH2 0x1CA JUMPI JUMP JUMPDEST SWAP2 DUP2 PUSH1 0x1F DUP5 ADD SLT ISZERO PUSH2 0x1CA JUMPI DUP3 CALLDATALOAD SWAP2 PUSH1 0x1 PUSH1 0x1 PUSH1 0x40 SHL SUB DUP4 GT PUSH2 0x1CA JUMPI PUSH1 0x20 DUP4 DUP2 DUP7 ADD SWAP6 ADD ADD GT PUSH2 0x1CA JUMPI JUMP JUMPDEST SWAP1 PUSH1 0x1 DUP3 DUP2 SHR SWAP3 AND DUP1 ISZERO PUSH2 0x1C5E JUMPI JUMPDEST PUSH1 0x20 DUP4 LT EQ PUSH2 0x1C48 JUMPI JUMP JUMPDEST PUSH4 0x4E487B71 PUSH1 0xE0 SHL PUSH1 0x0 MSTORE PUSH1 0x22 PUSH1 0x4 MSTORE PUSH1 0x24 PUSH1 0x0 REVERT JUMPDEST SWAP2 PUSH1 0x7F AND SWAP2 PUSH2 0x1C3D JUMP JUMPDEST PUSH2 0x200 DUP2 ADD SWAP1 DUP2 LT PUSH1 0x1 PUSH1 0x1 PUSH1 0x40 SHL SUB DUP3 GT OR PUSH2 0x637 JUMPI PUSH1 0x40 MSTORE JUMP JUMPDEST PUSH1 0xE0 DUP2 ADD SWAP1 DUP2 LT PUSH1 0x1 PUSH1 0x1 PUSH1 0x40 SHL SUB DUP3 GT OR PUSH2 0x637 JUMPI PUSH1 0x40 MSTORE JUMP JUMPDEST PUSH1 0x80 DUP2 ADD SWAP1 DUP2 LT PUSH1 0x1 PUSH1 0x1 PUSH1 0x40 SHL SUB DUP3 GT OR PUSH2 0x637 JUMPI PUSH1 0x40 MSTORE JUMP JUMPDEST PUSH1 0x60 DUP2 ADD SWAP1 DUP2 LT PUSH1 0x1 PUSH1 0x1 PUSH1 0x40 SHL SUB DUP3 GT OR PUSH2 0x637 JUMPI PUSH1 0x40 MSTORE JUMP JUMPDEST PUSH1 0xA0 DUP2 ADD SWAP1 DUP2 LT PUSH1 0x1 PUSH1 0x1 PUSH1 0x40 SHL SUB DUP3 GT OR PUSH2 0x637 JUMPI PUSH1 0x40 MSTORE JUMP JUMPDEST SWAP1 PUSH1 0x1F DUP1 NOT SWAP2 ADD AND DUP2 ADD SWAP1 DUP2 LT PUSH1 0x1 PUSH1 0x1 PUSH1 0x40 SHL SUB DUP3 GT OR PUSH2 0x637 JUMPI PUSH1 0x40 MSTORE JUMP JUMPDEST SWAP1 PUSH1 0x40 MLOAD SWAP2 DUP3 PUSH1 0x0 DUP3 SLOAD SWAP3 PUSH2 0x1D25 DUP5 PUSH2 0x1C2E JUMP JUMPDEST SWAP1 DUP2 DUP5 MSTORE PUSH1 0x1 SWAP5 DUP6 DUP2 AND SWAP1 DUP2 PUSH1 0x0 EQ PUSH2 0x1D94 JUMPI POP PUSH1 0x1 EQ PUSH2 0x1D51 JUMPI JUMPDEST POP POP PUSH2 0x1D4F SWAP3 POP SUB DUP4 PUSH2 0x1CF0 JUMP JUMPDEST JUMP JUMPDEST SWAP1 SWAP4 SWAP2 POP PUSH1 0x0 MSTORE PUSH1 0x20 SWAP1 DUP2 PUSH1 0x0 KECCAK256 SWAP4 PUSH1 0x0 SWAP2 JUMPDEST DUP2 DUP4 LT PUSH2 0x1D7C JUMPI POP POP PUSH2 0x1D4F SWAP4 POP DUP3 ADD ADD CODESIZE DUP1 PUSH2 0x1D41 JUMP JUMPDEST DUP6 SLOAD DUP9 DUP5 ADD DUP6 ADD MSTORE SWAP5 DUP6 ADD SWAP5 DUP8 SWAP5 POP SWAP2 DUP4 ADD SWAP2 PUSH2 0x1D64 JUMP JUMPDEST SWAP2 POP POP PUSH2 0x1D4F SWAP5 POP PUSH1 0x20 SWAP3 POP PUSH1 0xFF NOT AND DUP3 DUP5 ADD MSTORE ISZERO ISZERO PUSH1 0x5 SHL DUP3 ADD ADD CODESIZE DUP1 PUSH2 0x1D41 JUMP JUMPDEST SWAP2 SWAP1 DUP3 MLOAD SWAP3 DUP4 DUP3 MSTORE PUSH1 0x0 JUMPDEST DUP5 DUP2 LT PUSH2 0x1DE3 JUMPI POP POP DUP3 PUSH1 0x0 PUSH1 0x20 DUP1 SWAP5 SWAP6 DUP5 ADD ADD MSTORE PUSH1 0x1F DUP1 NOT SWAP2 ADD AND ADD ADD SWAP1 JUMP JUMPDEST PUSH1 0x20 DUP2 DUP4 ADD DUP2 ADD MLOAD DUP5 DUP4 ADD DUP3 ADD MSTORE ADD PUSH2 0x1DC2 JUMP JUMPDEST SWAP1 PUSH1 0x3 DUP3 LT ISZERO PUSH2 0x6A5 JUMPI MSTORE JUMP JUMPDEST SWAP1 PUSH1 0x5 DUP3 LT ISZERO PUSH2 0x6A5 JUMPI MSTORE JUMP JUMPDEST PUSH1 0xD SLOAD DUP2 LT ISZERO PUSH2 0x1E48 JUMPI PUSH1 0xD PUSH1 0x0 MSTORE PUSH32 0xD7B6990105719101DABEB77144F2A3385C8033ACD3AF97E9423A695E81AD1EB5 ADD SWAP1 PUSH1 0x0 SWAP1 JUMP JUMPDEST PUSH4 0x4E487B71 PUSH1 0xE0 SHL PUSH1 0x0 MSTORE PUSH1 0x32 PUSH1 0x4 MSTORE PUSH1 0x24 PUSH1 0x0 REVERT JUMPDEST PUSH1 0x24 CALLDATALOAD SWAP1 DUP2 ISZERO ISZERO DUP3 SUB PUSH2 0x1CA JUMPI JUMP JUMPDEST PUSH1 0x1 SLOAD PUSH1 0x1 PUSH1 0x1 PUSH1 0xA0 SHL SUB AND CALLER SUB PUSH2 0x1E81 JUMPI JUMP JUMPDEST PUSH1 0x40 MLOAD PUSH4 0x118CDAA7 PUSH1 0xE0 SHL DUP2 MSTORE CALLER PUSH1 0x4 DUP3 ADD MSTORE PUSH1 0x24 SWAP1 REVERT JUMPDEST PUSH1 0x40 MLOAD PUSH4 0x23B872DD PUSH1 0xE0 SHL PUSH1 0x20 DUP3 ADD MSTORE PUSH1 0x1 PUSH1 0x1 PUSH1 0xA0 SHL SUB SWAP3 DUP4 AND PUSH1 0x24 DUP3 ADD MSTORE SWAP3 SWAP1 SWAP2 AND PUSH1 0x44 DUP4 ADD MSTORE PUSH1 0x64 DUP1 DUP4 ADD SWAP4 SWAP1 SWAP4 MSTORE SWAP2 DUP2 MSTORE PUSH2 0x1D4F SWAP2 PUSH2 0x1EDB DUP3 PUSH2 0x1CD5 JUMP JUMPDEST SWAP1 PUSH1 0x0 PUSH1 0x20 SWAP2 DUP3 DUP2 MLOAD SWAP2 ADD DUP3 DUP6 GAS CALL ISZERO PUSH2 0x1F37 JUMPI PUSH1 0x0 MLOAD RETURNDATASIZE PUSH2 0x1F2E JUMPI POP PUSH1 0x1 PUSH1 0x1 PUSH1 0xA0 SHL SUB DUP2 AND EXTCODESIZE ISZERO JUMPDEST PUSH2 0x1F0C JUMPI POP JUMP JUMPDEST PUSH1 0x40 MLOAD PUSH4 0x5274AFE7 PUSH1 0xE0 SHL DUP2 MSTORE PUSH1 0x1 PUSH1 0x1 PUSH1 0xA0 SHL SUB SWAP1 SWAP2 AND PUSH1 0x4 DUP3 ADD MSTORE PUSH1 0x24 SWAP1 REVERT JUMPDEST PUSH1 0x1 EQ ISZERO PUSH2 0x1F05 JUMP JUMPDEST PUSH1 0x40 MLOAD RETURNDATASIZE PUSH1 0x0 DUP3 RETURNDATACOPY RETURNDATASIZE SWAP1 REVERT JUMPDEST PUSH1 0x2 PUSH1 0x0 SLOAD EQ PUSH2 0x1F54 JUMPI PUSH1 0x2 PUSH1 0x0 SSTORE JUMP JUMPDEST PUSH1 0x40 MLOAD PUSH4 0x3EE5AEB5 PUSH1 0xE0 SHL DUP2 MSTORE PUSH1 0x4 SWAP1 REVERT JUMPDEST PUSH1 0x40 MLOAD PUSH4 0xA9059CBB PUSH1 0xE0 SHL PUSH1 0x20 DUP3 ADD MSTORE PUSH1 0x1 PUSH1 0x1 PUSH1 0xA0 SHL SUB SWAP1 SWAP3 AND PUSH1 0x24 DUP4 ADD MSTORE PUSH1 0x44 DUP1 DUP4 ADD SWAP4 SWAP1 SWAP4 MSTORE SWAP2 DUP2 MSTORE PUSH2 0x1D4F SWAP2 PUSH2 0x1EDB DUP3 PUSH2 0x1C9F JUMP JUMPDEST SWAP2 SWAP1 DUP3 ADD DUP1 SWAP3 GT PUSH2 0x1A01 JUMPI JUMP JUMPDEST PUSH1 0x0 NOT DUP2 EQ PUSH2 0x1A01 JUMPI PUSH1 0x1 ADD SWAP1 JUMP JUMPDEST PUSH1 0x3 DUP3 LT ISZERO PUSH2 0x6A5 JUMPI MSTORE JUMP JUMPDEST PUSH1 0x1 PUSH1 0x1 PUSH1 0x40 SHL SUB DUP2 GT PUSH2 0x637 JUMPI PUSH1 0x1F ADD PUSH1 0x1F NOT AND PUSH1 0x20 ADD SWAP1 JUMP JUMPDEST SWAP3 SWAP2 SWAP3 PUSH2 0x1FEE DUP3 PUSH2 0x1FC7 JUMP JUMPDEST SWAP2 PUSH2 0x1FFC PUSH1 0x40 MLOAD SWAP4 DUP5 PUSH2 0x1CF0 JUMP JUMPDEST DUP3 SWAP5 DUP2 DUP5 MSTORE DUP2 DUP4 ADD GT PUSH2 0x1CA JUMPI DUP3 DUP2 PUSH1 0x20 SWAP4 DUP5 PUSH1 0x0 SWAP7 ADD CALLDATACOPY ADD ADD MSTORE JUMP JUMPDEST DUP2 DUP2 LT PUSH2 0x2024 JUMPI POP POP JUMP JUMPDEST PUSH1 0x0 DUP2 SSTORE PUSH1 0x1 ADD PUSH2 0x2019 JUMP JUMPDEST DUP1 MLOAD DUP3 LT ISZERO PUSH2 0x1E48 JUMPI PUSH1 0x20 SWAP2 PUSH1 0x5 SHL ADD ADD SWAP1 JUMP JUMPDEST PUSH1 0x3 DUP3 LT ISZERO PUSH2 0x1E48 JUMPI ADD SWAP1 PUSH1 0x0 SWAP1 JUMP JUMPDEST PUSH1 0x1 PUSH1 0x1 PUSH1 0x40 SHL SUB DUP2 GT PUSH2 0x637 JUMPI PUSH1 0x5 SHL PUSH1 0x20 ADD SWAP1 JUMP JUMPDEST DUP2 ISZERO PUSH2 0x1A17 JUMPI DIV SWAP1 JUMP JUMPDEST SWAP2 PUSH1 0x1 DUP1 PUSH1 0xA0 SHL SUB DUP1 SWAP4 AND PUSH1 0x0 SWAP4 DUP2 DUP6 MSTORE PUSH1 0x9 PUSH1 0x20 MSTORE PUSH1 0x40 DUP6 KECCAK256 SWAP4 PUSH1 0xFF PUSH1 0x5 DUP7 ADD SLOAD AND ISZERO PUSH2 0x2126 JUMPI DUP5 SLOAD PUSH1 0x3 SLOAD GT PUSH2 0x2126 JUMPI DUP2 AND DUP3 EQ SWAP3 DUP4 ISZERO PUSH2 0x211A JUMPI JUMPDEST POP POP POP PUSH2 0x2116 JUMPI PUSH1 0x3 DUP2 ADD SLOAD SWAP1 DUP2 PUSH2 0x20CE JUMPI JUMPDEST POP POP POP PUSH1 0x1 SWAP1 JUMP JUMPDEST PUSH1 0x2 ADD SLOAD PUSH2 0x2710 SWAP1 DUP2 DUP2 MUL SWAP2 DUP2 DUP4 DIV EQ SWAP1 ISZERO OR ISZERO PUSH2 0x2102 JUMPI PUSH2 0x1388 SWAP2 PUSH2 0x20F3 SWAP2 PUSH2 0x206B JUMP JUMPDEST LT PUSH2 0x20FF JUMPI DUP1 DUP1 PUSH2 0x20C6 JUMP JUMPDEST SWAP1 JUMP JUMPDEST PUSH4 0x4E487B71 PUSH1 0xE0 SHL DUP4 MSTORE PUSH1 0x11 PUSH1 0x4 MSTORE PUSH1 0x24 DUP4 REVERT JUMPDEST POP SWAP1 JUMP JUMPDEST AND EQ SWAP1 POP CODESIZE DUP1 DUP1 PUSH2 0x20B3 JUMP JUMPDEST POP POP POP POP POP SWAP1 JUMP JUMPDEST SWAP1 PUSH1 0x0 SWAP2 DUP1 DUP4 MSTORE PUSH1 0x20 PUSH1 0xA DUP2 MSTORE PUSH1 0x40 SWAP4 DUP5 DUP2 KECCAK256 SWAP1 PUSH1 0xB SWAP2 DUP3 DUP2 ADD SLOAD PUSH1 0xC DUP3 ADD SLOAD LT SWAP3 PUSH2 0x2169 DUP5 PUSH1 0xD DUP5 ADD SWAP1 PUSH1 0xFF DUP1 NOT DUP4 SLOAD AND SWAP2 ISZERO ISZERO AND OR SWAP1 SSTORE JUMP JUMPDEST PUSH1 0x4 DUP1 DUP4 ADD PUSH2 0x300 PUSH2 0xFF00 NOT DUP3 SLOAD AND OR SWAP1 SSTORE TIMESTAMP PUSH1 0x10 DUP5 ADD SSTORE PUSH1 0x3 SWAP4 DUP5 DUP5 ADD SLOAD PUSH1 0x6 SLOAD SWAP1 DUP2 DUP2 MUL SWAP2 DUP2 DUP4 DIV EQ SWAP1 ISZERO OR ISZERO PUSH2 0x231D JUMPI PUSH2 0x2710 DUP7 SWAP2 DIV DIV SWAP3 DUP2 SWAP6 PUSH1 0x8 DUP1 SWAP7 ADD SWAP7 JUMPDEST DUP2 DUP2 LT PUSH2 0x21F1 JUMPI POP POP POP POP POP POP POP POP DUP3 SWAP4 SWAP5 PUSH2 0x21EA DUP3 PUSH32 0x5A87909BFF68CAAAAF0B3FD9C74EECCC928832F879315E5C6FB7A73612F26C0C SWAP6 PUSH2 0x2330 JUMP JUMPDEST MLOAD SWAP1 DUP2 MSTORE LOG2 JUMP JUMPDEST DUP1 DUP12 DUP11 DUP16 DUP14 SWAP1 PUSH2 0x2204 PUSH2 0x22D1 SWAP7 DUP15 PUSH2 0x2044 JUMP JUMPDEST SWAP1 SLOAD SWAP1 DUP9 SHL SHR PUSH1 0x1 PUSH1 0x1 PUSH1 0xA0 SHL SUB AND SWAP4 DUP5 ISZERO PUSH2 0x2313 JUMPI DUP10 MSTORE DUP8 DUP3 MSTORE DUP1 DUP10 KECCAK256 DUP5 DUP11 MSTORE DUP3 MSTORE DUP10 DUP2 DUP11 KECCAK256 SWAP4 DUP14 PUSH1 0xFF SWAP1 DUP2 DUP8 SLOAD AND ISZERO PUSH2 0x2306 JUMPI PUSH1 0x9 DUP7 MSTORE DUP5 DUP14 KECCAK256 SWAP7 PUSH1 0x1 DUP9 ADD PUSH2 0x224F DUP2 SLOAD PUSH2 0x1FAC JUMP JUMPDEST SWAP1 SSTORE SLOAD SWAP1 SHR AND ISZERO ISZERO SUB PUSH2 0x22D6 JUMPI DUP4 PUSH1 0x2 PUSH32 0xA6C6250EC856E9379DF1665D0D76A9D2DFE284B7A11A7A6B78F73C4C78CD4644 SWAP6 ADD PUSH2 0x228C DUP2 SLOAD PUSH2 0x1FAC JUMP JUMPDEST SWAP1 SSTORE ADD PUSH2 0x229A DUP13 DUP3 SLOAD PUSH2 0x1F9F JUMP JUMPDEST SWAP1 SSTORE PUSH2 0x22C7 DUP12 DUP6 PUSH32 0x0 PUSH2 0x1F66 JUMP JUMPDEST MLOAD DUP11 DUP2 MSTORE LOG2 PUSH2 0x1FAC JUMP JUMPDEST PUSH2 0x21AD JUMP JUMPDEST POP PUSH32 0xEE8CA2A91B27EA933813D98404446B6A2639794841525E611BA2932EE38C5FE3 SWAP3 POP MLOAD PUSH2 0x1F4 DUP2 MSTORE LOG2 PUSH2 0x1FAC JUMP JUMPDEST POP POP POP POP POP POP POP POP PUSH2 0x1FAC JUMP JUMPDEST POP POP POP POP POP PUSH2 0x1FAC JUMP JUMPDEST POP PUSH1 0x11 PUSH1 0x24 SWAP3 PUSH4 0x4E487B71 PUSH1 0xE0 SHL DUP4 MSTORE MSTORE REVERT JUMPDEST PUSH1 0x0 DUP1 SWAP3 DUP2 SWAP3 DUP3 MSTORE PUSH1 0xA PUSH1 0x20 MSTORE PUSH1 0x40 DUP3 KECCAK256 SWAP1 DUP3 PUSH1 0x1 DUP1 PUSH1 0xA0 SHL SUB PUSH1 0x2 SLOAD AND SWAP3 SLOAD SWAP2 PUSH1 0x40 MLOAD SWAP1 PUSH1 0x20 DUP3 ADD SWAP4 PUSH4 0x18A459C9 PUSH1 0xE0 SHL DUP6 MSTORE PUSH1 0x24 DUP4 ADD MSTORE ISZERO PUSH1 0x44 DUP3 ADD MSTORE PUSH1 0x1 PUSH1 0x64 DUP3 ADD MSTORE PUSH1 0x64 DUP2 MSTORE PUSH2 0x2383 DUP2 PUSH2 0x1CD5 JUMP JUMPDEST MLOAD SWAP3 GAS CALL SWAP1 RETURNDATASIZE ISZERO PUSH2 0x23FC JUMPI RETURNDATASIZE SWAP1 PUSH2 0x2399 DUP3 PUSH2 0x1FC7 JUMP JUMPDEST SWAP2 PUSH2 0x23A7 PUSH1 0x40 MLOAD SWAP4 DUP5 PUSH2 0x1CF0 JUMP JUMPDEST DUP3 MSTORE PUSH1 0x20 RETURNDATASIZE SWAP3 ADD RETURNDATACOPY JUMPDEST ISZERO PUSH2 0x23B7 JUMPI JUMP JUMPDEST PUSH1 0x40 MLOAD PUSH3 0x461BCD PUSH1 0xE5 SHL DUP2 MSTORE PUSH1 0x20 PUSH1 0x4 DUP3 ADD MSTORE PUSH1 0x1B PUSH1 0x24 DUP3 ADD MSTORE PUSH32 0x5265736F6C7574696F6E20657865637574696F6E206661696C65640000000000 PUSH1 0x44 DUP3 ADD MSTORE PUSH1 0x64 SWAP1 REVERT JUMPDEST POP PUSH2 0x23B0 JUMP JUMPDEST PUSH1 0x1 PUSH1 0x1 PUSH1 0xA0 SHL SUB AND PUSH1 0x0 SWAP1 DUP2 MSTORE PUSH1 0x9 PUSH1 0x20 MSTORE PUSH1 0x40 SWAP1 KECCAK256 PUSH1 0x3 DUP2 ADD SLOAD SWAP1 DUP2 ISZERO PUSH2 0x2447 JUMPI PUSH1 0x2 ADD SLOAD SWAP1 PUSH2 0x2710 SWAP2 DUP3 DUP2 MUL SWAP3 DUP2 DUP5 DIV EQ SWAP1 ISZERO OR ISZERO PUSH2 0x1A01 JUMPI PUSH2 0x20FF SWAP2 PUSH2 0x206B JUMP JUMPDEST POP POP PUSH2 0x2710 SWAP1 JUMP INVALID LOG2 PUSH5 0x6970667358 0x22 SLT KECCAK256 0xCE EXP 0x29 0xDF 0xD9 0xA7 MUL 0xD 0xAE NOT BLOCKHASH 0x2A AND 0xEB 0x28 INVALID RETURNDATACOPY 0x23 PUSH19 0x5D11F9013431EE699EB84049F364736F6C6343 STOP ADDMOD EQ STOP CALLER "},"methodIdentifiers":{"addArbitratorStake(uint256)":"e9d8b2df","adminResolve(uint256,bool)":"ae7c18df","arbitratorList(uint256)":"a23ae203","arbitratorRewardBps()":"b64d194b","arbitrators(address)":"51d0ea37","createDispute(bytes32,address,address,uint256,string,uint8)":"01b77adf","disputeCount()":"a28889e1","disputeVotes(uint256,address)":"203d82cb","disputes(uint256)":"564a565d","escrowContract()":"e42a96e7","forceResolve(uint256)":"a34803ad","getActiveArbitratorCount()":"35a0b308","getArbitrator(address)":"388b0c02","getArbitratorAccuracy(address)":"0290c915","getDispute(uint256)":"e3a96cbd","getVote(uint256,address)":"bc3f931f","maxDisputeRateBps()":"15f22be4","minArbitratorStake()":"82c7316e","minArbitratorTrades()":"806b0236","owner()":"8da5cb5b","registerArbitrator(uint256)":"7d3d58b7","renounceOwnership()":"715018a6","setEscrowContract(address)":"f42375b5","setMinArbitratorStake(uint256)":"08f52894","setVotingPeriod(uint256)":"ea0217cf","startVoting(uint256)":"3d2f5bda","submitEvidence(uint256,bytes32)":"912da4db","transferOwnership(address)":"f2fde38b","usdc()":"3e413bee","voteOnDispute(uint256,bool,string)":"e88b9d64","votesRequired()":"0c2891b7","votingPeriod()":"02a251a3","withdrawArbitratorStake()":"642b0e50"}}}}}