{"contracts/P2PEscrow.sol":{"P2PEscrow":{"abi":[{"inputs":[{"internalType":"address","name":"_usdc","type":"address"},{"internalType":"address","name":"_arbitrator","type":"address"}],"stateMutability":"nonpayable","type":"constructor"},{"inputs":[],"name":"EscrowAlreadyExists","type":"error"},{"inputs":[],"name":"EscrowExpired","type":"error"},{"inputs":[],"name":"EscrowNotExpired","type":"error"},{"inputs":[],"name":"EscrowNotFound","type":"error"},{"inputs":[],"name":"InvalidAmount","type":"error"},{"inputs":[],"name":"InvalidStatus","type":"error"},{"inputs":[],"name":"NotAuthorized","type":"error"},{"inputs":[{"internalType":"address","name":"owner","type":"address"}],"name":"OwnableInvalidOwner","type":"error"},{"inputs":[{"internalType":"address","name":"account","type":"address"}],"name":"OwnableUnauthorizedAccount","type":"error"},{"inputs":[],"name":"ReentrancyGuardReentrantCall","type":"error"},{"inputs":[{"internalType":"address","name":"token","type":"address"}],"name":"SafeERC20FailedOperation","type":"error"},{"inputs":[],"name":"TransferFailed","type":"error"},{"anonymous":false,"inputs":[{"indexed":true,"internalType":"address","name":"oldArbitrator","type":"address"},{"indexed":true,"internalType":"address","name":"newArbitrator","type":"address"}],"name":"ArbitratorUpdated","type":"event"},{"anonymous":false,"inputs":[{"indexed":true,"internalType":"bytes32","name":"orderId","type":"bytes32"},{"indexed":true,"internalType":"address","name":"raiser","type":"address"},{"indexed":false,"internalType":"string","name":"reason","type":"string"}],"name":"DisputeRaised","type":"event"},{"anonymous":false,"inputs":[{"indexed":true,"internalType":"bytes32","name":"orderId","type":"bytes32"},{"indexed":true,"internalType":"address","name":"winner","type":"address"},{"indexed":false,"internalType":"uint256","name":"amount","type":"uint256"}],"name":"DisputeResolved","type":"event"},{"anonymous":false,"inputs":[{"indexed":true,"internalType":"bytes32","name":"orderId","type":"bytes32"},{"indexed":true,"internalType":"address","name":"sender","type":"address"},{"indexed":true,"internalType":"address","name":"recipient","type":"address"},{"indexed":false,"internalType":"uint256","name":"amount","type":"uint256"},{"indexed":false,"internalType":"uint256","name":"expiresAt","type":"uint256"}],"name":"EscrowCreated","type":"event"},{"anonymous":false,"inputs":[{"indexed":true,"internalType":"bytes32","name":"orderId","type":"bytes32"},{"indexed":true,"internalType":"address","name":"sender","type":"address"},{"indexed":false,"internalType":"uint256","name":"amount","type":"uint256"}],"name":"EscrowRefunded","type":"event"},{"anonymous":false,"inputs":[{"indexed":true,"internalType":"bytes32","name":"orderId","type":"bytes32"},{"indexed":true,"internalType":"address","name":"recipient","type":"address"},{"indexed":false,"internalType":"uint256","name":"amount","type":"uint256"}],"name":"EscrowReleased","type":"event"},{"anonymous":false,"inputs":[{"indexed":true,"internalType":"address","name":"previousOwner","type":"address"},{"indexed":true,"internalType":"address","name":"newOwner","type":"address"}],"name":"OwnershipTransferred","type":"event"},{"anonymous":false,"inputs":[{"indexed":false,"internalType":"uint256","name":"oldFee","type":"uint256"},{"indexed":false,"internalType":"uint256","name":"newFee","type":"uint256"}],"name":"PlatformFeeUpdated","type":"event"},{"inputs":[],"name":"arbitrator","outputs":[{"internalType":"address","name":"","type":"address"}],"stateMutability":"view","type":"function"},{"inputs":[{"internalType":"bytes32","name":"orderId","type":"bytes32"},{"internalType":"uint256","name":"amount","type":"uint256"},{"internalType":"address","name":"recipient","type":"address"},{"internalType":"uint256","name":"expiresAt","type":"uint256"}],"name":"createEscrow","outputs":[{"internalType":"bytes32","name":"","type":"bytes32"}],"stateMutability":"nonpayable","type":"function"},{"inputs":[],"name":"disputeTimeout","outputs":[{"internalType":"uint256","name":"","type":"uint256"}],"stateMutability":"view","type":"function"},{"inputs":[{"internalType":"bytes32","name":"","type":"bytes32"}],"name":"escrows","outputs":[{"internalType":"address","name":"sender","type":"address"},{"internalType":"address","name":"recipient","type":"address"},{"internalType":"uint256","name":"amount","type":"uint256"},{"internalType":"uint256","name":"fee","type":"uint256"},{"internalType":"enum P2PEscrow.EscrowStatus","name":"status","type":"uint8"},{"internalType":"uint256","name":"createdAt","type":"uint256"},{"internalType":"uint256","name":"expiresAt","type":"uint256"},{"internalType":"uint256","name":"disputedAt","type":"uint256"},{"internalType":"string","name":"disputeReason","type":"string"}],"stateMutability":"view","type":"function"},{"inputs":[{"internalType":"bytes32","name":"orderId","type":"bytes32"}],"name":"getEscrow","outputs":[{"internalType":"address","name":"sender","type":"address"},{"internalType":"address","name":"recipient","type":"address"},{"internalType":"uint256","name":"amount","type":"uint256"},{"internalType":"uint8","name":"status","type":"uint8"},{"internalType":"uint256","name":"createdAt","type":"uint256"},{"internalType":"uint256","name":"expiresAt","type":"uint256"}],"stateMutability":"view","type":"function"},{"inputs":[],"name":"owner","outputs":[{"internalType":"address","name":"","type":"address"}],"stateMutability":"view","type":"function"},{"inputs":[],"name":"platformFeeBps","outputs":[{"internalType":"uint256","name":"","type":"uint256"}],"stateMutability":"view","type":"function"},{"inputs":[{"internalType":"bytes32","name":"orderId","type":"bytes32"},{"internalType":"string","name":"reason","type":"string"}],"name":"raiseDispute","outputs":[{"internalType":"bytes32","name":"","type":"bytes32"}],"stateMutability":"nonpayable","type":"function"},{"inputs":[{"internalType":"bytes32","name":"orderId","type":"bytes32"}],"name":"refundEscrow","outputs":[{"internalType":"bool","name":"","type":"bool"}],"stateMutability":"nonpayable","type":"function"},{"inputs":[{"internalType":"bytes32","name":"orderId","type":"bytes32"}],"name":"releaseEscrow","outputs":[{"internalType":"bool","name":"","type":"bool"}],"stateMutability":"nonpayable","type":"function"},{"inputs":[],"name":"renounceOwnership","outputs":[],"stateMutability":"nonpayable","type":"function"},{"inputs":[{"internalType":"bytes32","name":"orderId","type":"bytes32"},{"internalType":"bool","name":"releaseToRecipient","type":"bool"}],"name":"resolveDispute","outputs":[],"stateMutability":"nonpayable","type":"function"},{"inputs":[{"internalType":"address","name":"_arbitrator","type":"address"}],"name":"setArbitrator","outputs":[],"stateMutability":"nonpayable","type":"function"},{"inputs":[{"internalType":"uint256","name":"_timeout","type":"uint256"}],"name":"setDisputeTimeout","outputs":[],"stateMutability":"nonpayable","type":"function"},{"inputs":[{"internalType":"uint256","name":"_feeBps","type":"uint256"}],"name":"setPlatformFee","outputs":[],"stateMutability":"nonpayable","type":"function"},{"inputs":[{"internalType":"address","name":"newOwner","type":"address"}],"name":"transferOwnership","outputs":[],"stateMutability":"nonpayable","type":"function"},{"inputs":[],"name":"usdc","outputs":[{"internalType":"contract IERC20","name":"","type":"address"}],"stateMutability":"view","type":"function"}],"evm":{"bytecode":{"linkReferences":{},"object":"60a03461011257601f61124638819003918201601f19168301916001600160401b0383118484101761011757808492604094855283398101031261011257610052602061004b8361012d565b920161012d565b600160005533156100f95760018054336001600160a01b031980831682179093556040519492936001600160a01b0393909284929083167f8be0079c531659141344cd1fd0a4f28419497f9722a3daafe3b4186f6b6457e0600080a36032600255620151806003551660805216906005541617600555611104908161014282396080518181816102c20152818161066201528181610b0501528181610bf90152610ca60152f35b604051631e4fbdf760e01b815260006004820152602490fd5b600080fd5b634e487b7160e01b600052604160045260246000fd5b51906001600160a01b03821682036101125756fe6080604052600436101561001257600080fd5b60003560e01c806312e8e2c314610e8457806322dcd13e14610e665780632d83549c14610cd55780633e413bee14610c9057806343a0e3e614610b5a57806347aed50814610a435780636cc6cde114610a1a578063715018a6146109bd5780638da5cb5b14610994578063b0eefabe1461092b578063be7b8a771461070f578063bf89fc61146105d4578063c04c22a4146105b6578063e1231d5014610595578063e5e17ad7146101f4578063f023b811146101655763f2fde38b146100d757600080fd5b34610160576020366003190112610160576100f0610f4e565b6100f8610f64565b6001600160a01b0390811690811561014757600154826001600160601b0360a01b821617600155167f8be0079c531659141344cd1fd0a4f28419497f9722a3daafe3b4186f6b6457e0600080a3005b604051631e4fbdf760e01b815260006004820152602490fd5b600080fd5b34610160576020366003190112610160576004356000526004602052604060002060018060a01b03808254169060018301541660028301549260ff60048201541660068110156101de5760c0946006600584015493015493604051958652602086015260408501526060840152608083015260a0820152f35b634e487b7160e01b600052602160045260246000fd5b34610160576080366003190112610160576044356001600160a01b038116810361016057610220611059565b600435600052600460205260ff6004604060002001541660068110156101de5761058357602435156105715742606435111561055f576002548060243502906024358204036105495761271090049061027b82602435610f90565b604051906323b872dd60e01b602083015233602483015230604483015260648201526064815260a081019080821067ffffffffffffffff831117610533576102e6916040527f0000000000000000000000000000000000000000000000000000000000000000610ff1565b60405191610120830183811067ffffffffffffffff8211176105335760405233835260018060a01b038216602084015260243560408401526060830152600260808301524260a083015260643560c0830152600060e083015260405180602081011067ffffffffffffffff6020830111176105335760208101604052600081526101008301526004356000526004602052604060002060018060a01b038351166001600160601b0360a01b8254161781556001810160018060a01b036020850151166001600160601b0360a01b8254161790556040830151600282015560608301516003820155600481019060808401519060068210156101de576101009260089260ff8019835416911617905560a0850151600582015560c0850151600682015560e085015160078201550192015191825167ffffffffffffffff81116105335761043c816104368454610f14565b84610f9d565b6020601f82116001146104cd57819293946000926104c2575b50508160011b916000199060031b1c19161790555b60408051602435815260643560208201526001600160a01b03909216913391600435917f8233ac661360194ba2d16fa02d354d092808769225032c46dc5787f33af21cbe9190a4600160005560206040516004358152f35b015190508480610455565b601f198216908360005260206000209160005b81811061051b57509583600195969710610502575b505050811b01905561046a565b015160001960f88460031b161c191690558480806104f5565b9192602060018192868b0151815501940192016104e0565b634e487b7160e01b600052604160045260246000fd5b634e487b7160e01b600052601160045260246000fd5b604051633c4fac2d60e01b8152600490fd5b60405163162908e360e11b8152600490fd5b60405163ed77877960e01b8152600490fd5b34610160576020366003190112610160576105ae610f64565b600435600355005b34610160576000366003190112610160576020600354604051908152f35b34610160576020366003190112610160576004356105f0611059565b80600052600460205260406000209060048201805460ff811660068110156101de5780156106fd576002036106eb5783546001600160a01b0390811633036106d9577f3a9c1cd29cd3be251a72ce3c367c27dc1cb697ac4589965b76a83f9a25ca071092600360209360ff19161790557f000000000000000000000000000000000000000000000000000000000000000060018601906003838354169761069e60028201998a54908561107c565b0154806106c3575b505054169354604051908152a36001600055602060405160018152f35b6106d29184600154169061107c565b86806106a6565b60405163ea8e4eb560e01b8152600490fd5b6040516307a92f1960e51b8152600490fd5b60405163f1d80ab160e01b8152600490fd5b346101605760403660031901126101605760043560249081359167ffffffffffffffff908184116101605736602385011215610160578360040135918211610160573681838601011161016057610764611059565b826000526020936004855260406000209060048201805460ff811660068110156109165780156106fd576002036106eb578354336001600160a01b0391821614159081610905575b506106d95786938692600560089360ff191617905542600782015501936107dd826107d78754610f14565b87610f9d565b600094601f83116001146108745782827f49e53fd224357020766ce272815e8a15c300aace14a011cfcded9335798fbd0e9697600092610867575b50508360011b906000198560031b1c19161790555b6040519288845282898501520160408301376000604085830101526040813395601f80199101168101030190a36001600055604051908152f35b860101359050828b610818565b601f1983169581600052896000209660005b8b8282106108e757505090847f49e53fd224357020766ce272815e8a15c300aace14a011cfcded9335798fbd0e979892106108cb575b5050600183811b01905561082d565b8501830135600019600386901b60f8161c1916905589806108bc565b8784018601358a556001909901988b98508a96509283019201610886565b9050600185015416331415896107ac565b85634e487b7160e01b60005260216004526000fd5b3461016057602036600319011261016057610944610f4e565b61094c610f64565b6005546001600160a01b0391821691829082167f0a4eb09e14cf0b6177b79042a04365517d9b189a50ec69eaabc40a6440103c90600080a36001600160a01b03191617600555005b34610160576000366003190112610160576001546040516001600160a01b039091168152602090f35b34610160576000366003190112610160576109d6610f64565b600180546001600160a01b031981169091556000906001600160a01b03167f8be0079c531659141344cd1fd0a4f28419497f9722a3daafe3b4186f6b6457e08280a3005b34610160576000366003190112610160576005546040516001600160a01b039091168152602090f35b3461016057602036600319011261016057600435610a5f611059565b80600052600460205260406000209060048201805460ff811660068110156101de5780156106fd576002036106eb57835460018501546001600160a01b0391821695908216331480610b4d575b863314159081610b44575b506106d9577ffc31a7ddbe933aa6e67f3c98c183fbc87addd2b602fcfb10238d2f85cf02661793600460209460ff1916179055610b296002820196610b028854600385015490610f90565b907f000000000000000000000000000000000000000000000000000000000000000061107c565b54169354604051908152a36001600055602060405160018152f35b90501587610ab7565b5060068101544211610aac565b3461016057604036600319011261016057602435600435811515820361016057610b82611059565b6005546001600160a01b0390811633036106d957816000526004602052604060002092600484019182549260ff841660068110156101de576005036106eb577fe44b3676d6df957def7f6b146c2d11487456be34f4233923b46216cfb196467d9360209315610c595750600360ff198254161790557f0000000000000000000000000000000000000000000000000000000000000000610c4660018701918383541697610c3660028201998a54908461107c565b600385600154169101549161107c565b54169354604051908152a35b6001600055005b60049060ff19161790558085541694610c806002820196610b028854600385015490610f90565b54169354604051908152a3610c52565b34610160576000366003190112610160576040517f00000000000000000000000000000000000000000000000000000000000000006001600160a01b03168152602090f35b34610160576020366003190112610160576004356000526004602052604060002060018060a01b0380825416906001830154166002830154600384015460ff60048601541660058601549060068701549260078801549460405196600060088b01549a610d418c610f14565b808b529b60018116908115610e445750600114610e04575b50889003601f01601f1990811689019a50979867ffffffffffffffff8b118a8c1017610533578a6040528a5260208a01526040890152606088015260068110156101de57608087015260a086015260c085015260e0840152610120610100840181905282519084018190529183919060005b848110610deb575050601f61014093600085828601015201168101030190f35b6020828201810151610140888401015286945001610dcb565b600891500160005260206000206000905b8b8210610e2d57509899508998880160200188610d59565b6001818b6020858195549201015201910190610e15565b9050602092508a9b9c915060ff1916828b0152151560051b8901018a99610d59565b34610160576000366003190112610160576020600254604051908152f35b3461016057602036600319011261016057600435610ea0610f64565b6101f48111610ee0577fd347e206f25a89b917fc9482f1a2d294d749baa4dc9bde7fb495ee11fe49164360406002548151908152836020820152a1600255005b60405162461bcd60e51b815260206004820152600c60248201526b08ccaca40e8dede40d0d2ced60a31b6044820152606490fd5b90600182811c92168015610f44575b6020831014610f2e57565b634e487b7160e01b600052602260045260246000fd5b91607f1691610f23565b600435906001600160a01b038216820361016057565b6001546001600160a01b03163303610f7857565b60405163118cdaa760e01b8152336004820152602490fd5b9190820180921161054957565b90601f8111610fab57505050565b600091825260208220906020601f850160051c83019410610fe7575b601f0160051c01915b828110610fdc57505050565b818155600101610fd0565b9092508290610fc7565b906000602091828151910182855af11561104d576000513d61104457506001600160a01b0381163b155b6110225750565b604051635274afe760e01b81526001600160a01b039091166004820152602490fd5b6001141561101b565b6040513d6000823e3d90fd5b60026000541461106a576002600055565b604051633ee5aeb560e01b8152600490fd5b60405163a9059cbb60e01b60208201526001600160a01b039092166024830152604480830193909352918152608081019167ffffffffffffffff831182841017610533576110cc92604052610ff1565b56fea2646970667358221220098c138208b033f3691388a41ae05d50e00f15b4a514882890f0c5414ae66a7664736f6c63430008140033","opcodes":"PUSH1 0xA0 CALLVALUE PUSH2 0x112 JUMPI PUSH1 0x1F PUSH2 0x1246 CODESIZE DUP2 SWAP1 SUB SWAP2 DUP3 ADD PUSH1 0x1F NOT AND DUP4 ADD SWAP2 PUSH1 0x1 PUSH1 0x1 PUSH1 0x40 SHL SUB DUP4 GT DUP5 DUP5 LT OR PUSH2 0x117 JUMPI DUP1 DUP5 SWAP3 PUSH1 0x40 SWAP5 DUP6 MSTORE DUP4 CODECOPY DUP2 ADD SUB SLT PUSH2 0x112 JUMPI PUSH2 0x52 PUSH1 0x20 PUSH2 0x4B DUP4 PUSH2 0x12D JUMP JUMPDEST SWAP3 ADD PUSH2 0x12D JUMP JUMPDEST PUSH1 0x1 PUSH1 0x0 SSTORE CALLER ISZERO PUSH2 0xF9 JUMPI PUSH1 0x1 DUP1 SLOAD CALLER PUSH1 0x1 PUSH1 0x1 PUSH1 0xA0 SHL SUB NOT DUP1 DUP4 AND DUP3 OR SWAP1 SWAP4 SSTORE PUSH1 0x40 MLOAD SWAP5 SWAP3 SWAP4 PUSH1 0x1 PUSH1 0x1 PUSH1 0xA0 SHL SUB SWAP4 SWAP1 SWAP3 DUP5 SWAP3 SWAP1 DUP4 AND PUSH32 0x8BE0079C531659141344CD1FD0A4F28419497F9722A3DAAFE3B4186F6B6457E0 PUSH1 0x0 DUP1 LOG3 PUSH1 0x32 PUSH1 0x2 SSTORE PUSH3 0x15180 PUSH1 0x3 SSTORE AND PUSH1 0x80 MSTORE AND SWAP1 PUSH1 0x5 SLOAD AND OR PUSH1 0x5 SSTORE PUSH2 0x1104 SWAP1 DUP2 PUSH2 0x142 DUP3 CODECOPY PUSH1 0x80 MLOAD DUP2 DUP2 DUP2 PUSH2 0x2C2 ADD MSTORE DUP2 DUP2 PUSH2 0x662 ADD MSTORE DUP2 DUP2 PUSH2 0xB05 ADD MSTORE DUP2 DUP2 PUSH2 0xBF9 ADD MSTORE PUSH2 0xCA6 ADD MSTORE RETURN JUMPDEST PUSH1 0x40 MLOAD PUSH4 0x1E4FBDF7 PUSH1 0xE0 SHL DUP2 MSTORE PUSH1 0x0 PUSH1 0x4 DUP3 ADD MSTORE PUSH1 0x24 SWAP1 REVERT JUMPDEST PUSH1 0x0 DUP1 REVERT JUMPDEST PUSH4 0x4E487B71 PUSH1 0xE0 SHL PUSH1 0x0 MSTORE PUSH1 0x41 PUSH1 0x4 MSTORE PUSH1 0x24 PUSH1 0x0 REVERT JUMPDEST MLOAD SWAP1 PUSH1 0x1 PUSH1 0x1 PUSH1 0xA0 SHL SUB DUP3 AND DUP3 SUB PUSH2 0x112 JUMPI JUMP INVALID PUSH1 0x80 PUSH1 0x40 MSTORE PUSH1 0x4 CALLDATASIZE LT ISZERO PUSH2 0x12 JUMPI PUSH1 0x0 DUP1 REVERT JUMPDEST PUSH1 0x0 CALLDATALOAD PUSH1 0xE0 SHR DUP1 PUSH4 0x12E8E2C3 EQ PUSH2 0xE84 JUMPI DUP1 PUSH4 0x22DCD13E EQ PUSH2 0xE66 JUMPI DUP1 PUSH4 0x2D83549C EQ PUSH2 0xCD5 JUMPI DUP1 PUSH4 0x3E413BEE EQ PUSH2 0xC90 JUMPI DUP1 PUSH4 0x43A0E3E6 EQ PUSH2 0xB5A JUMPI DUP1 PUSH4 0x47AED508 EQ PUSH2 0xA43 JUMPI DUP1 PUSH4 0x6CC6CDE1 EQ PUSH2 0xA1A JUMPI DUP1 PUSH4 0x715018A6 EQ PUSH2 0x9BD JUMPI DUP1 PUSH4 0x8DA5CB5B EQ PUSH2 0x994 JUMPI DUP1 PUSH4 0xB0EEFABE EQ PUSH2 0x92B JUMPI DUP1 PUSH4 0xBE7B8A77 EQ PUSH2 0x70F JUMPI DUP1 PUSH4 0xBF89FC61 EQ PUSH2 0x5D4 JUMPI DUP1 PUSH4 0xC04C22A4 EQ PUSH2 0x5B6 JUMPI DUP1 PUSH4 0xE1231D50 EQ PUSH2 0x595 JUMPI DUP1 PUSH4 0xE5E17AD7 EQ PUSH2 0x1F4 JUMPI DUP1 PUSH4 0xF023B811 EQ PUSH2 0x165 JUMPI PUSH4 0xF2FDE38B EQ PUSH2 0xD7 JUMPI PUSH1 0x0 DUP1 REVERT JUMPDEST CALLVALUE PUSH2 0x160 JUMPI PUSH1 0x20 CALLDATASIZE PUSH1 0x3 NOT ADD SLT PUSH2 0x160 JUMPI PUSH2 0xF0 PUSH2 0xF4E JUMP JUMPDEST PUSH2 0xF8 PUSH2 0xF64 JUMP JUMPDEST PUSH1 0x1 PUSH1 0x1 PUSH1 0xA0 SHL SUB SWAP1 DUP2 AND SWAP1 DUP2 ISZERO PUSH2 0x147 JUMPI PUSH1 0x1 SLOAD DUP3 PUSH1 0x1 PUSH1 0x1 PUSH1 0x60 SHL SUB PUSH1 0xA0 SHL DUP3 AND OR PUSH1 0x1 SSTORE AND PUSH32 0x8BE0079C531659141344CD1FD0A4F28419497F9722A3DAAFE3B4186F6B6457E0 PUSH1 0x0 DUP1 LOG3 STOP JUMPDEST PUSH1 0x40 MLOAD PUSH4 0x1E4FBDF7 PUSH1 0xE0 SHL DUP2 MSTORE PUSH1 0x0 PUSH1 0x4 DUP3 ADD MSTORE PUSH1 0x24 SWAP1 REVERT JUMPDEST PUSH1 0x0 DUP1 REVERT JUMPDEST CALLVALUE PUSH2 0x160 JUMPI PUSH1 0x20 CALLDATASIZE PUSH1 0x3 NOT ADD SLT PUSH2 0x160 JUMPI PUSH1 0x4 CALLDATALOAD PUSH1 0x0 MSTORE PUSH1 0x4 PUSH1 0x20 MSTORE PUSH1 0x40 PUSH1 0x0 KECCAK256 PUSH1 0x1 DUP1 PUSH1 0xA0 SHL SUB DUP1 DUP3 SLOAD AND SWAP1 PUSH1 0x1 DUP4 ADD SLOAD AND PUSH1 0x2 DUP4 ADD SLOAD SWAP3 PUSH1 0xFF PUSH1 0x4 DUP3 ADD SLOAD AND PUSH1 0x6 DUP2 LT ISZERO PUSH2 0x1DE JUMPI PUSH1 0xC0 SWAP5 PUSH1 0x6 PUSH1 0x5 DUP5 ADD SLOAD SWAP4 ADD SLOAD SWAP4 PUSH1 0x40 MLOAD SWAP6 DUP7 MSTORE PUSH1 0x20 DUP7 ADD MSTORE PUSH1 0x40 DUP6 ADD MSTORE PUSH1 0x60 DUP5 ADD MSTORE PUSH1 0x80 DUP4 ADD MSTORE PUSH1 0xA0 DUP3 ADD MSTORE RETURN JUMPDEST PUSH4 0x4E487B71 PUSH1 0xE0 SHL PUSH1 0x0 MSTORE PUSH1 0x21 PUSH1 0x4 MSTORE PUSH1 0x24 PUSH1 0x0 REVERT JUMPDEST CALLVALUE PUSH2 0x160 JUMPI PUSH1 0x80 CALLDATASIZE PUSH1 0x3 NOT ADD SLT PUSH2 0x160 JUMPI PUSH1 0x44 CALLDATALOAD PUSH1 0x1 PUSH1 0x1 PUSH1 0xA0 SHL SUB DUP2 AND DUP2 SUB PUSH2 0x160 JUMPI PUSH2 0x220 PUSH2 0x1059 JUMP JUMPDEST PUSH1 0x4 CALLDATALOAD PUSH1 0x0 MSTORE PUSH1 0x4 PUSH1 0x20 MSTORE PUSH1 0xFF PUSH1 0x4 PUSH1 0x40 PUSH1 0x0 KECCAK256 ADD SLOAD AND PUSH1 0x6 DUP2 LT ISZERO PUSH2 0x1DE JUMPI PUSH2 0x583 JUMPI PUSH1 0x24 CALLDATALOAD ISZERO PUSH2 0x571 JUMPI TIMESTAMP PUSH1 0x64 CALLDATALOAD GT ISZERO PUSH2 0x55F JUMPI PUSH1 0x2 SLOAD DUP1 PUSH1 0x24 CALLDATALOAD MUL SWAP1 PUSH1 0x24 CALLDATALOAD DUP3 DIV SUB PUSH2 0x549 JUMPI PUSH2 0x2710 SWAP1 DIV SWAP1 PUSH2 0x27B DUP3 PUSH1 0x24 CALLDATALOAD PUSH2 0xF90 JUMP JUMPDEST PUSH1 0x40 MLOAD SWAP1 PUSH4 0x23B872DD PUSH1 0xE0 SHL PUSH1 0x20 DUP4 ADD MSTORE CALLER PUSH1 0x24 DUP4 ADD MSTORE ADDRESS PUSH1 0x44 DUP4 ADD MSTORE PUSH1 0x64 DUP3 ADD MSTORE PUSH1 0x64 DUP2 MSTORE PUSH1 0xA0 DUP2 ADD SWAP1 DUP1 DUP3 LT PUSH8 0xFFFFFFFFFFFFFFFF DUP4 GT OR PUSH2 0x533 JUMPI PUSH2 0x2E6 SWAP2 PUSH1 0x40 MSTORE PUSH32 0x0 PUSH2 0xFF1 JUMP JUMPDEST PUSH1 0x40 MLOAD SWAP2 PUSH2 0x120 DUP4 ADD DUP4 DUP2 LT PUSH8 0xFFFFFFFFFFFFFFFF DUP3 GT OR PUSH2 0x533 JUMPI PUSH1 0x40 MSTORE CALLER DUP4 MSTORE PUSH1 0x1 DUP1 PUSH1 0xA0 SHL SUB DUP3 AND PUSH1 0x20 DUP5 ADD MSTORE PUSH1 0x24 CALLDATALOAD PUSH1 0x40 DUP5 ADD MSTORE PUSH1 0x60 DUP4 ADD MSTORE PUSH1 0x2 PUSH1 0x80 DUP4 ADD MSTORE TIMESTAMP PUSH1 0xA0 DUP4 ADD MSTORE PUSH1 0x64 CALLDATALOAD PUSH1 0xC0 DUP4 ADD MSTORE PUSH1 0x0 PUSH1 0xE0 DUP4 ADD MSTORE PUSH1 0x40 MLOAD DUP1 PUSH1 0x20 DUP2 ADD LT PUSH8 0xFFFFFFFFFFFFFFFF PUSH1 0x20 DUP4 ADD GT OR PUSH2 0x533 JUMPI PUSH1 0x20 DUP2 ADD PUSH1 0x40 MSTORE PUSH1 0x0 DUP2 MSTORE PUSH2 0x100 DUP4 ADD MSTORE PUSH1 0x4 CALLDATALOAD PUSH1 0x0 MSTORE PUSH1 0x4 PUSH1 0x20 MSTORE PUSH1 0x40 PUSH1 0x0 KECCAK256 PUSH1 0x1 DUP1 PUSH1 0xA0 SHL SUB DUP4 MLOAD AND PUSH1 0x1 PUSH1 0x1 PUSH1 0x60 SHL SUB PUSH1 0xA0 SHL DUP3 SLOAD AND OR DUP2 SSTORE PUSH1 0x1 DUP2 ADD PUSH1 0x1 DUP1 PUSH1 0xA0 SHL SUB PUSH1 0x20 DUP6 ADD MLOAD AND PUSH1 0x1 PUSH1 0x1 PUSH1 0x60 SHL SUB PUSH1 0xA0 SHL DUP3 SLOAD AND OR SWAP1 SSTORE PUSH1 0x40 DUP4 ADD MLOAD PUSH1 0x2 DUP3 ADD SSTORE PUSH1 0x60 DUP4 ADD MLOAD PUSH1 0x3 DUP3 ADD SSTORE PUSH1 0x4 DUP2 ADD SWAP1 PUSH1 0x80 DUP5 ADD MLOAD SWAP1 PUSH1 0x6 DUP3 LT ISZERO PUSH2 0x1DE JUMPI PUSH2 0x100 SWAP3 PUSH1 0x8 SWAP3 PUSH1 0xFF DUP1 NOT DUP4 SLOAD AND SWAP2 AND OR SWAP1 SSTORE PUSH1 0xA0 DUP6 ADD MLOAD PUSH1 0x5 DUP3 ADD SSTORE PUSH1 0xC0 DUP6 ADD MLOAD PUSH1 0x6 DUP3 ADD SSTORE PUSH1 0xE0 DUP6 ADD MLOAD PUSH1 0x7 DUP3 ADD SSTORE ADD SWAP3 ADD MLOAD SWAP2 DUP3 MLOAD PUSH8 0xFFFFFFFFFFFFFFFF DUP2 GT PUSH2 0x533 JUMPI PUSH2 0x43C DUP2 PUSH2 0x436 DUP5 SLOAD PUSH2 0xF14 JUMP JUMPDEST DUP5 PUSH2 0xF9D JUMP JUMPDEST PUSH1 0x20 PUSH1 0x1F DUP3 GT PUSH1 0x1 EQ PUSH2 0x4CD JUMPI DUP2 SWAP3 SWAP4 SWAP5 PUSH1 0x0 SWAP3 PUSH2 0x4C2 JUMPI JUMPDEST POP POP DUP2 PUSH1 0x1 SHL SWAP2 PUSH1 0x0 NOT SWAP1 PUSH1 0x3 SHL SHR NOT AND OR SWAP1 SSTORE JUMPDEST PUSH1 0x40 DUP1 MLOAD PUSH1 0x24 CALLDATALOAD DUP2 MSTORE PUSH1 0x64 CALLDATALOAD PUSH1 0x20 DUP3 ADD MSTORE PUSH1 0x1 PUSH1 0x1 PUSH1 0xA0 SHL SUB SWAP1 SWAP3 AND SWAP2 CALLER SWAP2 PUSH1 0x4 CALLDATALOAD SWAP2 PUSH32 0x8233AC661360194BA2D16FA02D354D092808769225032C46DC5787F33AF21CBE SWAP2 SWAP1 LOG4 PUSH1 0x1 PUSH1 0x0 SSTORE PUSH1 0x20 PUSH1 0x40 MLOAD PUSH1 0x4 CALLDATALOAD DUP2 MSTORE RETURN JUMPDEST ADD MLOAD SWAP1 POP DUP5 DUP1 PUSH2 0x455 JUMP JUMPDEST PUSH1 0x1F NOT DUP3 AND SWAP1 DUP4 PUSH1 0x0 MSTORE PUSH1 0x20 PUSH1 0x0 KECCAK256 SWAP2 PUSH1 0x0 JUMPDEST DUP2 DUP2 LT PUSH2 0x51B JUMPI POP SWAP6 DUP4 PUSH1 0x1 SWAP6 SWAP7 SWAP8 LT PUSH2 0x502 JUMPI JUMPDEST POP POP POP DUP2 SHL ADD SWAP1 SSTORE PUSH2 0x46A JUMP JUMPDEST ADD MLOAD PUSH1 0x0 NOT PUSH1 0xF8 DUP5 PUSH1 0x3 SHL AND SHR NOT AND SWAP1 SSTORE DUP5 DUP1 DUP1 PUSH2 0x4F5 JUMP JUMPDEST SWAP2 SWAP3 PUSH1 0x20 PUSH1 0x1 DUP2 SWAP3 DUP7 DUP12 ADD MLOAD DUP2 SSTORE ADD SWAP5 ADD SWAP3 ADD PUSH2 0x4E0 JUMP JUMPDEST PUSH4 0x4E487B71 PUSH1 0xE0 SHL PUSH1 0x0 MSTORE PUSH1 0x41 PUSH1 0x4 MSTORE PUSH1 0x24 PUSH1 0x0 REVERT JUMPDEST PUSH4 0x4E487B71 PUSH1 0xE0 SHL PUSH1 0x0 MSTORE PUSH1 0x11 PUSH1 0x4 MSTORE PUSH1 0x24 PUSH1 0x0 REVERT JUMPDEST PUSH1 0x40 MLOAD PUSH4 0x3C4FAC2D PUSH1 0xE0 SHL DUP2 MSTORE PUSH1 0x4 SWAP1 REVERT JUMPDEST PUSH1 0x40 MLOAD PUSH4 0x162908E3 PUSH1 0xE1 SHL DUP2 MSTORE PUSH1 0x4 SWAP1 REVERT JUMPDEST PUSH1 0x40 MLOAD PUSH4 0xED778779 PUSH1 0xE0 SHL DUP2 MSTORE PUSH1 0x4 SWAP1 REVERT JUMPDEST CALLVALUE PUSH2 0x160 JUMPI PUSH1 0x20 CALLDATASIZE PUSH1 0x3 NOT ADD SLT PUSH2 0x160 JUMPI PUSH2 0x5AE PUSH2 0xF64 JUMP JUMPDEST PUSH1 0x4 CALLDATALOAD PUSH1 0x3 SSTORE STOP JUMPDEST CALLVALUE PUSH2 0x160 JUMPI PUSH1 0x0 CALLDATASIZE PUSH1 0x3 NOT ADD SLT PUSH2 0x160 JUMPI PUSH1 0x20 PUSH1 0x3 SLOAD PUSH1 0x40 MLOAD SWAP1 DUP2 MSTORE RETURN JUMPDEST CALLVALUE PUSH2 0x160 JUMPI PUSH1 0x20 CALLDATASIZE PUSH1 0x3 NOT ADD SLT PUSH2 0x160 JUMPI PUSH1 0x4 CALLDATALOAD PUSH2 0x5F0 PUSH2 0x1059 JUMP JUMPDEST DUP1 PUSH1 0x0 MSTORE PUSH1 0x4 PUSH1 0x20 MSTORE PUSH1 0x40 PUSH1 0x0 KECCAK256 SWAP1 PUSH1 0x4 DUP3 ADD DUP1 SLOAD PUSH1 0xFF DUP2 AND PUSH1 0x6 DUP2 LT ISZERO PUSH2 0x1DE JUMPI DUP1 ISZERO PUSH2 0x6FD JUMPI PUSH1 0x2 SUB PUSH2 0x6EB JUMPI DUP4 SLOAD PUSH1 0x1 PUSH1 0x1 PUSH1 0xA0 SHL SUB SWAP1 DUP2 AND CALLER SUB PUSH2 0x6D9 JUMPI PUSH32 0x3A9C1CD29CD3BE251A72CE3C367C27DC1CB697AC4589965B76A83F9A25CA0710 SWAP3 PUSH1 0x3 PUSH1 0x20 SWAP4 PUSH1 0xFF NOT AND OR SWAP1 SSTORE PUSH32 0x0 PUSH1 0x1 DUP7 ADD SWAP1 PUSH1 0x3 DUP4 DUP4 SLOAD AND SWAP8 PUSH2 0x69E PUSH1 0x2 DUP3 ADD SWAP10 DUP11 SLOAD SWAP1 DUP6 PUSH2 0x107C JUMP JUMPDEST ADD SLOAD DUP1 PUSH2 0x6C3 JUMPI JUMPDEST POP POP SLOAD AND SWAP4 SLOAD PUSH1 0x40 MLOAD SWAP1 DUP2 MSTORE LOG3 PUSH1 0x1 PUSH1 0x0 SSTORE PUSH1 0x20 PUSH1 0x40 MLOAD PUSH1 0x1 DUP2 MSTORE RETURN JUMPDEST PUSH2 0x6D2 SWAP2 DUP5 PUSH1 0x1 SLOAD AND SWAP1 PUSH2 0x107C JUMP JUMPDEST DUP7 DUP1 PUSH2 0x6A6 JUMP JUMPDEST PUSH1 0x40 MLOAD PUSH4 0xEA8E4EB5 PUSH1 0xE0 SHL DUP2 MSTORE PUSH1 0x4 SWAP1 REVERT JUMPDEST PUSH1 0x40 MLOAD PUSH4 0x7A92F19 PUSH1 0xE5 SHL DUP2 MSTORE PUSH1 0x4 SWAP1 REVERT JUMPDEST PUSH1 0x40 MLOAD PUSH4 0xF1D80AB1 PUSH1 0xE0 SHL DUP2 MSTORE PUSH1 0x4 SWAP1 REVERT JUMPDEST CALLVALUE PUSH2 0x160 JUMPI PUSH1 0x40 CALLDATASIZE PUSH1 0x3 NOT ADD SLT PUSH2 0x160 JUMPI PUSH1 0x4 CALLDATALOAD PUSH1 0x24 SWAP1 DUP2 CALLDATALOAD SWAP2 PUSH8 0xFFFFFFFFFFFFFFFF SWAP1 DUP2 DUP5 GT PUSH2 0x160 JUMPI CALLDATASIZE PUSH1 0x23 DUP6 ADD SLT ISZERO PUSH2 0x160 JUMPI DUP4 PUSH1 0x4 ADD CALLDATALOAD SWAP2 DUP3 GT PUSH2 0x160 JUMPI CALLDATASIZE DUP2 DUP4 DUP7 ADD ADD GT PUSH2 0x160 JUMPI PUSH2 0x764 PUSH2 0x1059 JUMP JUMPDEST DUP3 PUSH1 0x0 MSTORE PUSH1 0x20 SWAP4 PUSH1 0x4 DUP6 MSTORE PUSH1 0x40 PUSH1 0x0 KECCAK256 SWAP1 PUSH1 0x4 DUP3 ADD DUP1 SLOAD PUSH1 0xFF DUP2 AND PUSH1 0x6 DUP2 LT ISZERO PUSH2 0x916 JUMPI DUP1 ISZERO PUSH2 0x6FD JUMPI PUSH1 0x2 SUB PUSH2 0x6EB JUMPI DUP4 SLOAD CALLER PUSH1 0x1 PUSH1 0x1 PUSH1 0xA0 SHL SUB SWAP2 DUP3 AND EQ ISZERO SWAP1 DUP2 PUSH2 0x905 JUMPI JUMPDEST POP PUSH2 0x6D9 JUMPI DUP7 SWAP4 DUP7 SWAP3 PUSH1 0x5 PUSH1 0x8 SWAP4 PUSH1 0xFF NOT AND OR SWAP1 SSTORE TIMESTAMP PUSH1 0x7 DUP3 ADD SSTORE ADD SWAP4 PUSH2 0x7DD DUP3 PUSH2 0x7D7 DUP8 SLOAD PUSH2 0xF14 JUMP JUMPDEST DUP8 PUSH2 0xF9D JUMP JUMPDEST PUSH1 0x0 SWAP5 PUSH1 0x1F DUP4 GT PUSH1 0x1 EQ PUSH2 0x874 JUMPI DUP3 DUP3 PUSH32 0x49E53FD224357020766CE272815E8A15C300AACE14A011CFCDED9335798FBD0E SWAP7 SWAP8 PUSH1 0x0 SWAP3 PUSH2 0x867 JUMPI JUMPDEST POP POP DUP4 PUSH1 0x1 SHL SWAP1 PUSH1 0x0 NOT DUP6 PUSH1 0x3 SHL SHR NOT AND OR SWAP1 SSTORE JUMPDEST PUSH1 0x40 MLOAD SWAP3 DUP9 DUP5 MSTORE DUP3 DUP10 DUP6 ADD MSTORE ADD PUSH1 0x40 DUP4 ADD CALLDATACOPY PUSH1 0x0 PUSH1 0x40 DUP6 DUP4 ADD ADD MSTORE PUSH1 0x40 DUP2 CALLER SWAP6 PUSH1 0x1F DUP1 NOT SWAP2 ADD AND DUP2 ADD SUB ADD SWAP1 LOG3 PUSH1 0x1 PUSH1 0x0 SSTORE PUSH1 0x40 MLOAD SWAP1 DUP2 MSTORE RETURN JUMPDEST DUP7 ADD ADD CALLDATALOAD SWAP1 POP DUP3 DUP12 PUSH2 0x818 JUMP JUMPDEST PUSH1 0x1F NOT DUP4 AND SWAP6 DUP2 PUSH1 0x0 MSTORE DUP10 PUSH1 0x0 KECCAK256 SWAP7 PUSH1 0x0 JUMPDEST DUP12 DUP3 DUP3 LT PUSH2 0x8E7 JUMPI POP POP SWAP1 DUP5 PUSH32 0x49E53FD224357020766CE272815E8A15C300AACE14A011CFCDED9335798FBD0E SWAP8 SWAP9 SWAP3 LT PUSH2 0x8CB JUMPI JUMPDEST POP POP PUSH1 0x1 DUP4 DUP2 SHL ADD SWAP1 SSTORE PUSH2 0x82D JUMP JUMPDEST DUP6 ADD DUP4 ADD CALLDATALOAD PUSH1 0x0 NOT PUSH1 0x3 DUP7 SWAP1 SHL PUSH1 0xF8 AND SHR NOT AND SWAP1 SSTORE DUP10 DUP1 PUSH2 0x8BC JUMP JUMPDEST DUP8 DUP5 ADD DUP7 ADD CALLDATALOAD DUP11 SSTORE PUSH1 0x1 SWAP1 SWAP10 ADD SWAP9 DUP12 SWAP9 POP DUP11 SWAP7 POP SWAP3 DUP4 ADD SWAP3 ADD PUSH2 0x886 JUMP JUMPDEST SWAP1 POP PUSH1 0x1 DUP6 ADD SLOAD AND CALLER EQ ISZERO DUP10 PUSH2 0x7AC JUMP JUMPDEST DUP6 PUSH4 0x4E487B71 PUSH1 0xE0 SHL PUSH1 0x0 MSTORE PUSH1 0x21 PUSH1 0x4 MSTORE PUSH1 0x0 REVERT JUMPDEST CALLVALUE PUSH2 0x160 JUMPI PUSH1 0x20 CALLDATASIZE PUSH1 0x3 NOT ADD SLT PUSH2 0x160 JUMPI PUSH2 0x944 PUSH2 0xF4E JUMP JUMPDEST PUSH2 0x94C PUSH2 0xF64 JUMP JUMPDEST PUSH1 0x5 SLOAD PUSH1 0x1 PUSH1 0x1 PUSH1 0xA0 SHL SUB SWAP2 DUP3 AND SWAP2 DUP3 SWAP1 DUP3 AND PUSH32 0xA4EB09E14CF0B6177B79042A04365517D9B189A50EC69EAABC40A6440103C90 PUSH1 0x0 DUP1 LOG3 PUSH1 0x1 PUSH1 0x1 PUSH1 0xA0 SHL SUB NOT AND OR PUSH1 0x5 SSTORE STOP JUMPDEST CALLVALUE PUSH2 0x160 JUMPI PUSH1 0x0 CALLDATASIZE PUSH1 0x3 NOT ADD SLT PUSH2 0x160 JUMPI PUSH1 0x1 SLOAD PUSH1 0x40 MLOAD PUSH1 0x1 PUSH1 0x1 PUSH1 0xA0 SHL SUB SWAP1 SWAP2 AND DUP2 MSTORE PUSH1 0x20 SWAP1 RETURN JUMPDEST CALLVALUE PUSH2 0x160 JUMPI PUSH1 0x0 CALLDATASIZE PUSH1 0x3 NOT ADD SLT PUSH2 0x160 JUMPI PUSH2 0x9D6 PUSH2 0xF64 JUMP JUMPDEST PUSH1 0x1 DUP1 SLOAD PUSH1 0x1 PUSH1 0x1 PUSH1 0xA0 SHL SUB NOT DUP2 AND SWAP1 SWAP2 SSTORE PUSH1 0x0 SWAP1 PUSH1 0x1 PUSH1 0x1 PUSH1 0xA0 SHL SUB AND PUSH32 0x8BE0079C531659141344CD1FD0A4F28419497F9722A3DAAFE3B4186F6B6457E0 DUP3 DUP1 LOG3 STOP JUMPDEST CALLVALUE PUSH2 0x160 JUMPI PUSH1 0x0 CALLDATASIZE PUSH1 0x3 NOT ADD SLT PUSH2 0x160 JUMPI PUSH1 0x5 SLOAD PUSH1 0x40 MLOAD PUSH1 0x1 PUSH1 0x1 PUSH1 0xA0 SHL SUB SWAP1 SWAP2 AND DUP2 MSTORE PUSH1 0x20 SWAP1 RETURN JUMPDEST CALLVALUE PUSH2 0x160 JUMPI PUSH1 0x20 CALLDATASIZE PUSH1 0x3 NOT ADD SLT PUSH2 0x160 JUMPI PUSH1 0x4 CALLDATALOAD PUSH2 0xA5F PUSH2 0x1059 JUMP JUMPDEST DUP1 PUSH1 0x0 MSTORE PUSH1 0x4 PUSH1 0x20 MSTORE PUSH1 0x40 PUSH1 0x0 KECCAK256 SWAP1 PUSH1 0x4 DUP3 ADD DUP1 SLOAD PUSH1 0xFF DUP2 AND PUSH1 0x6 DUP2 LT ISZERO PUSH2 0x1DE JUMPI DUP1 ISZERO PUSH2 0x6FD JUMPI PUSH1 0x2 SUB PUSH2 0x6EB JUMPI DUP4 SLOAD PUSH1 0x1 DUP6 ADD SLOAD PUSH1 0x1 PUSH1 0x1 PUSH1 0xA0 SHL SUB SWAP2 DUP3 AND SWAP6 SWAP1 DUP3 AND CALLER EQ DUP1 PUSH2 0xB4D JUMPI JUMPDEST DUP7 CALLER EQ ISZERO SWAP1 DUP2 PUSH2 0xB44 JUMPI JUMPDEST POP PUSH2 0x6D9 JUMPI PUSH32 0xFC31A7DDBE933AA6E67F3C98C183FBC87ADDD2B602FCFB10238D2F85CF026617 SWAP4 PUSH1 0x4 PUSH1 0x20 SWAP5 PUSH1 0xFF NOT AND OR SWAP1 SSTORE PUSH2 0xB29 PUSH1 0x2 DUP3 ADD SWAP7 PUSH2 0xB02 DUP9 SLOAD PUSH1 0x3 DUP6 ADD SLOAD SWAP1 PUSH2 0xF90 JUMP JUMPDEST SWAP1 PUSH32 0x0 PUSH2 0x107C JUMP JUMPDEST SLOAD AND SWAP4 SLOAD PUSH1 0x40 MLOAD SWAP1 DUP2 MSTORE LOG3 PUSH1 0x1 PUSH1 0x0 SSTORE PUSH1 0x20 PUSH1 0x40 MLOAD PUSH1 0x1 DUP2 MSTORE RETURN JUMPDEST SWAP1 POP ISZERO DUP8 PUSH2 0xAB7 JUMP JUMPDEST POP PUSH1 0x6 DUP2 ADD SLOAD TIMESTAMP GT PUSH2 0xAAC JUMP JUMPDEST CALLVALUE PUSH2 0x160 JUMPI PUSH1 0x40 CALLDATASIZE PUSH1 0x3 NOT ADD SLT PUSH2 0x160 JUMPI PUSH1 0x24 CALLDATALOAD PUSH1 0x4 CALLDATALOAD DUP2 ISZERO ISZERO DUP3 SUB PUSH2 0x160 JUMPI PUSH2 0xB82 PUSH2 0x1059 JUMP JUMPDEST PUSH1 0x5 SLOAD PUSH1 0x1 PUSH1 0x1 PUSH1 0xA0 SHL SUB SWAP1 DUP2 AND CALLER SUB PUSH2 0x6D9 JUMPI DUP2 PUSH1 0x0 MSTORE PUSH1 0x4 PUSH1 0x20 MSTORE PUSH1 0x40 PUSH1 0x0 KECCAK256 SWAP3 PUSH1 0x4 DUP5 ADD SWAP2 DUP3 SLOAD SWAP3 PUSH1 0xFF DUP5 AND PUSH1 0x6 DUP2 LT ISZERO PUSH2 0x1DE JUMPI PUSH1 0x5 SUB PUSH2 0x6EB JUMPI PUSH32 0xE44B3676D6DF957DEF7F6B146C2D11487456BE34F4233923B46216CFB196467D SWAP4 PUSH1 0x20 SWAP4 ISZERO PUSH2 0xC59 JUMPI POP PUSH1 0x3 PUSH1 0xFF NOT DUP3 SLOAD AND OR SWAP1 SSTORE PUSH32 0x0 PUSH2 0xC46 PUSH1 0x1 DUP8 ADD SWAP2 DUP4 DUP4 SLOAD AND SWAP8 PUSH2 0xC36 PUSH1 0x2 DUP3 ADD SWAP10 DUP11 SLOAD SWAP1 DUP5 PUSH2 0x107C JUMP JUMPDEST PUSH1 0x3 DUP6 PUSH1 0x1 SLOAD AND SWAP2 ADD SLOAD SWAP2 PUSH2 0x107C JUMP JUMPDEST SLOAD AND SWAP4 SLOAD PUSH1 0x40 MLOAD SWAP1 DUP2 MSTORE LOG3 JUMPDEST PUSH1 0x1 PUSH1 0x0 SSTORE STOP JUMPDEST PUSH1 0x4 SWAP1 PUSH1 0xFF NOT AND OR SWAP1 SSTORE DUP1 DUP6 SLOAD AND SWAP5 PUSH2 0xC80 PUSH1 0x2 DUP3 ADD SWAP7 PUSH2 0xB02 DUP9 SLOAD PUSH1 0x3 DUP6 ADD SLOAD SWAP1 PUSH2 0xF90 JUMP JUMPDEST SLOAD AND SWAP4 SLOAD PUSH1 0x40 MLOAD SWAP1 DUP2 MSTORE LOG3 PUSH2 0xC52 JUMP JUMPDEST CALLVALUE PUSH2 0x160 JUMPI PUSH1 0x0 CALLDATASIZE PUSH1 0x3 NOT ADD SLT PUSH2 0x160 JUMPI PUSH1 0x40 MLOAD PUSH32 0x0 PUSH1 0x1 PUSH1 0x1 PUSH1 0xA0 SHL SUB AND DUP2 MSTORE PUSH1 0x20 SWAP1 RETURN JUMPDEST CALLVALUE PUSH2 0x160 JUMPI PUSH1 0x20 CALLDATASIZE PUSH1 0x3 NOT ADD SLT PUSH2 0x160 JUMPI PUSH1 0x4 CALLDATALOAD PUSH1 0x0 MSTORE PUSH1 0x4 PUSH1 0x20 MSTORE PUSH1 0x40 PUSH1 0x0 KECCAK256 PUSH1 0x1 DUP1 PUSH1 0xA0 SHL SUB DUP1 DUP3 SLOAD AND SWAP1 PUSH1 0x1 DUP4 ADD SLOAD AND PUSH1 0x2 DUP4 ADD SLOAD PUSH1 0x3 DUP5 ADD SLOAD PUSH1 0xFF PUSH1 0x4 DUP7 ADD SLOAD AND PUSH1 0x5 DUP7 ADD SLOAD SWAP1 PUSH1 0x6 DUP8 ADD SLOAD SWAP3 PUSH1 0x7 DUP9 ADD SLOAD SWAP5 PUSH1 0x40 MLOAD SWAP7 PUSH1 0x0 PUSH1 0x8 DUP12 ADD SLOAD SWAP11 PUSH2 0xD41 DUP13 PUSH2 0xF14 JUMP JUMPDEST DUP1 DUP12 MSTORE SWAP12 PUSH1 0x1 DUP2 AND SWAP1 DUP2 ISZERO PUSH2 0xE44 JUMPI POP PUSH1 0x1 EQ PUSH2 0xE04 JUMPI JUMPDEST POP DUP9 SWAP1 SUB PUSH1 0x1F ADD PUSH1 0x1F NOT SWAP1 DUP2 AND DUP10 ADD SWAP11 POP SWAP8 SWAP9 PUSH8 0xFFFFFFFFFFFFFFFF DUP12 GT DUP11 DUP13 LT OR PUSH2 0x533 JUMPI DUP11 PUSH1 0x40 MSTORE DUP11 MSTORE PUSH1 0x20 DUP11 ADD MSTORE PUSH1 0x40 DUP10 ADD MSTORE PUSH1 0x60 DUP9 ADD MSTORE PUSH1 0x6 DUP2 LT ISZERO PUSH2 0x1DE JUMPI PUSH1 0x80 DUP8 ADD MSTORE PUSH1 0xA0 DUP7 ADD MSTORE PUSH1 0xC0 DUP6 ADD MSTORE PUSH1 0xE0 DUP5 ADD MSTORE PUSH2 0x120 PUSH2 0x100 DUP5 ADD DUP2 SWAP1 MSTORE DUP3 MLOAD SWAP1 DUP5 ADD DUP2 SWAP1 MSTORE SWAP2 DUP4 SWAP2 SWAP1 PUSH1 0x0 JUMPDEST DUP5 DUP2 LT PUSH2 0xDEB JUMPI POP POP PUSH1 0x1F PUSH2 0x140 SWAP4 PUSH1 0x0 DUP6 DUP3 DUP7 ADD ADD MSTORE ADD AND DUP2 ADD SUB ADD SWAP1 RETURN JUMPDEST PUSH1 0x20 DUP3 DUP3 ADD DUP2 ADD MLOAD PUSH2 0x140 DUP9 DUP5 ADD ADD MSTORE DUP7 SWAP5 POP ADD PUSH2 0xDCB JUMP JUMPDEST PUSH1 0x8 SWAP2 POP ADD PUSH1 0x0 MSTORE PUSH1 0x20 PUSH1 0x0 KECCAK256 PUSH1 0x0 SWAP1 JUMPDEST DUP12 DUP3 LT PUSH2 0xE2D JUMPI POP SWAP9 SWAP10 POP DUP10 SWAP9 DUP9 ADD PUSH1 0x20 ADD DUP9 PUSH2 0xD59 JUMP JUMPDEST PUSH1 0x1 DUP2 DUP12 PUSH1 0x20 DUP6 DUP2 SWAP6 SLOAD SWAP3 ADD ADD MSTORE ADD SWAP2 ADD SWAP1 PUSH2 0xE15 JUMP JUMPDEST SWAP1 POP PUSH1 0x20 SWAP3 POP DUP11 SWAP12 SWAP13 SWAP2 POP PUSH1 0xFF NOT AND DUP3 DUP12 ADD MSTORE ISZERO ISZERO PUSH1 0x5 SHL DUP10 ADD ADD DUP11 SWAP10 PUSH2 0xD59 JUMP JUMPDEST CALLVALUE PUSH2 0x160 JUMPI PUSH1 0x0 CALLDATASIZE PUSH1 0x3 NOT ADD SLT PUSH2 0x160 JUMPI PUSH1 0x20 PUSH1 0x2 SLOAD PUSH1 0x40 MLOAD SWAP1 DUP2 MSTORE RETURN JUMPDEST CALLVALUE PUSH2 0x160 JUMPI PUSH1 0x20 CALLDATASIZE PUSH1 0x3 NOT ADD SLT PUSH2 0x160 JUMPI PUSH1 0x4 CALLDATALOAD PUSH2 0xEA0 PUSH2 0xF64 JUMP JUMPDEST PUSH2 0x1F4 DUP2 GT PUSH2 0xEE0 JUMPI PUSH32 0xD347E206F25A89B917FC9482F1A2D294D749BAA4DC9BDE7FB495EE11FE491643 PUSH1 0x40 PUSH1 0x2 SLOAD DUP2 MLOAD SWAP1 DUP2 MSTORE DUP4 PUSH1 0x20 DUP3 ADD MSTORE LOG1 PUSH1 0x2 SSTORE STOP JUMPDEST PUSH1 0x40 MLOAD PUSH3 0x461BCD PUSH1 0xE5 SHL DUP2 MSTORE PUSH1 0x20 PUSH1 0x4 DUP3 ADD MSTORE PUSH1 0xC PUSH1 0x24 DUP3 ADD MSTORE PUSH12 0x8CCACA40E8DEDE40D0D2CED PUSH1 0xA3 SHL PUSH1 0x44 DUP3 ADD MSTORE PUSH1 0x64 SWAP1 REVERT JUMPDEST SWAP1 PUSH1 0x1 DUP3 DUP2 SHR SWAP3 AND DUP1 ISZERO PUSH2 0xF44 JUMPI JUMPDEST PUSH1 0x20 DUP4 LT EQ PUSH2 0xF2E JUMPI JUMP JUMPDEST PUSH4 0x4E487B71 PUSH1 0xE0 SHL PUSH1 0x0 MSTORE PUSH1 0x22 PUSH1 0x4 MSTORE PUSH1 0x24 PUSH1 0x0 REVERT JUMPDEST SWAP2 PUSH1 0x7F AND SWAP2 PUSH2 0xF23 JUMP JUMPDEST PUSH1 0x4 CALLDATALOAD SWAP1 PUSH1 0x1 PUSH1 0x1 PUSH1 0xA0 SHL SUB DUP3 AND DUP3 SUB PUSH2 0x160 JUMPI JUMP JUMPDEST PUSH1 0x1 SLOAD PUSH1 0x1 PUSH1 0x1 PUSH1 0xA0 SHL SUB AND CALLER SUB PUSH2 0xF78 JUMPI JUMP JUMPDEST PUSH1 0x40 MLOAD PUSH4 0x118CDAA7 PUSH1 0xE0 SHL DUP2 MSTORE CALLER PUSH1 0x4 DUP3 ADD MSTORE PUSH1 0x24 SWAP1 REVERT JUMPDEST SWAP2 SWAP1 DUP3 ADD DUP1 SWAP3 GT PUSH2 0x549 JUMPI JUMP JUMPDEST SWAP1 PUSH1 0x1F DUP2 GT PUSH2 0xFAB JUMPI POP POP POP JUMP JUMPDEST PUSH1 0x0 SWAP2 DUP3 MSTORE PUSH1 0x20 DUP3 KECCAK256 SWAP1 PUSH1 0x20 PUSH1 0x1F DUP6 ADD PUSH1 0x5 SHR DUP4 ADD SWAP5 LT PUSH2 0xFE7 JUMPI JUMPDEST PUSH1 0x1F ADD PUSH1 0x5 SHR ADD SWAP2 JUMPDEST DUP3 DUP2 LT PUSH2 0xFDC JUMPI POP POP POP JUMP JUMPDEST DUP2 DUP2 SSTORE PUSH1 0x1 ADD PUSH2 0xFD0 JUMP JUMPDEST SWAP1 SWAP3 POP DUP3 SWAP1 PUSH2 0xFC7 JUMP JUMPDEST SWAP1 PUSH1 0x0 PUSH1 0x20 SWAP2 DUP3 DUP2 MLOAD SWAP2 ADD DUP3 DUP6 GAS CALL ISZERO PUSH2 0x104D JUMPI PUSH1 0x0 MLOAD RETURNDATASIZE PUSH2 0x1044 JUMPI POP PUSH1 0x1 PUSH1 0x1 PUSH1 0xA0 SHL SUB DUP2 AND EXTCODESIZE ISZERO JUMPDEST PUSH2 0x1022 JUMPI POP JUMP JUMPDEST PUSH1 0x40 MLOAD PUSH4 0x5274AFE7 PUSH1 0xE0 SHL DUP2 MSTORE PUSH1 0x1 PUSH1 0x1 PUSH1 0xA0 SHL SUB SWAP1 SWAP2 AND PUSH1 0x4 DUP3 ADD MSTORE PUSH1 0x24 SWAP1 REVERT JUMPDEST PUSH1 0x1 EQ ISZERO PUSH2 0x101B JUMP JUMPDEST PUSH1 0x40 MLOAD RETURNDATASIZE PUSH1 0x0 DUP3 RETURNDATACOPY RETURNDATASIZE SWAP1 REVERT JUMPDEST PUSH1 0x2 PUSH1 0x0 SLOAD EQ PUSH2 0x106A JUMPI PUSH1 0x2 PUSH1 0x0 SSTORE JUMP JUMPDEST PUSH1 0x40 MLOAD PUSH4 0x3EE5AEB5 PUSH1 0xE0 SHL DUP2 MSTORE PUSH1 0x4 SWAP1 REVERT JUMPDEST PUSH1 0x40 MLOAD PUSH4 0xA9059CBB PUSH1 0xE0 SHL PUSH1 0x20 DUP3 ADD MSTORE PUSH1 0x1 PUSH1 0x1 PUSH1 0xA0 SHL SUB SWAP1 SWAP3 AND PUSH1 0x24 DUP4 ADD MSTORE PUSH1 0x44 DUP1 DUP4 ADD SWAP4 SWAP1 SWAP4 MSTORE SWAP2 DUP2 MSTORE PUSH1 0x80 DUP2 ADD SWAP2 PUSH8 0xFFFFFFFFFFFFFFFF DUP4 GT DUP3 DUP5 LT OR PUSH2 0x533 JUMPI PUSH2 0x10CC SWAP3 PUSH1 0x40 MSTORE PUSH2 0xFF1 JUMP JUMPDEST JUMP INVALID LOG2 PUSH5 0x6970667358 0x22 SLT KECCAK256 MULMOD DUP13 SGT DUP3 ADDMOD 0xB0 CALLER RETURN PUSH10 0x1388A41AE05D50E00F15 0xB4 0xA5 EQ DUP9 0x28 SWAP1 CREATE 0xC5 COINBASE 0x4A 0xE6 PUSH11 0x7664736F6C634300081400 CALLER "},"methodIdentifiers":{"arbitrator()":"6cc6cde1","createEscrow(bytes32,uint256,address,uint256)":"e5e17ad7","disputeTimeout()":"c04c22a4","escrows(bytes32)":"2d83549c","getEscrow(bytes32)":"f023b811","owner()":"8da5cb5b","platformFeeBps()":"22dcd13e","raiseDispute(bytes32,string)":"be7b8a77","refundEscrow(bytes32)":"47aed508","releaseEscrow(bytes32)":"bf89fc61","renounceOwnership()":"715018a6","resolveDispute(bytes32,bool)":"43a0e3e6","setArbitrator(address)":"b0eefabe","setDisputeTimeout(uint256)":"e1231d50","setPlatformFee(uint256)":"12e8e2c3","transferOwnership(address)":"f2fde38b","usdc()":"3e413bee"}}}}}