{"contracts/TrustScore.sol":{"TrustScore":{"abi":[{"inputs":[],"stateMutability":"nonpayable","type":"constructor"},{"inputs":[],"name":"NotAuthorized","type":"error"},{"inputs":[{"internalType":"address","name":"owner","type":"address"}],"name":"OwnableInvalidOwner","type":"error"},{"inputs":[{"internalType":"address","name":"account","type":"address"}],"name":"OwnableUnauthorizedAccount","type":"error"},{"anonymous":false,"inputs":[{"indexed":true,"internalType":"address","name":"contractAddr","type":"address"},{"indexed":false,"internalType":"bool","name":"status","type":"bool"}],"name":"ContractAuthorized","type":"event"},{"anonymous":false,"inputs":[{"indexed":true,"internalType":"address","name":"user","type":"address"},{"indexed":false,"internalType":"bool","name":"lost","type":"bool"}],"name":"DisputeRecorded","type":"event"},{"anonymous":false,"inputs":[{"indexed":true,"internalType":"address","name":"user","type":"address"},{"indexed":false,"internalType":"bool","name":"isLP","type":"bool"},{"indexed":false,"internalType":"uint256","name":"stake","type":"uint256"}],"name":"LPStatusUpdated","type":"event"},{"anonymous":false,"inputs":[{"indexed":true,"internalType":"address","name":"previousOwner","type":"address"},{"indexed":true,"internalType":"address","name":"newOwner","type":"address"}],"name":"OwnershipTransferred","type":"event"},{"anonymous":false,"inputs":[{"indexed":true,"internalType":"address","name":"user","type":"address"},{"indexed":false,"internalType":"uint256","name":"volume","type":"uint256"},{"indexed":false,"internalType":"bool","name":"asSeller","type":"bool"}],"name":"TradeCompleted","type":"event"},{"inputs":[{"internalType":"address","name":"contractAddr","type":"address"},{"internalType":"bool","name":"status","type":"bool"}],"name":"authorizeContract","outputs":[],"stateMutability":"nonpayable","type":"function"},{"inputs":[{"internalType":"address","name":"","type":"address"}],"name":"authorizedContracts","outputs":[{"internalType":"bool","name":"","type":"bool"}],"stateMutability":"view","type":"function"},{"inputs":[{"internalType":"address","name":"user","type":"address"}],"name":"getReputation","outputs":[{"internalType":"uint256","name":"completedTrades","type":"uint256"},{"internalType":"uint256","name":"totalVolume","type":"uint256"},{"internalType":"uint256","name":"successfulReleases","type":"uint256"},{"internalType":"uint256","name":"disputes","type":"uint256"},{"internalType":"uint256","name":"disputesLost","type":"uint256"},{"internalType":"bool","name":"isLP","type":"bool"}],"stateMutability":"view","type":"function"},{"inputs":[{"internalType":"address","name":"user","type":"address"}],"name":"getTrustScore","outputs":[{"internalType":"uint256","name":"score","type":"uint256"}],"stateMutability":"view","type":"function"},{"inputs":[],"name":"owner","outputs":[{"internalType":"address","name":"","type":"address"}],"stateMutability":"view","type":"function"},{"inputs":[{"internalType":"address","name":"user","type":"address"},{"internalType":"bool","name":"lost","type":"bool"}],"name":"recordDispute","outputs":[],"stateMutability":"nonpayable","type":"function"},{"inputs":[{"internalType":"address","name":"user","type":"address"},{"internalType":"uint256","name":"volume","type":"uint256"},{"internalType":"bool","name":"asSeller","type":"bool"}],"name":"recordTrade","outputs":[],"stateMutability":"nonpayable","type":"function"},{"inputs":[],"name":"renounceOwnership","outputs":[],"stateMutability":"nonpayable","type":"function"},{"inputs":[{"internalType":"address","name":"","type":"address"}],"name":"reputations","outputs":[{"internalType":"uint256","name":"completedTrades","type":"uint256"},{"internalType":"uint256","name":"totalVolume","type":"uint256"},{"internalType":"uint256","name":"successfulReleases","type":"uint256"},{"internalType":"uint256","name":"disputes","type":"uint256"},{"internalType":"uint256","name":"disputesLost","type":"uint256"},{"internalType":"uint256","name":"firstTradeAt","type":"uint256"},{"internalType":"uint256","name":"lastTradeAt","type":"uint256"},{"internalType":"bool","name":"isLP","type":"bool"},{"internalType":"uint256","name":"lpStake","type":"uint256"}],"stateMutability":"view","type":"function"},{"inputs":[{"internalType":"address","name":"newOwner","type":"address"}],"name":"transferOwnership","outputs":[],"stateMutability":"nonpayable","type":"function"},{"inputs":[{"internalType":"address","name":"user","type":"address"},{"internalType":"bool","name":"isLP","type":"bool"},{"internalType":"uint256","name":"stake","type":"uint256"}],"name":"updateLPStatus","outputs":[],"stateMutability":"nonpayable","type":"function"}],"evm":{"bytecode":{"linkReferences":{},"object":"608060405234801561001057600080fd5b50338061003757604051631e4fbdf760e01b81526000600482015260240160405180910390fd5b61004081610046565b50610096565b600080546001600160a01b038381166001600160a01b0319831681178455604051919092169283917f8be0079c531659141344cd1fd0a4f28419497f9722a3daafe3b4186f6b6457e09190a35050565b610a1b806100a56000396000f3fe608060405234801561001057600080fd5b50600436106100a95760003560e01c8063715018a611610071578063715018a6146101b35780638da5cb5b146101bb5780639c89a0e2146101d6578063d5b9221b14610258578063ec8e33151461028b578063f2fde38b1461029e57600080fd5b806306fa15a7146100ae57806315cab8581461015757806358d3b6dc1461016c5780635cbeb13f1461017f5780635e09eea114610192575b600080fd5b61010c6100bc366004610874565b600160208190526000918252604090912080549181015460028201546003830154600484015460058501546006860154600787015460089097015495969495939492939192909160ff9091169089565b60408051998a5260208a0198909852968801959095526060870193909352608086019190915260a085015260c0840152151560e0830152610100820152610120015b60405180910390f35b61016a6101653660046108a6565b6102b1565b005b61016a61017a3660046108e2565b6103c2565b61016a61018d3660046108e2565b6104a0565b6101a56101a0366004610874565b610507565b60405190815260200161014e565b61016a6106d0565b6000546040516001600160a01b03909116815260200161014e565b6102296101e4366004610874565b6001600160a01b031660009081526001602081905260409091208054918101546002820154600383015460048401546007909401549495929491939092909160ff1690565b6040805196875260208701959095529385019290925260608401526080830152151560a082015260c00161014e565b61027b610266366004610874565b60026020526000908152604090205460ff1681565b604051901515815260200161014e565b61016a610299366004610915565b6106e4565b61016a6102ac366004610874565b610798565b3360009081526002602052604090205460ff161580156102dc57506000546001600160a01b03163314155b156102fa5760405163ea8e4eb560e01b815260040160405180910390fd5b6001600160a01b038316600090815260016020526040812080549091829061032183610967565b91905055508281600101600082825461033a9190610980565b90915550504260068201556005810154600003610358574260058201555b81156103765760028101805490600061037083610967565b91905055505b6040805184815283151560208201526001600160a01b038616917fcfd30d126aa5a3043354a7ccf72d9a3cde98fe6f3897607733bd3e37994fa7e091015b60405180910390a250505050565b3360009081526002602052604090205460ff161580156103ed57506000546001600160a01b03163314155b1561040b5760405163ea8e4eb560e01b815260040160405180910390fd5b6001600160a01b0382166000908152600160205260408120600381018054919261043483610967565b919050555081156104575760048101805490600061045183610967565b91905055505b826001600160a01b03167ed8ca6270a334ee5388ec816cae052b09de3dc70ba557a8dfa6c4d157a7604f83604051610493911515815260200190565b60405180910390a2505050565b6104a86107db565b6001600160a01b038216600081815260026020908152604091829020805460ff191685151590811790915591519182527f3213ab8ec2ed122402f038736b41878b69ae9f61f49a7edd0666bce891d29fc9910160405180910390a25050565b6001600160a01b0381166000908152600160205260408120805482036105305750603292915050565b6000606482600001541161055d57815460649061054e90601e610999565b61055891906109b0565b610560565b601e5b905060006402540be40083600101541161059a576402540be4008360010154601461058b9190610999565b61059591906109b0565b61059d565b60145b90506000808460000154116105b35760006105cf565b835460028501546105c5906019610999565b6105cf91906109b0565b90506000808560030154116105e5576000610604565b600385015460048601546105fa906014610999565b61060491906109b0565b9050600085600501544261061891906109d2565b905060006301e133808211610646576301e1338061063783600f610999565b61064191906109b0565b610649565b600f5b600788015490915060009060ff16610662576000610665565b600a5b60ff169050808286610677898b610980565b6106819190610980565b61068b9190610980565b6106959190610980565b9850838911156106b0576106a9848a6109d2565b98506106b5565b600098505b60648911156106c357606498505b5050505050505050919050565b6106d86107db565b6106e26000610808565b565b3360009081526002602052604090205460ff1615801561070f57506000546001600160a01b03163314155b1561072d5760405163ea8e4eb560e01b815260040160405180910390fd5b6001600160a01b03831660008181526001602090815260409182902060078101805460ff191687151590811790915560088201869055835190815291820185905292917f61b533fa06bbd4d40df291592912fedc474d9c8d752bde5c7eab266db146cbbc91016103b4565b6107a06107db565b6001600160a01b0381166107cf57604051631e4fbdf760e01b8152600060048201526024015b60405180910390fd5b6107d881610808565b50565b6000546001600160a01b031633146106e25760405163118cdaa760e01b81523360048201526024016107c6565b600080546001600160a01b038381166001600160a01b0319831681178455604051919092169283917f8be0079c531659141344cd1fd0a4f28419497f9722a3daafe3b4186f6b6457e09190a35050565b80356001600160a01b038116811461086f57600080fd5b919050565b60006020828403121561088657600080fd5b61088f82610858565b9392505050565b8035801515811461086f57600080fd5b6000806000606084860312156108bb57600080fd5b6108c484610858565b9250602084013591506108d960408501610896565b90509250925092565b600080604083850312156108f557600080fd5b6108fe83610858565b915061090c60208401610896565b90509250929050565b60008060006060848603121561092a57600080fd5b61093384610858565b925061094160208501610896565b9150604084013590509250925092565b634e487b7160e01b600052601160045260246000fd5b60006001820161097957610979610951565b5060010190565b8082018082111561099357610993610951565b92915050565b808202811582820484141761099357610993610951565b6000826109cd57634e487b7160e01b600052601260045260246000fd5b500490565b818103818111156109935761099361095156fea2646970667358221220c11146d2f74bd2a4539d34fabed7d7b55c075c4de97dcb163b5ac39a119a709564736f6c63430008140033","opcodes":"PUSH1 0x80 PUSH1 0x40 MSTORE CALLVALUE DUP1 ISZERO PUSH2 0x10 JUMPI PUSH1 0x0 DUP1 REVERT JUMPDEST POP CALLER DUP1 PUSH2 0x37 JUMPI PUSH1 0x40 MLOAD PUSH4 0x1E4FBDF7 PUSH1 0xE0 SHL DUP2 MSTORE PUSH1 0x0 PUSH1 0x4 DUP3 ADD MSTORE PUSH1 0x24 ADD PUSH1 0x40 MLOAD DUP1 SWAP2 SUB SWAP1 REVERT JUMPDEST PUSH2 0x40 DUP2 PUSH2 0x46 JUMP JUMPDEST POP PUSH2 0x96 JUMP JUMPDEST PUSH1 0x0 DUP1 SLOAD PUSH1 0x1 PUSH1 0x1 PUSH1 0xA0 SHL SUB DUP4 DUP2 AND PUSH1 0x1 PUSH1 0x1 PUSH1 0xA0 SHL SUB NOT DUP4 AND DUP2 OR DUP5 SSTORE PUSH1 0x40 MLOAD SWAP2 SWAP1 SWAP3 AND SWAP3 DUP4 SWAP2 PUSH32 0x8BE0079C531659141344CD1FD0A4F28419497F9722A3DAAFE3B4186F6B6457E0 SWAP2 SWAP1 LOG3 POP POP JUMP JUMPDEST PUSH2 0xA1B DUP1 PUSH2 0xA5 PUSH1 0x0 CODECOPY PUSH1 0x0 RETURN INVALID PUSH1 0x80 PUSH1 0x40 MSTORE CALLVALUE DUP1 ISZERO PUSH2 0x10 JUMPI PUSH1 0x0 DUP1 REVERT JUMPDEST POP PUSH1 0x4 CALLDATASIZE LT PUSH2 0xA9 JUMPI PUSH1 0x0 CALLDATALOAD PUSH1 0xE0 SHR DUP1 PUSH4 0x715018A6 GT PUSH2 0x71 JUMPI DUP1 PUSH4 0x715018A6 EQ PUSH2 0x1B3 JUMPI DUP1 PUSH4 0x8DA5CB5B EQ PUSH2 0x1BB JUMPI DUP1 PUSH4 0x9C89A0E2 EQ PUSH2 0x1D6 JUMPI DUP1 PUSH4 0xD5B9221B EQ PUSH2 0x258 JUMPI DUP1 PUSH4 0xEC8E3315 EQ PUSH2 0x28B JUMPI DUP1 PUSH4 0xF2FDE38B EQ PUSH2 0x29E JUMPI PUSH1 0x0 DUP1 REVERT JUMPDEST DUP1 PUSH4 0x6FA15A7 EQ PUSH2 0xAE JUMPI DUP1 PUSH4 0x15CAB858 EQ PUSH2 0x157 JUMPI DUP1 PUSH4 0x58D3B6DC EQ PUSH2 0x16C JUMPI DUP1 PUSH4 0x5CBEB13F EQ PUSH2 0x17F JUMPI DUP1 PUSH4 0x5E09EEA1 EQ PUSH2 0x192 JUMPI JUMPDEST PUSH1 0x0 DUP1 REVERT JUMPDEST PUSH2 0x10C PUSH2 0xBC CALLDATASIZE PUSH1 0x4 PUSH2 0x874 JUMP JUMPDEST PUSH1 0x1 PUSH1 0x20 DUP2 SWAP1 MSTORE PUSH1 0x0 SWAP2 DUP3 MSTORE PUSH1 0x40 SWAP1 SWAP2 KECCAK256 DUP1 SLOAD SWAP2 DUP2 ADD SLOAD PUSH1 0x2 DUP3 ADD SLOAD PUSH1 0x3 DUP4 ADD SLOAD PUSH1 0x4 DUP5 ADD SLOAD PUSH1 0x5 DUP6 ADD SLOAD PUSH1 0x6 DUP7 ADD SLOAD PUSH1 0x7 DUP8 ADD SLOAD PUSH1 0x8 SWAP1 SWAP8 ADD SLOAD SWAP6 SWAP7 SWAP5 SWAP6 SWAP4 SWAP5 SWAP3 SWAP4 SWAP2 SWAP3 SWAP1 SWAP2 PUSH1 0xFF SWAP1 SWAP2 AND SWAP1 DUP10 JUMP JUMPDEST PUSH1 0x40 DUP1 MLOAD SWAP10 DUP11 MSTORE PUSH1 0x20 DUP11 ADD SWAP9 SWAP1 SWAP9 MSTORE SWAP7 DUP9 ADD SWAP6 SWAP1 SWAP6 MSTORE PUSH1 0x60 DUP8 ADD SWAP4 SWAP1 SWAP4 MSTORE PUSH1 0x80 DUP7 ADD SWAP2 SWAP1 SWAP2 MSTORE PUSH1 0xA0 DUP6 ADD MSTORE PUSH1 0xC0 DUP5 ADD MSTORE ISZERO ISZERO PUSH1 0xE0 DUP4 ADD MSTORE PUSH2 0x100 DUP3 ADD MSTORE PUSH2 0x120 ADD JUMPDEST PUSH1 0x40 MLOAD DUP1 SWAP2 SUB SWAP1 RETURN JUMPDEST PUSH2 0x16A PUSH2 0x165 CALLDATASIZE PUSH1 0x4 PUSH2 0x8A6 JUMP JUMPDEST PUSH2 0x2B1 JUMP JUMPDEST STOP JUMPDEST PUSH2 0x16A PUSH2 0x17A CALLDATASIZE PUSH1 0x4 PUSH2 0x8E2 JUMP JUMPDEST PUSH2 0x3C2 JUMP JUMPDEST PUSH2 0x16A PUSH2 0x18D CALLDATASIZE PUSH1 0x4 PUSH2 0x8E2 JUMP JUMPDEST PUSH2 0x4A0 JUMP JUMPDEST PUSH2 0x1A5 PUSH2 0x1A0 CALLDATASIZE PUSH1 0x4 PUSH2 0x874 JUMP JUMPDEST PUSH2 0x507 JUMP JUMPDEST PUSH1 0x40 MLOAD SWAP1 DUP2 MSTORE PUSH1 0x20 ADD PUSH2 0x14E JUMP JUMPDEST PUSH2 0x16A PUSH2 0x6D0 JUMP JUMPDEST PUSH1 0x0 SLOAD PUSH1 0x40 MLOAD PUSH1 0x1 PUSH1 0x1 PUSH1 0xA0 SHL SUB SWAP1 SWAP2 AND DUP2 MSTORE PUSH1 0x20 ADD PUSH2 0x14E JUMP JUMPDEST PUSH2 0x229 PUSH2 0x1E4 CALLDATASIZE PUSH1 0x4 PUSH2 0x874 JUMP JUMPDEST PUSH1 0x1 PUSH1 0x1 PUSH1 0xA0 SHL SUB AND PUSH1 0x0 SWAP1 DUP2 MSTORE PUSH1 0x1 PUSH1 0x20 DUP2 SWAP1 MSTORE PUSH1 0x40 SWAP1 SWAP2 KECCAK256 DUP1 SLOAD SWAP2 DUP2 ADD SLOAD PUSH1 0x2 DUP3 ADD SLOAD PUSH1 0x3 DUP4 ADD SLOAD PUSH1 0x4 DUP5 ADD SLOAD PUSH1 0x7 SWAP1 SWAP5 ADD SLOAD SWAP5 SWAP6 SWAP3 SWAP5 SWAP2 SWAP4 SWAP1 SWAP3 SWAP1 SWAP2 PUSH1 0xFF AND SWAP1 JUMP JUMPDEST PUSH1 0x40 DUP1 MLOAD SWAP7 DUP8 MSTORE PUSH1 0x20 DUP8 ADD SWAP6 SWAP1 SWAP6 MSTORE SWAP4 DUP6 ADD SWAP3 SWAP1 SWAP3 MSTORE PUSH1 0x60 DUP5 ADD MSTORE PUSH1 0x80 DUP4 ADD MSTORE ISZERO ISZERO PUSH1 0xA0 DUP3 ADD MSTORE PUSH1 0xC0 ADD PUSH2 0x14E JUMP JUMPDEST PUSH2 0x27B PUSH2 0x266 CALLDATASIZE PUSH1 0x4 PUSH2 0x874 JUMP JUMPDEST PUSH1 0x2 PUSH1 0x20 MSTORE PUSH1 0x0 SWAP1 DUP2 MSTORE PUSH1 0x40 SWAP1 KECCAK256 SLOAD PUSH1 0xFF AND DUP2 JUMP JUMPDEST PUSH1 0x40 MLOAD SWAP1 ISZERO ISZERO DUP2 MSTORE PUSH1 0x20 ADD PUSH2 0x14E JUMP JUMPDEST PUSH2 0x16A PUSH2 0x299 CALLDATASIZE PUSH1 0x4 PUSH2 0x915 JUMP JUMPDEST PUSH2 0x6E4 JUMP JUMPDEST PUSH2 0x16A PUSH2 0x2AC CALLDATASIZE PUSH1 0x4 PUSH2 0x874 JUMP JUMPDEST PUSH2 0x798 JUMP JUMPDEST CALLER PUSH1 0x0 SWAP1 DUP2 MSTORE PUSH1 0x2 PUSH1 0x20 MSTORE PUSH1 0x40 SWAP1 KECCAK256 SLOAD PUSH1 0xFF AND ISZERO DUP1 ISZERO PUSH2 0x2DC JUMPI POP PUSH1 0x0 SLOAD PUSH1 0x1 PUSH1 0x1 PUSH1 0xA0 SHL SUB AND CALLER EQ ISZERO JUMPDEST ISZERO PUSH2 0x2FA JUMPI PUSH1 0x40 MLOAD PUSH4 0xEA8E4EB5 PUSH1 0xE0 SHL DUP2 MSTORE PUSH1 0x4 ADD PUSH1 0x40 MLOAD DUP1 SWAP2 SUB SWAP1 REVERT JUMPDEST PUSH1 0x1 PUSH1 0x1 PUSH1 0xA0 SHL SUB DUP4 AND PUSH1 0x0 SWAP1 DUP2 MSTORE PUSH1 0x1 PUSH1 0x20 MSTORE PUSH1 0x40 DUP2 KECCAK256 DUP1 SLOAD SWAP1 SWAP2 DUP3 SWAP1 PUSH2 0x321 DUP4 PUSH2 0x967 JUMP JUMPDEST SWAP2 SWAP1 POP SSTORE POP DUP3 DUP2 PUSH1 0x1 ADD PUSH1 0x0 DUP3 DUP3 SLOAD PUSH2 0x33A SWAP2 SWAP1 PUSH2 0x980 JUMP JUMPDEST SWAP1 SWAP2 SSTORE POP POP TIMESTAMP PUSH1 0x6 DUP3 ADD SSTORE PUSH1 0x5 DUP2 ADD SLOAD PUSH1 0x0 SUB PUSH2 0x358 JUMPI TIMESTAMP PUSH1 0x5 DUP3 ADD SSTORE JUMPDEST DUP2 ISZERO PUSH2 0x376 JUMPI PUSH1 0x2 DUP2 ADD DUP1 SLOAD SWAP1 PUSH1 0x0 PUSH2 0x370 DUP4 PUSH2 0x967 JUMP JUMPDEST SWAP2 SWAP1 POP SSTORE POP JUMPDEST PUSH1 0x40 DUP1 MLOAD DUP5 DUP2 MSTORE DUP4 ISZERO ISZERO PUSH1 0x20 DUP3 ADD MSTORE PUSH1 0x1 PUSH1 0x1 PUSH1 0xA0 SHL SUB DUP7 AND SWAP2 PUSH32 0xCFD30D126AA5A3043354A7CCF72D9A3CDE98FE6F3897607733BD3E37994FA7E0 SWAP2 ADD JUMPDEST PUSH1 0x40 MLOAD DUP1 SWAP2 SUB SWAP1 LOG2 POP POP POP POP JUMP JUMPDEST CALLER PUSH1 0x0 SWAP1 DUP2 MSTORE PUSH1 0x2 PUSH1 0x20 MSTORE PUSH1 0x40 SWAP1 KECCAK256 SLOAD PUSH1 0xFF AND ISZERO DUP1 ISZERO PUSH2 0x3ED JUMPI POP PUSH1 0x0 SLOAD PUSH1 0x1 PUSH1 0x1 PUSH1 0xA0 SHL SUB AND CALLER EQ ISZERO JUMPDEST ISZERO PUSH2 0x40B JUMPI PUSH1 0x40 MLOAD PUSH4 0xEA8E4EB5 PUSH1 0xE0 SHL DUP2 MSTORE PUSH1 0x4 ADD PUSH1 0x40 MLOAD DUP1 SWAP2 SUB SWAP1 REVERT JUMPDEST PUSH1 0x1 PUSH1 0x1 PUSH1 0xA0 SHL SUB DUP3 AND PUSH1 0x0 SWAP1 DUP2 MSTORE PUSH1 0x1 PUSH1 0x20 MSTORE PUSH1 0x40 DUP2 KECCAK256 PUSH1 0x3 DUP2 ADD DUP1 SLOAD SWAP2 SWAP3 PUSH2 0x434 DUP4 PUSH2 0x967 JUMP JUMPDEST SWAP2 SWAP1 POP SSTORE POP DUP2 ISZERO PUSH2 0x457 JUMPI PUSH1 0x4 DUP2 ADD DUP1 SLOAD SWAP1 PUSH1 0x0 PUSH2 0x451 DUP4 PUSH2 0x967 JUMP JUMPDEST SWAP2 SWAP1 POP SSTORE POP JUMPDEST DUP3 PUSH1 0x1 PUSH1 0x1 PUSH1 0xA0 SHL SUB AND PUSH31 0xD8CA6270A334EE5388EC816CAE052B09DE3DC70BA557A8DFA6C4D157A7604F DUP4 PUSH1 0x40 MLOAD PUSH2 0x493 SWAP2 ISZERO ISZERO DUP2 MSTORE PUSH1 0x20 ADD SWAP1 JUMP JUMPDEST PUSH1 0x40 MLOAD DUP1 SWAP2 SUB SWAP1 LOG2 POP POP POP JUMP JUMPDEST PUSH2 0x4A8 PUSH2 0x7DB JUMP JUMPDEST PUSH1 0x1 PUSH1 0x1 PUSH1 0xA0 SHL SUB DUP3 AND PUSH1 0x0 DUP2 DUP2 MSTORE PUSH1 0x2 PUSH1 0x20 SWAP1 DUP2 MSTORE PUSH1 0x40 SWAP2 DUP3 SWAP1 KECCAK256 DUP1 SLOAD PUSH1 0xFF NOT AND DUP6 ISZERO ISZERO SWAP1 DUP2 OR SWAP1 SWAP2 SSTORE SWAP2 MLOAD SWAP2 DUP3 MSTORE PUSH32 0x3213AB8EC2ED122402F038736B41878B69AE9F61F49A7EDD0666BCE891D29FC9 SWAP2 ADD PUSH1 0x40 MLOAD DUP1 SWAP2 SUB SWAP1 LOG2 POP POP JUMP JUMPDEST PUSH1 0x1 PUSH1 0x1 PUSH1 0xA0 SHL SUB DUP2 AND PUSH1 0x0 SWAP1 DUP2 MSTORE PUSH1 0x1 PUSH1 0x20 MSTORE PUSH1 0x40 DUP2 KECCAK256 DUP1 SLOAD DUP3 SUB PUSH2 0x530 JUMPI POP PUSH1 0x32 SWAP3 SWAP2 POP POP JUMP JUMPDEST PUSH1 0x0 PUSH1 0x64 DUP3 PUSH1 0x0 ADD SLOAD GT PUSH2 0x55D JUMPI DUP2 SLOAD PUSH1 0x64 SWAP1 PUSH2 0x54E SWAP1 PUSH1 0x1E PUSH2 0x999 JUMP JUMPDEST PUSH2 0x558 SWAP2 SWAP1 PUSH2 0x9B0 JUMP JUMPDEST PUSH2 0x560 JUMP JUMPDEST PUSH1 0x1E JUMPDEST SWAP1 POP PUSH1 0x0 PUSH5 0x2540BE400 DUP4 PUSH1 0x1 ADD SLOAD GT PUSH2 0x59A JUMPI PUSH5 0x2540BE400 DUP4 PUSH1 0x1 ADD SLOAD PUSH1 0x14 PUSH2 0x58B SWAP2 SWAP1 PUSH2 0x999 JUMP JUMPDEST PUSH2 0x595 SWAP2 SWAP1 PUSH2 0x9B0 JUMP JUMPDEST PUSH2 0x59D JUMP JUMPDEST PUSH1 0x14 JUMPDEST SWAP1 POP PUSH1 0x0 DUP1 DUP5 PUSH1 0x0 ADD SLOAD GT PUSH2 0x5B3 JUMPI PUSH1 0x0 PUSH2 0x5CF JUMP JUMPDEST DUP4 SLOAD PUSH1 0x2 DUP6 ADD SLOAD PUSH2 0x5C5 SWAP1 PUSH1 0x19 PUSH2 0x999 JUMP JUMPDEST PUSH2 0x5CF SWAP2 SWAP1 PUSH2 0x9B0 JUMP JUMPDEST SWAP1 POP PUSH1 0x0 DUP1 DUP6 PUSH1 0x3 ADD SLOAD GT PUSH2 0x5E5 JUMPI PUSH1 0x0 PUSH2 0x604 JUMP JUMPDEST PUSH1 0x3 DUP6 ADD SLOAD PUSH1 0x4 DUP7 ADD SLOAD PUSH2 0x5FA SWAP1 PUSH1 0x14 PUSH2 0x999 JUMP JUMPDEST PUSH2 0x604 SWAP2 SWAP1 PUSH2 0x9B0 JUMP JUMPDEST SWAP1 POP PUSH1 0x0 DUP6 PUSH1 0x5 ADD SLOAD TIMESTAMP PUSH2 0x618 SWAP2 SWAP1 PUSH2 0x9D2 JUMP JUMPDEST SWAP1 POP PUSH1 0x0 PUSH4 0x1E13380 DUP3 GT PUSH2 0x646 JUMPI PUSH4 0x1E13380 PUSH2 0x637 DUP4 PUSH1 0xF PUSH2 0x999 JUMP JUMPDEST PUSH2 0x641 SWAP2 SWAP1 PUSH2 0x9B0 JUMP JUMPDEST PUSH2 0x649 JUMP JUMPDEST PUSH1 0xF JUMPDEST PUSH1 0x7 DUP9 ADD SLOAD SWAP1 SWAP2 POP PUSH1 0x0 SWAP1 PUSH1 0xFF AND PUSH2 0x662 JUMPI PUSH1 0x0 PUSH2 0x665 JUMP JUMPDEST PUSH1 0xA JUMPDEST PUSH1 0xFF AND SWAP1 POP DUP1 DUP3 DUP7 PUSH2 0x677 DUP10 DUP12 PUSH2 0x980 JUMP JUMPDEST PUSH2 0x681 SWAP2 SWAP1 PUSH2 0x980 JUMP JUMPDEST PUSH2 0x68B SWAP2 SWAP1 PUSH2 0x980 JUMP JUMPDEST PUSH2 0x695 SWAP2 SWAP1 PUSH2 0x980 JUMP JUMPDEST SWAP9 POP DUP4 DUP10 GT ISZERO PUSH2 0x6B0 JUMPI PUSH2 0x6A9 DUP5 DUP11 PUSH2 0x9D2 JUMP JUMPDEST SWAP9 POP PUSH2 0x6B5 JUMP JUMPDEST PUSH1 0x0 SWAP9 POP JUMPDEST PUSH1 0x64 DUP10 GT ISZERO PUSH2 0x6C3 JUMPI PUSH1 0x64 SWAP9 POP JUMPDEST POP POP POP POP POP POP POP POP SWAP2 SWAP1 POP JUMP JUMPDEST PUSH2 0x6D8 PUSH2 0x7DB JUMP JUMPDEST PUSH2 0x6E2 PUSH1 0x0 PUSH2 0x808 JUMP JUMPDEST JUMP JUMPDEST CALLER PUSH1 0x0 SWAP1 DUP2 MSTORE PUSH1 0x2 PUSH1 0x20 MSTORE PUSH1 0x40 SWAP1 KECCAK256 SLOAD PUSH1 0xFF AND ISZERO DUP1 ISZERO PUSH2 0x70F JUMPI POP PUSH1 0x0 SLOAD PUSH1 0x1 PUSH1 0x1 PUSH1 0xA0 SHL SUB AND CALLER EQ ISZERO JUMPDEST ISZERO PUSH2 0x72D JUMPI PUSH1 0x40 MLOAD PUSH4 0xEA8E4EB5 PUSH1 0xE0 SHL DUP2 MSTORE PUSH1 0x4 ADD PUSH1 0x40 MLOAD DUP1 SWAP2 SUB SWAP1 REVERT JUMPDEST PUSH1 0x1 PUSH1 0x1 PUSH1 0xA0 SHL SUB DUP4 AND PUSH1 0x0 DUP2 DUP2 MSTORE PUSH1 0x1 PUSH1 0x20 SWAP1 DUP2 MSTORE PUSH1 0x40 SWAP2 DUP3 SWAP1 KECCAK256 PUSH1 0x7 DUP2 ADD DUP1 SLOAD PUSH1 0xFF NOT AND DUP8 ISZERO ISZERO SWAP1 DUP2 OR SWAP1 SWAP2 SSTORE PUSH1 0x8 DUP3 ADD DUP7 SWAP1 SSTORE DUP4 MLOAD SWAP1 DUP2 MSTORE SWAP2 DUP3 ADD DUP6 SWAP1 MSTORE SWAP3 SWAP2 PUSH32 0x61B533FA06BBD4D40DF291592912FEDC474D9C8D752BDE5C7EAB266DB146CBBC SWAP2 ADD PUSH2 0x3B4 JUMP JUMPDEST PUSH2 0x7A0 PUSH2 0x7DB JUMP JUMPDEST PUSH1 0x1 PUSH1 0x1 PUSH1 0xA0 SHL SUB DUP2 AND PUSH2 0x7CF JUMPI PUSH1 0x40 MLOAD PUSH4 0x1E4FBDF7 PUSH1 0xE0 SHL DUP2 MSTORE PUSH1 0x0 PUSH1 0x4 DUP3 ADD MSTORE PUSH1 0x24 ADD JUMPDEST PUSH1 0x40 MLOAD DUP1 SWAP2 SUB SWAP1 REVERT JUMPDEST PUSH2 0x7D8 DUP2 PUSH2 0x808 JUMP JUMPDEST POP JUMP JUMPDEST PUSH1 0x0 SLOAD PUSH1 0x1 PUSH1 0x1 PUSH1 0xA0 SHL SUB AND CALLER EQ PUSH2 0x6E2 JUMPI PUSH1 0x40 MLOAD PUSH4 0x118CDAA7 PUSH1 0xE0 SHL DUP2 MSTORE CALLER PUSH1 0x4 DUP3 ADD MSTORE PUSH1 0x24 ADD PUSH2 0x7C6 JUMP JUMPDEST PUSH1 0x0 DUP1 SLOAD PUSH1 0x1 PUSH1 0x1 PUSH1 0xA0 SHL SUB DUP4 DUP2 AND PUSH1 0x1 PUSH1 0x1 PUSH1 0xA0 SHL SUB NOT DUP4 AND DUP2 OR DUP5 SSTORE PUSH1 0x40 MLOAD SWAP2 SWAP1 SWAP3 AND SWAP3 DUP4 SWAP2 PUSH32 0x8BE0079C531659141344CD1FD0A4F28419497F9722A3DAAFE3B4186F6B6457E0 SWAP2 SWAP1 LOG3 POP POP JUMP JUMPDEST DUP1 CALLDATALOAD PUSH1 0x1 PUSH1 0x1 PUSH1 0xA0 SHL SUB DUP2 AND DUP2 EQ PUSH2 0x86F JUMPI PUSH1 0x0 DUP1 REVERT JUMPDEST SWAP2 SWAP1 POP JUMP JUMPDEST PUSH1 0x0 PUSH1 0x20 DUP3 DUP5 SUB SLT ISZERO PUSH2 0x886 JUMPI PUSH1 0x0 DUP1 REVERT JUMPDEST PUSH2 0x88F DUP3 PUSH2 0x858 JUMP JUMPDEST SWAP4 SWAP3 POP POP POP JUMP JUMPDEST DUP1 CALLDATALOAD DUP1 ISZERO ISZERO DUP2 EQ PUSH2 0x86F JUMPI PUSH1 0x0 DUP1 REVERT JUMPDEST PUSH1 0x0 DUP1 PUSH1 0x0 PUSH1 0x60 DUP5 DUP7 SUB SLT ISZERO PUSH2 0x8BB JUMPI PUSH1 0x0 DUP1 REVERT JUMPDEST PUSH2 0x8C4 DUP5 PUSH2 0x858 JUMP JUMPDEST SWAP3 POP PUSH1 0x20 DUP5 ADD CALLDATALOAD SWAP2 POP PUSH2 0x8D9 PUSH1 0x40 DUP6 ADD PUSH2 0x896 JUMP JUMPDEST SWAP1 POP SWAP3 POP SWAP3 POP SWAP3 JUMP JUMPDEST PUSH1 0x0 DUP1 PUSH1 0x40 DUP4 DUP6 SUB SLT ISZERO PUSH2 0x8F5 JUMPI PUSH1 0x0 DUP1 REVERT JUMPDEST PUSH2 0x8FE DUP4 PUSH2 0x858 JUMP JUMPDEST SWAP2 POP PUSH2 0x90C PUSH1 0x20 DUP5 ADD PUSH2 0x896 JUMP JUMPDEST SWAP1 POP SWAP3 POP SWAP3 SWAP1 POP JUMP JUMPDEST PUSH1 0x0 DUP1 PUSH1 0x0 PUSH1 0x60 DUP5 DUP7 SUB SLT ISZERO PUSH2 0x92A JUMPI PUSH1 0x0 DUP1 REVERT JUMPDEST PUSH2 0x933 DUP5 PUSH2 0x858 JUMP JUMPDEST SWAP3 POP PUSH2 0x941 PUSH1 0x20 DUP6 ADD PUSH2 0x896 JUMP JUMPDEST SWAP2 POP PUSH1 0x40 DUP5 ADD CALLDATALOAD SWAP1 POP SWAP3 POP SWAP3 POP SWAP3 JUMP JUMPDEST PUSH4 0x4E487B71 PUSH1 0xE0 SHL PUSH1 0x0 MSTORE PUSH1 0x11 PUSH1 0x4 MSTORE PUSH1 0x24 PUSH1 0x0 REVERT JUMPDEST PUSH1 0x0 PUSH1 0x1 DUP3 ADD PUSH2 0x979 JUMPI PUSH2 0x979 PUSH2 0x951 JUMP JUMPDEST POP PUSH1 0x1 ADD SWAP1 JUMP JUMPDEST DUP1 DUP3 ADD DUP1 DUP3 GT ISZERO PUSH2 0x993 JUMPI PUSH2 0x993 PUSH2 0x951 JUMP JUMPDEST SWAP3 SWAP2 POP POP JUMP JUMPDEST DUP1 DUP3 MUL DUP2 ISZERO DUP3 DUP3 DIV DUP5 EQ OR PUSH2 0x993 JUMPI PUSH2 0x993 PUSH2 0x951 JUMP JUMPDEST PUSH1 0x0 DUP3 PUSH2 0x9CD JUMPI PUSH4 0x4E487B71 PUSH1 0xE0 SHL PUSH1 0x0 MSTORE PUSH1 0x12 PUSH1 0x4 MSTORE PUSH1 0x24 PUSH1 0x0 REVERT JUMPDEST POP DIV SWAP1 JUMP JUMPDEST DUP2 DUP2 SUB DUP2 DUP2 GT ISZERO PUSH2 0x993 JUMPI PUSH2 0x993 PUSH2 0x951 JUMP INVALID LOG2 PUSH5 0x6970667358 0x22 SLT KECCAK256 0xC1 GT CHAINID 0xD2 0xF7 0x4B 0xD2 LOG4 MSTORE8 SWAP14 CALLVALUE STATICCALL 0xBE 0xD7 0xD7 0xB5 0x5C SMOD 0x5C 0x4D 0xE9 PUSH30 0xCB163B5AC39A119A709564736F6C63430008140033000000000000000000 "},"methodIdentifiers":{"authorizeContract(address,bool)":"5cbeb13f","authorizedContracts(address)":"d5b9221b","getReputation(address)":"9c89a0e2","getTrustScore(address)":"5e09eea1","owner()":"8da5cb5b","recordDispute(address,bool)":"58d3b6dc","recordTrade(address,uint256,bool)":"15cab858","renounceOwnership()":"715018a6","reputations(address)":"06fa15a7","transferOwnership(address)":"f2fde38b","updateLPStatus(address,bool,uint256)":"ec8e3315"}}}}}