{
  "_format": "hh-sol-artifact-1",
  "contractName": "TrustScore",
  "sourceName": "contracts/TrustScore.sol",
  "abi": [
    {
      "inputs": [],
      "stateMutability": "nonpayable",
      "type": "constructor"
    },
    {
      "inputs": [],
      "name": "NotAuthorized",
      "type": "error"
    },
    {
      "inputs": [
        {
          "internalType": "address",
          "name": "owner",
          "type": "address"
        }
      ],
      "name": "OwnableInvalidOwner",
      "type": "error"
    },
    {
      "inputs": [
        {
          "internalType": "address",
          "name": "account",
          "type": "address"
        }
      ],
      "name": "OwnableUnauthorizedAccount",
      "type": "error"
    },
    {
      "anonymous": false,
      "inputs": [
        {
          "indexed": true,
          "internalType": "address",
          "name": "contractAddr",
          "type": "address"
        },
        {
          "indexed": false,
          "internalType": "bool",
          "name": "status",
          "type": "bool"
        }
      ],
      "name": "ContractAuthorized",
      "type": "event"
    },
    {
      "anonymous": false,
      "inputs": [
        {
          "indexed": true,
          "internalType": "address",
          "name": "user",
          "type": "address"
        },
        {
          "indexed": false,
          "internalType": "bool",
          "name": "lost",
          "type": "bool"
        }
      ],
      "name": "DisputeRecorded",
      "type": "event"
    },
    {
      "anonymous": false,
      "inputs": [
        {
          "indexed": true,
          "internalType": "address",
          "name": "user",
          "type": "address"
        },
        {
          "indexed": false,
          "internalType": "bool",
          "name": "isLP",
          "type": "bool"
        },
        {
          "indexed": false,
          "internalType": "uint256",
          "name": "stake",
          "type": "uint256"
        }
      ],
      "name": "LPStatusUpdated",
      "type": "event"
    },
    {
      "anonymous": false,
      "inputs": [
        {
          "indexed": true,
          "internalType": "address",
          "name": "previousOwner",
          "type": "address"
        },
        {
          "indexed": true,
          "internalType": "address",
          "name": "newOwner",
          "type": "address"
        }
      ],
      "name": "OwnershipTransferred",
      "type": "event"
    },
    {
      "anonymous": false,
      "inputs": [
        {
          "indexed": true,
          "internalType": "address",
          "name": "user",
          "type": "address"
        },
        {
          "indexed": false,
          "internalType": "uint256",
          "name": "volume",
          "type": "uint256"
        },
        {
          "indexed": false,
          "internalType": "bool",
          "name": "asSeller",
          "type": "bool"
        }
      ],
      "name": "TradeCompleted",
      "type": "event"
    },
    {
      "inputs": [
        {
          "internalType": "address",
          "name": "contractAddr",
          "type": "address"
        },
        {
          "internalType": "bool",
          "name": "status",
          "type": "bool"
        }
      ],
      "name": "authorizeContract",
      "outputs": [],
      "stateMutability": "nonpayable",
      "type": "function"
    },
    {
      "inputs": [
        {
          "internalType": "address",
          "name": "",
          "type": "address"
        }
      ],
      "name": "authorizedContracts",
      "outputs": [
        {
          "internalType": "bool",
          "name": "",
          "type": "bool"
        }
      ],
      "stateMutability": "view",
      "type": "function"
    },
    {
      "inputs": [
        {
          "internalType": "address",
          "name": "user",
          "type": "address"
        }
      ],
      "name": "getReputation",
      "outputs": [
        {
          "internalType": "uint256",
          "name": "completedTrades",
          "type": "uint256"
        },
        {
          "internalType": "uint256",
          "name": "totalVolume",
          "type": "uint256"
        },
        {
          "internalType": "uint256",
          "name": "successfulReleases",
          "type": "uint256"
        },
        {
          "internalType": "uint256",
          "name": "disputes",
          "type": "uint256"
        },
        {
          "internalType": "uint256",
          "name": "disputesLost",
          "type": "uint256"
        },
        {
          "internalType": "bool",
          "name": "isLP",
          "type": "bool"
        }
      ],
      "stateMutability": "view",
      "type": "function"
    },
    {
      "inputs": [
        {
          "internalType": "address",
          "name": "user",
          "type": "address"
        }
      ],
      "name": "getTrustScore",
      "outputs": [
        {
          "internalType": "uint256",
          "name": "score",
          "type": "uint256"
        }
      ],
      "stateMutability": "view",
      "type": "function"
    },
    {
      "inputs": [],
      "name": "owner",
      "outputs": [
        {
          "internalType": "address",
          "name": "",
          "type": "address"
        }
      ],
      "stateMutability": "view",
      "type": "function"
    },
    {
      "inputs": [
        {
          "internalType": "address",
          "name": "user",
          "type": "address"
        },
        {
          "internalType": "bool",
          "name": "lost",
          "type": "bool"
        }
      ],
      "name": "recordDispute",
      "outputs": [],
      "stateMutability": "nonpayable",
      "type": "function"
    },
    {
      "inputs": [
        {
          "internalType": "address",
          "name": "user",
          "type": "address"
        },
        {
          "internalType": "uint256",
          "name": "volume",
          "type": "uint256"
        },
        {
          "internalType": "bool",
          "name": "asSeller",
          "type": "bool"
        }
      ],
      "name": "recordTrade",
      "outputs": [],
      "stateMutability": "nonpayable",
      "type": "function"
    },
    {
      "inputs": [],
      "name": "renounceOwnership",
      "outputs": [],
      "stateMutability": "nonpayable",
      "type": "function"
    },
    {
      "inputs": [
        {
          "internalType": "address",
          "name": "",
          "type": "address"
        }
      ],
      "name": "reputations",
      "outputs": [
        {
          "internalType": "uint256",
          "name": "completedTrades",
          "type": "uint256"
        },
        {
          "internalType": "uint256",
          "name": "totalVolume",
          "type": "uint256"
        },
        {
          "internalType": "uint256",
          "name": "successfulReleases",
          "type": "uint256"
        },
        {
          "internalType": "uint256",
          "name": "disputes",
          "type": "uint256"
        },
        {
          "internalType": "uint256",
          "name": "disputesLost",
          "type": "uint256"
        },
        {
          "internalType": "uint256",
          "name": "firstTradeAt",
          "type": "uint256"
        },
        {
          "internalType": "uint256",
          "name": "lastTradeAt",
          "type": "uint256"
        },
        {
          "internalType": "bool",
          "name": "isLP",
          "type": "bool"
        },
        {
          "internalType": "uint256",
          "name": "lpStake",
          "type": "uint256"
        }
      ],
      "stateMutability": "view",
      "type": "function"
    },
    {
      "inputs": [
        {
          "internalType": "address",
          "name": "newOwner",
          "type": "address"
        }
      ],
      "name": "transferOwnership",
      "outputs": [],
      "stateMutability": "nonpayable",
      "type": "function"
    },
    {
      "inputs": [
        {
          "internalType": "address",
          "name": "user",
          "type": "address"
        },
        {
          "internalType": "bool",
          "name": "isLP",
          "type": "bool"
        },
        {
          "internalType": "uint256",
          "name": "stake",
          "type": "uint256"
        }
      ],
      "name": "updateLPStatus",
      "outputs": [],
      "stateMutability": "nonpayable",
      "type": "function"
    }
  ],
  "bytecode": "0x608060405234801561001057600080fd5b50338061003757604051631e4fbdf760e01b81526000600482015260240160405180910390fd5b61004081610046565b50610096565b600080546001600160a01b038381166001600160a01b0319831681178455604051919092169283917f8be0079c531659141344cd1fd0a4f28419497f9722a3daafe3b4186f6b6457e09190a35050565b610a1b806100a56000396000f3fe608060405234801561001057600080fd5b50600436106100a95760003560e01c8063715018a611610071578063715018a6146101b35780638da5cb5b146101bb5780639c89a0e2146101d6578063d5b9221b14610258578063ec8e33151461028b578063f2fde38b1461029e57600080fd5b806306fa15a7146100ae57806315cab8581461015757806358d3b6dc1461016c5780635cbeb13f1461017f5780635e09eea114610192575b600080fd5b61010c6100bc366004610874565b600160208190526000918252604090912080549181015460028201546003830154600484015460058501546006860154600787015460089097015495969495939492939192909160ff9091169089565b60408051998a5260208a0198909852968801959095526060870193909352608086019190915260a085015260c0840152151560e0830152610100820152610120015b60405180910390f35b61016a6101653660046108a6565b6102b1565b005b61016a61017a3660046108e2565b6103c2565b61016a61018d3660046108e2565b6104a0565b6101a56101a0366004610874565b610507565b60405190815260200161014e565b61016a6106d0565b6000546040516001600160a01b03909116815260200161014e565b6102296101e4366004610874565b6001600160a01b031660009081526001602081905260409091208054918101546002820154600383015460048401546007909401549495929491939092909160ff1690565b6040805196875260208701959095529385019290925260608401526080830152151560a082015260c00161014e565b61027b610266366004610874565b60026020526000908152604090205460ff1681565b604051901515815260200161014e565b61016a610299366004610915565b6106e4565b61016a6102ac366004610874565b610798565b3360009081526002602052604090205460ff161580156102dc57506000546001600160a01b03163314155b156102fa5760405163ea8e4eb560e01b815260040160405180910390fd5b6001600160a01b038316600090815260016020526040812080549091829061032183610967565b91905055508281600101600082825461033a9190610980565b90915550504260068201556005810154600003610358574260058201555b81156103765760028101805490600061037083610967565b91905055505b6040805184815283151560208201526001600160a01b038616917fcfd30d126aa5a3043354a7ccf72d9a3cde98fe6f3897607733bd3e37994fa7e091015b60405180910390a250505050565b3360009081526002602052604090205460ff161580156103ed57506000546001600160a01b03163314155b1561040b5760405163ea8e4eb560e01b815260040160405180910390fd5b6001600160a01b0382166000908152600160205260408120600381018054919261043483610967565b919050555081156104575760048101805490600061045183610967565b91905055505b826001600160a01b03167ed8ca6270a334ee5388ec816cae052b09de3dc70ba557a8dfa6c4d157a7604f83604051610493911515815260200190565b60405180910390a2505050565b6104a86107db565b6001600160a01b038216600081815260026020908152604091829020805460ff191685151590811790915591519182527f3213ab8ec2ed122402f038736b41878b69ae9f61f49a7edd0666bce891d29fc9910160405180910390a25050565b6001600160a01b0381166000908152600160205260408120805482036105305750603292915050565b6000606482600001541161055d57815460649061054e90601e610999565b61055891906109b0565b610560565b601e5b905060006402540be40083600101541161059a576402540be4008360010154601461058b9190610999565b61059591906109b0565b61059d565b60145b90506000808460000154116105b35760006105cf565b835460028501546105c5906019610999565b6105cf91906109b0565b90506000808560030154116105e5576000610604565b600385015460048601546105fa906014610999565b61060491906109b0565b9050600085600501544261061891906109d2565b905060006301e133808211610646576301e1338061063783600f610999565b61064191906109b0565b610649565b600f5b600788015490915060009060ff16610662576000610665565b600a5b60ff169050808286610677898b610980565b6106819190610980565b61068b9190610980565b6106959190610980565b9850838911156106b0576106a9848a6109d2565b98506106b5565b600098505b60648911156106c357606498505b5050505050505050919050565b6106d86107db565b6106e26000610808565b565b3360009081526002602052604090205460ff1615801561070f57506000546001600160a01b03163314155b1561072d5760405163ea8e4eb560e01b815260040160405180910390fd5b6001600160a01b03831660008181526001602090815260409182902060078101805460ff191687151590811790915560088201869055835190815291820185905292917f61b533fa06bbd4d40df291592912fedc474d9c8d752bde5c7eab266db146cbbc91016103b4565b6107a06107db565b6001600160a01b0381166107cf57604051631e4fbdf760e01b8152600060048201526024015b60405180910390fd5b6107d881610808565b50565b6000546001600160a01b031633146106e25760405163118cdaa760e01b81523360048201526024016107c6565b600080546001600160a01b038381166001600160a01b0319831681178455604051919092169283917f8be0079c531659141344cd1fd0a4f28419497f9722a3daafe3b4186f6b6457e09190a35050565b80356001600160a01b038116811461086f57600080fd5b919050565b60006020828403121561088657600080fd5b61088f82610858565b9392505050565b8035801515811461086f57600080fd5b6000806000606084860312156108bb57600080fd5b6108c484610858565b9250602084013591506108d960408501610896565b90509250925092565b600080604083850312156108f557600080fd5b6108fe83610858565b915061090c60208401610896565b90509250929050565b60008060006060848603121561092a57600080fd5b61093384610858565b925061094160208501610896565b9150604084013590509250925092565b634e487b7160e01b600052601160045260246000fd5b60006001820161097957610979610951565b5060010190565b8082018082111561099357610993610951565b92915050565b808202811582820484141761099357610993610951565b6000826109cd57634e487b7160e01b600052601260045260246000fd5b500490565b818103818111156109935761099361095156fea2646970667358221220c11146d2f74bd2a4539d34fabed7d7b55c075c4de97dcb163b5ac39a119a709564736f6c63430008140033",
  "linkReferences": {},
  "deployedLinkReferences": {}
}